{
  "_format": "hh-sol-artifact-1",
  "contractName": "AgentIdentityRegistry",
  "sourceName": "contracts/AgentIdentityRegistry.sol",
  "abi": [
    {
      "anonymous": false,
      "inputs": [
        {
          "indexed": true,
          "internalType": "uint256",
          "name": "agentId",
          "type": "uint256"
        },
        {
          "indexed": true,
          "internalType": "address",
          "name": "owner",
          "type": "address"
        },
        {
          "indexed": false,
          "internalType": "string",
          "name": "uri",
          "type": "string"
        }
      ],
      "name": "AgentRegistered",
      "type": "event"
    },
    {
      "inputs": [
        {
          "internalType": "uint256",
          "name": "",
          "type": "uint256"
        }
      ],
      "name": "agentIdentities",
      "outputs": [
        {
          "internalType": "address",
          "name": "owner",
          "type": "address"
        },
        {
          "internalType": "string",
          "name": "uri",
          "type": "string"
        }
      ],
      "stateMutability": "view",
      "type": "function"
    },
    {
      "inputs": [
        {
          "internalType": "string",
          "name": "uri",
          "type": "string"
        }
      ],
      "name": "registerAgent",
      "outputs": [
        {
          "internalType": "uint256",
          "name": "",
          "type": "uint256"
        }
      ],
      "stateMutability": "nonpayable",
      "type": "function"
    }
  ],
  "bytecode": "0x60808060405234610016576104cb908161001c8239f35b600080fdfe608060408181526004918236101561001657600080fd5b600090813560e01c9081631e0eccd8146103025750632d2a95851461003a57600080fd5b346102f757602091826003193601126102fe5767ffffffffffffffff84358181116102fa57366023820112156102fa5780860135938285116102f757602482019160248636920101116102f7578054946001938487018097116102e4578683558551868101818110838211176102d15797899a87899a938a9594849d9b52338152818b601f19956100d687601f8c01169e8f9a519a018a61045d565b898952898c838b01378a828b8b0101528184019889528a52528b88209060018060a01b039051166bffffffffffffffffffffffff60a01b8254161781550193519081519384116102be57509183918b979695938d6101358d9754610423565b601f8111610258575b50508d91601f84116001146101bd57507f0d063c6022bff16d09991a9f91882ffa112f5fb2529136f65eb4c77bbd047e4398998392839289946101b2575b50501b916000199060031b1c19161790555b808251948b8652818c8701528386013783010152848133958101030190a351908152f35b01519250388061017c565b9183928f929b94169a8589528289209289905b8d8210610229575050837f0d063c6022bff16d09991a9f91882ffa112f5fb2529136f65eb4c77bbd047e439b9c10610210575b505050811b01905561018e565b015160001960f88460031b161c19169055388080610203565b9296999b509497509295989a91818881928887015181550196019401928e9a9895929b9996938e9895926101d0565b9193959780999a50859750949092945281882090601f860160051c82019286106102b4575b918a8e9a9998969492601f8f9997950160051c01915b8281106102a357508f915061013e565b8981558f9b508e98508c9101610293565b909150819061027d565b634e487b7160e01b875260419052602486fd5b634e487b7160e01b855260418b52602485fd5b634e487b7160e01b835260118952602483fd5b80fd5b8380fd5b5080fd5b939050346102fe576020908160031936011261041f573582526001808252838320805490820180546001600160a01b039092169692839186919061034585610423565b948585528783821691826000146103fd5750506001146103c1575b50506103749250969492959396038561045d565b81519485938452828185015284518093850152815b8381106103aa57505060608094508284010152601f80199101168101030190f35b808601820151878201606001528694508101610389565b86925087528187209087915b8583106103e557505061037493508201013880610360565b805483880185015286945087939092019181016103cd565b925093505061037494915060ff191682840152151560051b8201013880610360565b8280fd5b90600182811c92168015610453575b602083101461043d57565b634e487b7160e01b600052602260045260246000fd5b91607f1691610432565b90601f8019910116810190811067ffffffffffffffff82111761047f57604052565b634e487b7160e01b600052604160045260246000fdfea2646970667358221220204f246ad720405ed2fa094999efd6a0fe2e7719f8c7b7e2823ebdf0de35ceaa64736f6c63430008140033",
  "linkReferences": {},
  "deployedLinkReferences": {}
}