{"contracts/FreelancePay.sol":{"FreelancePay":{"abi":[{"inputs":[{"internalType":"address","name":"_stablecoin","type":"address"},{"internalType":"address","name":"_aiAgent","type":"address"}],"stateMutability":"nonpayable","type":"constructor"},{"anonymous":false,"inputs":[{"indexed":true,"internalType":"uint256","name":"jobId","type":"uint256"},{"indexed":false,"internalType":"uint256","name":"freelancerAmount","type":"uint256"},{"indexed":false,"internalType":"uint256","name":"clientRefund","type":"uint256"}],"name":"DisputePayout","type":"event"},{"anonymous":false,"inputs":[{"indexed":true,"internalType":"uint256","name":"jobId","type":"uint256"},{"indexed":false,"internalType":"bool","name":"approved","type":"bool"}],"name":"DisputeResolved","type":"event"},{"anonymous":false,"inputs":[{"indexed":true,"internalType":"uint256","name":"jobId","type":"uint256"},{"indexed":true,"internalType":"address","name":"client","type":"address"},{"indexed":false,"internalType":"uint256","name":"budget","type":"uint256"},{"indexed":false,"internalType":"string","name":"title","type":"string"}],"name":"JobCreated","type":"event"},{"anonymous":false,"inputs":[{"indexed":true,"internalType":"uint256","name":"jobId","type":"uint256"}],"name":"JobDisputed","type":"event"},{"anonymous":false,"inputs":[{"indexed":true,"internalType":"uint256","name":"jobId","type":"uint256"},{"indexed":true,"internalType":"address","name":"freelancer","type":"address"}],"name":"JobSubmitted","type":"event"},{"anonymous":false,"inputs":[{"indexed":true,"internalType":"uint256","name":"jobId","type":"uint256"},{"indexed":false,"internalType":"uint256","name":"index","type":"uint256"},{"indexed":false,"internalType":"uint256","name":"amount","type":"uint256"}],"name":"MilestoneAdded","type":"event"},{"anonymous":false,"inputs":[{"indexed":true,"internalType":"uint256","name":"jobId","type":"uint256"},{"indexed":false,"internalType":"uint256","name":"index","type":"uint256"}],"name":"MilestoneApproved","type":"event"},{"anonymous":false,"inputs":[{"indexed":true,"internalType":"uint256","name":"jobId","type":"uint256"},{"indexed":false,"internalType":"uint256","name":"index","type":"uint256"},{"indexed":false,"internalType":"uint256","name":"amount","type":"uint256"}],"name":"MilestonePaid","type":"event"},{"anonymous":false,"inputs":[{"indexed":true,"internalType":"uint256","name":"jobId","type":"uint256"},{"indexed":false,"internalType":"uint256","name":"index","type":"uint256"}],"name":"MilestoneSubmitted","type":"event"},{"anonymous":false,"inputs":[{"indexed":true,"internalType":"uint256","name":"jobId","type":"uint256"},{"indexed":true,"internalType":"address","name":"freelancer","type":"address"}],"name":"PaymentReleased","type":"event"},{"inputs":[{"internalType":"uint256","name":"_jobId","type":"uint256"}],"name":"acceptJob","outputs":[],"stateMutability":"nonpayable","type":"function"},{"inputs":[],"name":"aiAgent","outputs":[{"internalType":"address","name":"","type":"address"}],"stateMutability":"view","type":"function"},{"inputs":[{"internalType":"uint256","name":"_jobId","type":"uint256"}],"name":"approveMilestone","outputs":[],"stateMutability":"nonpayable","type":"function"},{"inputs":[{"internalType":"address","name":"","type":"address"},{"internalType":"uint256","name":"","type":"uint256"}],"name":"clientJobs","outputs":[{"internalType":"uint256","name":"","type":"uint256"}],"stateMutability":"view","type":"function"},{"inputs":[{"internalType":"address","name":"","type":"address"},{"internalType":"uint256","name":"","type":"uint256"}],"name":"freelancerJobs","outputs":[{"internalType":"uint256","name":"","type":"uint256"}],"stateMutability":"view","type":"function"},{"inputs":[{"internalType":"address","name":"_client","type":"address"}],"name":"getClientJobs","outputs":[{"internalType":"uint256[]","name":"","type":"uint256[]"}],"stateMutability":"view","type":"function"},{"inputs":[{"internalType":"address","name":"_freelancer","type":"address"}],"name":"getFreelancerJobs","outputs":[{"internalType":"uint256[]","name":"","type":"uint256[]"}],"stateMutability":"view","type":"function"},{"inputs":[{"internalType":"uint256","name":"_jobId","type":"uint256"}],"name":"getJob","outputs":[{"components":[{"internalType":"uint256","name":"id","type":"uint256"},{"internalType":"address","name":"client","type":"address"},{"internalType":"address","name":"freelancer","type":"address"},{"internalType":"uint256","name":"budget","type":"uint256"},{"internalType":"string","name":"title","type":"string"},{"internalType":"string","name":"description","type":"string"},{"internalType":"enum FreelancePay.JobStatus","name":"status","type":"uint8"},{"internalType":"uint256","name":"submissionTime","type":"uint256"},{"internalType":"bool","name":"aiJudgmentMade","type":"bool"},{"internalType":"bool","name":"paymentReleased","type":"bool"},{"internalType":"uint256","name":"milestoneCount","type":"uint256"},{"internalType":"uint256","name":"currentMilestone","type":"uint256"},{"internalType":"uint256","name":"escrowRemaining","type":"uint256"}],"internalType":"struct FreelancePay.Job","name":"","type":"tuple"}],"stateMutability":"view","type":"function"},{"inputs":[{"internalType":"uint256","name":"_jobId","type":"uint256"},{"internalType":"uint256","name":"_index","type":"uint256"}],"name":"getMilestone","outputs":[{"components":[{"internalType":"uint256","name":"amount","type":"uint256"},{"internalType":"bool","name":"submitted","type":"bool"},{"internalType":"bool","name":"approved","type":"bool"},{"internalType":"bool","name":"released","type":"bool"}],"internalType":"struct FreelancePay.Milestone","name":"","type":"tuple"}],"stateMutability":"view","type":"function"},{"inputs":[{"internalType":"uint256","name":"_jobId","type":"uint256"}],"name":"getMilestoneCount","outputs":[{"internalType":"uint256","name":"","type":"uint256"}],"stateMutability":"view","type":"function"},{"inputs":[],"name":"jobCounter","outputs":[{"internalType":"uint256","name":"","type":"uint256"}],"stateMutability":"view","type":"function"},{"inputs":[{"internalType":"uint256","name":"","type":"uint256"}],"name":"jobs","outputs":[{"internalType":"uint256","name":"id","type":"uint256"},{"internalType":"address","name":"client","type":"address"},{"internalType":"address","name":"freelancer","type":"address"},{"internalType":"uint256","name":"budget","type":"uint256"},{"internalType":"string","name":"title","type":"string"},{"internalType":"string","name":"description","type":"string"},{"internalType":"enum FreelancePay.JobStatus","name":"status","type":"uint8"},{"internalType":"uint256","name":"submissionTime","type":"uint256"},{"internalType":"bool","name":"aiJudgmentMade","type":"bool"},{"internalType":"bool","name":"paymentReleased","type":"bool"},{"internalType":"uint256","name":"milestoneCount","type":"uint256"},{"internalType":"uint256","name":"currentMilestone","type":"uint256"},{"internalType":"uint256","name":"escrowRemaining","type":"uint256"}],"stateMutability":"view","type":"function"},{"inputs":[],"name":"owner","outputs":[{"internalType":"address","name":"","type":"address"}],"stateMutability":"view","type":"function"},{"inputs":[{"internalType":"string","name":"_title","type":"string"},{"internalType":"string","name":"_description","type":"string"},{"internalType":"uint256","name":"_budget","type":"uint256"}],"name":"postJob","outputs":[{"internalType":"uint256","name":"","type":"uint256"}],"stateMutability":"nonpayable","type":"function"},{"inputs":[{"internalType":"string","name":"_title","type":"string"},{"internalType":"string","name":"_description","type":"string"},{"internalType":"uint256[]","name":"_milestones","type":"uint256[]"}],"name":"postJobWithMilestones","outputs":[{"internalType":"uint256","name":"","type":"uint256"}],"stateMutability":"nonpayable","type":"function"},{"inputs":[{"internalType":"uint256","name":"_jobId","type":"uint256"}],"name":"refundClient","outputs":[],"stateMutability":"nonpayable","type":"function"},{"inputs":[{"internalType":"uint256","name":"_jobId","type":"uint256"},{"internalType":"bool","name":"_approved","type":"bool"}],"name":"resolveDispute","outputs":[],"stateMutability":"nonpayable","type":"function"},{"inputs":[{"internalType":"uint256","name":"_jobId","type":"uint256"},{"internalType":"uint256","name":"freelancerBps","type":"uint256"}],"name":"resolveDisputeWithSplit","outputs":[],"stateMutability":"nonpayable","type":"function"},{"inputs":[{"internalType":"address","name":"_newAgent","type":"address"}],"name":"setAIAgent","outputs":[],"stateMutability":"nonpayable","type":"function"},{"inputs":[],"name":"stablecoin","outputs":[{"internalType":"contract IERC20","name":"","type":"address"}],"stateMutability":"view","type":"function"},{"inputs":[{"internalType":"uint256","name":"_jobId","type":"uint256"}],"name":"submitMilestone","outputs":[],"stateMutability":"nonpayable","type":"function"},{"inputs":[{"internalType":"uint256","name":"_jobId","type":"uint256"}],"name":"submitWork","outputs":[],"stateMutability":"nonpayable","type":"function"}],"evm":{"bytecode":{"linkReferences":{},"object":"608034620000a157601f6200263c38819003918201601f19168301916001600160401b03831184841017620000a6578084926040948552833981010312620000a1576200005a60206200005283620000bc565b9201620000bc565b600080546001600160a01b03199081166001600160a01b039485161790915560018054821633179055600280549091169190921617905560405161256a9081620000d28239f35b600080fd5b634e487b7160e01b600052604160045260246000fd5b51906001600160a01b0382168203620000a15756fe6080604052600436101561001257600080fd5b60003560e01c806305be04781461158d578063180aedf31461148c57806334b25ee21461139c57806340f70be41461132457806343eed51c1461118a578063442f5c881461114057806350355d76146111225780635c3b9c4a14610b8457806363b2f3c914610a8b5780636e939a72146107305780636ebe941b146106af5780637d64b00b146101c45780638da5cb5b146106865780638ed9895c146105905780638facd85914610538578063a6d5b7321461050f578063bf22c45714610302578063c2010e50146102d3578063c438b40f146101c9578063c4c11523146101c4578063cf2646c21461013c5763e9cbd8221461010e57600080fd5b34610137576000366003190112610137576000546040516001600160a01b039091168152602090f35b600080fd5b3461013757602080600319360112610137576001600160a01b0361015e611dec565b1660005260068152604060002090604051908181845491828152019360005281600020916000905b8282106101ad576101a98561019d81890382611c48565b60405191829182611e02565b0390f35b835486529485019460019384019390910190610186565b611e81565b3461013757602036600319011261013757600435806000526004602052604060002060018060a01b03600182015416330361028e5760ff6006820154169060068210156102785761021e6002600a93146122b9565b61022781612305565b015460001981019081116102625760207f939da3b627c123c81fe5aacebf925163337a0d4f8a03724640618078cad2489491604051908152a2005b634e487b7160e01b600052601160045260246000fd5b634e487b7160e01b600052602160045260246000fd5b60405162461bcd60e51b815260206004820152601760248201527f4f6e6c7920636c69656e742063616e20617070726f76650000000000000000006044820152606490fd5b346101375760203660031901126101375760043560005260046020526020600960406000200154604051908152f35b3461013757602036600319011261013757600061018060405161032481611c11565b82815282602082015282604082015282606082015260606080820152606060a08201528260c08201528260e0820152826101008201528261012082015282610140820152826101608201520152600435600052600460205260406000206040519061038e82611c11565b8054825260018101546001600160a01b0390811660208401526002820154166040830152600381015460608301526103c860048201611cf9565b60808301526103d960058201611cf9565b60a083015260ff60068201541690600682101561027857600b9160c0840152600781015460e084015260ff6008820154818116151561010086015260081c1615156101208401526009810154610140840152600a81015461016084015201546101808201526040518091602082528051602083015260018060a01b03602082015116604083015260018060a01b0360408201511660608301526060810151608083015260808101516101806104b561049f6101a0938460a08801526101c0870190611d9f565b60a0850151868203601f190160c0880152611d9f565b926104c860c082015160e0870190611ddf565b60e081015161010086015261010081015115156101208601526101208101511515610140860152610140810151610160860152610160810151828601520151908301520390f35b34610137576000366003190112610137576002546040516001600160a01b039091168152602090f35b3461013757604036600319011261013757610551611dec565b6001600160a01b03166000908152600660205260409020805460243591908210156101375760209161058291611e3d565b90546040519160031b1c8152f35b346101375761059e36611e6b565b90604051906105ac82611c2d565b6000825260006060602093828582015282604082015201528060005260058252604060002054831015610651576080926105f1916000526005835260406000206120a3565b50906040516105ff81611c2d565b600183549384835201549180820160ff84161515815260ff60606040850194828760081c1615158652019460101c16151584526040519485525115159084015251151560408301525115156060820152f35b60405162461bcd60e51b815260048101839052600d60248201526c092dcecc2d8d2c840d2dcc8caf609b1b6044820152606490fd5b34610137576000366003190112610137576001546040516001600160a01b039091168152602090f35b34610137576020366003190112610137576106c8611dec565b6001546001600160a01b039190821633036106f657166001600160601b0360a01b6002541617600255600080f35b60405162461bcd60e51b815260206004820152601260248201527113db9b1e481bdddb995c88185b1b1bddd95960721b6044820152606490fd5b346101375761073e36611e6b565b6002546001600160a01b039061075790821633146121e5565b82600052602060048152604060002092600684019081549460ff86166006811015610278578060026107929214908115610a80575b50612229565b600881019485549360ff8560081c16610a3b57600b8301968754988915916107ba831561226a565b61271092838811610a0657878c02908c820489141715610262578c9860006107eb60059661010194049e8f906122ac565b9c5561ffff191617905560ff191617905586610944575b85610871575b50917f5a87909bff68caaaaf0b3fd9c74eeccc928832f879315e5c6fb7a73612f26c0c847f82ca9b6ff85d9d7e3d2e0e0bd4950f362431e50269bf30b6f5e87acc6c9de34397959385600a600960409a98015491015587519015158152a28351928352820152a2005b60008054600184015460405163a9059cbb60e01b81529084166001600160a01b0316600482015260248101899052949550929392869284926044928492165af19081156109385760009161090b575b50156108cf5790859187610808565b60405162461bcd60e51b815260048101849052601460248201527310db1a595b9d081c99599d5b990819985a5b195960621b6044820152606490fd5b61092b9150843d8611610931575b6109238183611c48565b810190612026565b876108c0565b503d610919565b6040513d6000823e3d90fd5b60008054600284015460405163a9059cbb60e01b81529084166001600160a01b03166004820152602481018a90529495509293919286918391604491839187165af1908115610938576000916109e9575b50156109a45790869291610802565b60405162461bcd60e51b815260048101859052601860248201527f467265656c616e636572207061796f7574206661696c656400000000000000006044820152606490fd5b610a009150853d8711610931576109238183611c48565b88610995565b60405162461bcd60e51b8152600481018b9052600d60248201526c125b9d985b1a59081cdc1b1a5d609a1b6044820152606490fd5b60405162461bcd60e51b815260048101879052601860248201527f5061796d656e7420616c72656164792072656c656173656400000000000000006044820152606490fd5b60049150148961078c565b34610137576020366003190112610137576004358060005260046020526040600020906006820180549260ff8416600681101561027857610b4b57600201805490936001600160a01b038216610b0f57610b0d9460019233906001600160601b0360a01b1617905560ff19161790553360005260076020526040600020612150565b005b60405162461bcd60e51b8152602060048201526014602482015273129bd888185b1c9958591e481858d8d95c1d195960621b6044820152606490fd5b60405162461bcd60e51b81526020600482015260116024820152704a6f62206e6f7420617661696c61626c6560781b6044820152606490fd5b34610137576060366003190112610137576004356001600160401b03811161013757610bb4903690600401611c69565b6024356001600160401b03811161013757610bd3903690600401611c69565b90604435156110dd57600080546040516323b872dd60e01b815233600482015230602482015260448035908201529160209183916064918391906001600160a01b03165af1801561093857610c30916000916110be575b5061203e565b610c3b60035461207c565b908160035560405192610c4d84611c11565b82845233602085015260006040850152604435606085015281608085015260a0840152600060c0840152600060e084015260006101008401526000610120840152600161014084015260006101608401526044356101808401528160005260046020526040600020835181556001810160018060a01b03602086015116906001600160601b0360a01b9182825416179055600282019060018060a01b03604087015116908254161790556060840151600382015560808401518051906001600160401b038211610fdd578190610d266004850154611cbf565b601f811161106b575b50602090601f8311600114610ffe57600092610ff3575b50508160011b916000199060031b1c19161760048201555b60a08401518051906001600160401b038211610fdd578190610d836005850154611cbf565b601f8111610f8a575b50602090601f8311600114610f1d57600092610f12575b50508160011b916000199060031b1c19161760058201555b60c084015193600685101561027857610180600b91610ddf6020976006860161208b565b60e08101516007850155610e2960088501610e0d6101008401511515829060ff801983541691151516179055565b610120830151815461ff00191690151560081b61ff0016179055565b6101408101516009850155610160810151600a85015501519101558160005260058352610e7f604060002060405190610e6182611c2d565b604435825260008683015260006040830152600060608301526120bf565b817f99c090ea4e24c09baf74da49bf4100be7de555b972b1e6e4f495989738093d79604080516000815260443587820152a23360005260068352610ec7826040600020612150565b817f6f3a5227c058380f6d30b3c63e04e4b049f2df6d1780f11e4ff1b3e9728a3652604051604435815260408682015280610f0733956040830190611d9f565b0390a3604051908152f35b015190508680610da3565b600585016000908152602081209350601f198516905b818110610f725750908460019594939210610f59575b505050811b016005820155610dbb565b015160001960f88460031b161c19169055868080610f49565b92936020600181928786015181550195019301610f33565b909150600584016000526020600020601f840160051c810160208510610fd6575b90849392915b601f830160051c82018110610fc7575050610d8c565b60008155859450600101610fb1565b5080610fab565b634e487b7160e01b600052604160045260246000fd5b015190508680610d46565b600485016000908152602081209350601f198516905b818110611053575090846001959493921061103a575b505050811b016004820155610d5e565b015160001960f88460031b161c1916905586808061102a565b92936020600181928786015181550195019301611014565b909150600484016000526020600020601f840160051c8101602085106110b7575b90849392915b601f830160051c820181106110a8575050610d2f565b60008155859450600101611092565b508061108c565b6110d7915060203d602011610931576109238183611c48565b84610c2a565b60405162461bcd60e51b815260206004820152601d60248201527f427564676574206d7573742062652067726561746572207468616e20300000006044820152606490fd5b34610137576000366003190112610137576020600354604051908152f35b3461013757604036600319011261013757611159611dec565b6001600160a01b03166000908152600760205260409020805460243591908210156101375760209161058291611e3d565b3461013757602080600319360112610137576004356000526004815260406000209060018060a01b0391826001820154168033036112e657600682019384549260ff84166006811015610278576004036112ae579161123e9391600b8694019660058854946111fa86151561226a565b60ff19161790556000805460405163a9059cbb60e01b81526001600160a01b0390941660048501526024840194909452919485939190911691839182906044820190565b03925af190811561093857600091611291575b501561125d5760008255005b6064906040519062461bcd60e51b82526004820152600d60248201526c1499599d5b990819985a5b1959609a1b6044820152fd5b6112a89150823d8411610931576109238183611c48565b83611251565b60405162461bcd60e51b815260048101869052601060248201526f129bd8881b9bdd08191a5cdc1d5d195960821b6044820152606490fd5b60405162461bcd60e51b815260048101849052601660248201527513db9b1e4818db1a595b9d0818d85b881c99599d5b9960521b6044820152606490fd5b3461013757602080600319360112610137576001600160a01b03611346611dec565b1660005260078152604060002090604051908181845491828152019360005281600020916000905b828210611385576101a98561019d81890382611c48565b83548652948501946001938401939091019061136e565b34610137576040366003190112610137576004356024358015158103610137576113d160018060a01b036002541633146121e5565b81600052600460205260406000206006810191825460ff811660068110156102785760026113ff9114612229565b60088301805460ff199081166001179091559115611457575091600361142a93825416179055612305565b7f5a87909bff68caaaaf0b3fd9c74eeccc928832f879315e5c6fb7a73612f26c0c602060405160018152a2005b60049250161790557f5a87909bff68caaaaf0b3fd9c74eeccc928832f879315e5c6fb7a73612f26c0c602060405160008152a2005b3461013757602036600319011261013757600435600052600460205260406000208054600160a01b60019003918260018201541692600282015416600382015491600481016114da90611cf9565b926114e760058301611cf9565b93600683015460ff1694600784015490600885015492600986015494600a87015496600b0154976040519b8c9b8c5260208c015260408b015260608a01526101a08060808b0152890161153991611d9f565b88810360a08a015261154a91611d9f565b9560c0880161155891611ddf565b60e087015260ff8116151561010087015260081c60ff1615156101208601526101408501526101608401526101808301520390f35b34610137576060366003190112610137576004356001600160401b038111610137576115bd903690600401611c69565b6024356001600160401b038111610137576115dc903690600401611c69565b60448035906001600160401b0382116101375736602383011215610137578160040135916001600160401b038311610fdd578260051b604051936116236020830186611c48565b8452602460208501918301019136831161013757602401905b828210611c0157505050815115611bc757600093845b83518610156116cb576116658685612185565b511561168f576116758685612185565b51810180911161026257611689909561207c565b94611652565b60405162461bcd60e51b815260206004820152601560248201527404d696c6573746f6e65206d757374206265203e203605c1b81850152606490fd5b600080546040516323b872dd60e01b81523360048201523060248201526044810184905292939287928792602091839160649183916001600160a01b03165af180156109385761172291600091611ba8575061203e565b61172d60035461207c565b918260035581516040519161174183611c11565b8483523360208401526000604084015286606084015285608084015260a0830152600060c0830152600060e083015260006101008301526000610120830152610140820152600061016082015284610180820152826000526004602052604060002090805182556001820160018060a01b03602083015116906001600160601b0360a01b9182825416179055600283019060018060a01b03604084015116908254161790556060810151600383015560808101518051906001600160401b038211610fdd5781906118156004860154611cbf565b601f8111611b55575b50602090601f8311600114611ae357600092611ad8575b50508160011b916000199060031b1c19161760048301555b60a08101518051906001600160401b038211610fdd5781906118726005860154611cbf565b601f8111611a85575b50602090601f8311600114611a1357600092611a08575b50508160011b916000199060031b1c19161760058301555b60c0810151600681101561027857600b916118cb610180926006860161208b565b60e081015160078501556118f960088501610e0d6101008401511515829060ff801983541691151516179055565b6101408101516009850155610160810151600a850155015191015560005b81518110156119af576119aa9083600052600560205261196a604060002061193f8386612185565b51906040519161194e83611c2d565b82526000602083015260006040830152600060608301526120bf565b837f99c090ea4e24c09baf74da49bf4100be7de555b972b1e6e4f495989738093d7960406119988487612185565b518151908582526020820152a261207c565b611917565b60208385817f6f3a5227c058380f6d30b3c63e04e4b049f2df6d1780f11e4ff1b3e9728a36528933600052600686526119ec836040600020612150565b60405190815260408682015280610f0733956040830190611d9f565b015190508880611892565b9250600585016000526020600020906000935b601f1984168510611a6a576001945083601f19811610611a51575b505050811b0160058301556118aa565b015160001960f88460031b161c19169055888080611a41565b81810151835560209485019460019093019290910190611a26565b909150600585016000526020600020601f840160051c810160208510611ad1575b90849392915b601f830160051c82018110611ac257505061187b565b60008155859450600101611aac565b5080611aa6565b015190508880611835565b9250600485016000526020600020906000935b601f1984168510611b3a576001945083601f19811610611b21575b505050811b01600483015561184d565b015160001960f88460031b161c19169055888080611b11565b81810151835560209485019460019093019290910190611af6565b909150600485016000526020600020601f840160051c810160208510611ba1575b90849392915b601f830160051c82018110611b9257505061181e565b60008155859450600101611b7c565b5080611b76565b611bc1915060203d602011610931576109238183611c48565b86610c2a565b60649072135a5b195cdd1bdb995cc81c995c5d5a5c9959606a1b6040519162461bcd60e51b83526020600484015260136024840152820152fd5b813581526020918201910161163c565b6101a081019081106001600160401b03821117610fdd57604052565b608081019081106001600160401b03821117610fdd57604052565b90601f801991011681019081106001600160401b03821117610fdd57604052565b81601f82011215610137578035906001600160401b038211610fdd5760405192611c9d601f8401601f191660200185611c48565b8284526020838301011161013757816000926020809301838601378301015290565b90600182811c92168015611cef575b6020831014611cd957565b634e487b7160e01b600052602260045260246000fd5b91607f1691611cce565b9060405191826000825492611d0d84611cbf565b908184526001948581169081600014611d7c5750600114611d39575b5050611d3792500383611c48565b565b9093915060005260209081600020936000915b818310611d64575050611d3793508201013880611d29565b85548884018501529485019487945091830191611d4c565b915050611d3794506020925060ff191682840152151560051b8201013880611d29565b919082519283825260005b848110611dcb575050826000602080949584010152601f8019910116010190565b602081830181015184830182015201611daa565b9060068210156102785752565b600435906001600160a01b038216820361013757565b6020908160408183019282815285518094520193019160005b828110611e29575050505090565b835185529381019392810192600101611e1b565b8054821015611e555760005260206000200190600090565b634e487b7160e01b600052603260045260246000fd5b6040906003190112610137576004359060243590565b3461013757602080600319360112610137576004906000908235825282815260409081832060018060a01b036002820154163303611fe357600681019060ff8254166006811015611fd057600103611f9757600a81015491611ee860098301548410612199565b81548652600584526001611efe848789206120a3565b500180549760ff8916611f5457507f26cf581e2709e0615164af15a371b2dd10fb48d5baed91e9eacd557633c16bcb959697600291600160ff19809316179055825416179055426007820155549351908152a280f35b865162461bcd60e51b8152908101869052601b60248201527f4d696c6573746f6e6520616c7265616479207375626d697474656400000000006044820152606490fd5b835162461bcd60e51b815280870184905260136024820152724a6f62206e6f7420696e2070726f677265737360681b6044820152606490fd5b634e487b7160e01b865260218752602486fd5b825162461bcd60e51b8152808601839052601b60248201527f4e6f74207468652061737369676e656420667265656c616e63657200000000006044820152606490fd5b90816020910312610137575180151581036101375790565b1561204557565b60405162461bcd60e51b815260206004820152600f60248201526e151c985b9cd9995c8819985a5b1959608a1b6044820152606490fd5b60001981146102625760010190565b9060068110156102785760ff80198354169116179055565b8054821015611e555760005260206000209060011b0190600090565b8054600160401b811015610fdd576120dc916001820181556120a3565b61213a57600160609183518155019161210760208201511515849060ff801983541691151516179055565b6040810151835461ff00191690151560081b61ff00161783550151815462ff0000191690151560101b62ff000016179055565b634e487b7160e01b600052600060045260246000fd5b8054600160401b811015610fdd5761216d91600182018155611e3d565b819291549060031b91821b91600019901b1916179055565b8051821015611e555760209160051b010190565b156121a057565b60405162461bcd60e51b815260206004820152601760248201527f416c6c206d696c6573746f6e657320636f6d706c6574650000000000000000006044820152606490fd5b156121ec57565b60405162461bcd60e51b815260206004820152601560248201527413db9b1e481052481859d95b9d08185b1b1bddd959605a1b6044820152606490fd5b1561223057565b60405162461bcd60e51b8152602060048201526012602482015271496e76616c6964206a6f622073746174757360701b6044820152606490fd5b1561227157565b60405162461bcd60e51b81526020600482015260136024820152724e6f20657363726f772072656d61696e696e6760681b6044820152606490fd5b9190820391821161026257565b156122c057565b60405162461bcd60e51b815260206004820152601760248201527f4d696c6573746f6e65206e6f74207375626d69747465640000000000000000006044820152606490fd5b600a8101908154600982019161231d83548310612199565b805493600094855260209360058552604061233a858289206120a3565b509060018201805461234e60ff82166122b9565b60ff8160101c166124f757620101009062ffff0019161790558154612378600b87019182546122ac565b905587546002860180548454845163a9059cbb60e01b81526001600160a01b039283166004820152602481019190915291999098929091908290829060449082908f908e165af19081156124ed578b916124d0575b501561248d57865493548351928352908201527fafc8fc5dd6037bf38d34d9d51bb5ecc0af143248332c63ae9e83bbef6d4638d99190a2815491600183018093116124795782905554116124665760088101805461ff00191661010017905560068101805460ff1916600517905554915416917f4156924bd7e340b19303af17bf5323d66fae5dc16f350319092e0839c85436839080a3565b600601805460ff19166001179055505050565b634e487b7160e01b87526011600452602487fd5b60649083519062461bcd60e51b82526004820152601760248201527f5061796d656e74207472616e73666572206661696c65640000000000000000006044820152fd5b6124e79150823d8411610931576109238183611c48565b386123cd565b84513d8d823e3d90fd5b825162461bcd60e51b8152600481018a90526016602482015275135a5b195cdd1bdb9948185b1c9958591e481c185a5960521b6044820152606490fdfea2646970667358221220e4693284d425ed8e5689c93e08add4bd957ca357c74b242a9c64a51ae403ee0f64736f6c63430008140033","opcodes":"PUSH1 0x80 CALLVALUE PUSH3 0xA1 JUMPI PUSH1 0x1F PUSH3 0x263C CODESIZE DUP2 SWAP1 SUB SWAP2 DUP3 ADD PUSH1 0x1F NOT AND DUP4 ADD SWAP2 PUSH1 0x1 PUSH1 0x1 PUSH1 0x40 SHL SUB DUP4 GT DUP5 DUP5 LT OR PUSH3 0xA6 JUMPI DUP1 DUP5 SWAP3 PUSH1 0x40 SWAP5 DUP6 MSTORE DUP4 CODECOPY DUP2 ADD SUB SLT PUSH3 0xA1 JUMPI PUSH3 0x5A PUSH1 0x20 PUSH3 0x52 DUP4 PUSH3 0xBC JUMP JUMPDEST SWAP3 ADD PUSH3 0xBC JUMP JUMPDEST PUSH1 0x0 DUP1 SLOAD PUSH1 0x1 PUSH1 0x1 PUSH1 0xA0 SHL SUB NOT SWAP1 DUP2 AND PUSH1 0x1 PUSH1 0x1 PUSH1 0xA0 SHL SUB SWAP5 DUP6 AND OR SWAP1 SWAP2 SSTORE PUSH1 0x1 DUP1 SLOAD DUP3 AND CALLER OR SWAP1 SSTORE PUSH1 0x2 DUP1 SLOAD SWAP1 SWAP2 AND SWAP2 SWAP1 SWAP3 AND OR SWAP1 SSTORE PUSH1 0x40 MLOAD PUSH2 0x256A SWAP1 DUP2 PUSH3 0xD2 DUP3 CODECOPY RETURN JUMPDEST PUSH1 0x0 DUP1 REVERT JUMPDEST PUSH4 0x4E487B71 PUSH1 0xE0 SHL PUSH1 0x0 MSTORE PUSH1 0x41 PUSH1 0x4 MSTORE PUSH1 0x24 PUSH1 0x0 REVERT JUMPDEST MLOAD SWAP1 PUSH1 0x1 PUSH1 0x1 PUSH1 0xA0 SHL SUB DUP3 AND DUP3 SUB PUSH3 0xA1 JUMPI JUMP INVALID PUSH1 0x80 PUSH1 0x40 MSTORE PUSH1 0x4 CALLDATASIZE LT ISZERO PUSH2 0x12 JUMPI PUSH1 0x0 DUP1 REVERT JUMPDEST PUSH1 0x0 CALLDATALOAD PUSH1 0xE0 SHR DUP1 PUSH4 0x5BE0478 EQ PUSH2 0x158D JUMPI DUP1 PUSH4 0x180AEDF3 EQ PUSH2 0x148C JUMPI DUP1 PUSH4 0x34B25EE2 EQ PUSH2 0x139C JUMPI DUP1 PUSH4 0x40F70BE4 EQ PUSH2 0x1324 JUMPI DUP1 PUSH4 0x43EED51C EQ PUSH2 0x118A JUMPI DUP1 PUSH4 0x442F5C88 EQ PUSH2 0x1140 JUMPI DUP1 PUSH4 0x50355D76 EQ PUSH2 0x1122 JUMPI DUP1 PUSH4 0x5C3B9C4A EQ PUSH2 0xB84 JUMPI DUP1 PUSH4 0x63B2F3C9 EQ PUSH2 0xA8B JUMPI DUP1 PUSH4 0x6E939A72 EQ PUSH2 0x730 JUMPI DUP1 PUSH4 0x6EBE941B EQ PUSH2 0x6AF JUMPI DUP1 PUSH4 0x7D64B00B EQ PUSH2 0x1C4 JUMPI DUP1 PUSH4 0x8DA5CB5B EQ PUSH2 0x686 JUMPI DUP1 PUSH4 0x8ED9895C EQ PUSH2 0x590 JUMPI DUP1 PUSH4 0x8FACD859 EQ PUSH2 0x538 JUMPI DUP1 PUSH4 0xA6D5B732 EQ PUSH2 0x50F JUMPI DUP1 PUSH4 0xBF22C457 EQ PUSH2 0x302 JUMPI DUP1 PUSH4 0xC2010E50 EQ PUSH2 0x2D3 JUMPI DUP1 PUSH4 0xC438B40F EQ PUSH2 0x1C9 JUMPI DUP1 PUSH4 0xC4C11523 EQ PUSH2 0x1C4 JUMPI DUP1 PUSH4 0xCF2646C2 EQ PUSH2 0x13C JUMPI PUSH4 0xE9CBD822 EQ PUSH2 0x10E JUMPI PUSH1 0x0 DUP1 REVERT JUMPDEST CALLVALUE PUSH2 0x137 JUMPI PUSH1 0x0 CALLDATASIZE PUSH1 0x3 NOT ADD SLT PUSH2 0x137 JUMPI PUSH1 0x0 SLOAD PUSH1 0x40 MLOAD PUSH1 0x1 PUSH1 0x1 PUSH1 0xA0 SHL SUB SWAP1 SWAP2 AND DUP2 MSTORE PUSH1 0x20 SWAP1 RETURN JUMPDEST PUSH1 0x0 DUP1 REVERT JUMPDEST CALLVALUE PUSH2 0x137 JUMPI PUSH1 0x20 DUP1 PUSH1 0x3 NOT CALLDATASIZE ADD SLT PUSH2 0x137 JUMPI PUSH1 0x1 PUSH1 0x1 PUSH1 0xA0 SHL SUB PUSH2 0x15E PUSH2 0x1DEC JUMP JUMPDEST AND PUSH1 0x0 MSTORE PUSH1 0x6 DUP2 MSTORE PUSH1 0x40 PUSH1 0x0 KECCAK256 SWAP1 PUSH1 0x40 MLOAD SWAP1 DUP2 DUP2 DUP5 SLOAD SWAP2 DUP3 DUP2 MSTORE ADD SWAP4 PUSH1 0x0 MSTORE DUP2 PUSH1 0x0 KECCAK256 SWAP2 PUSH1 0x0 SWAP1 JUMPDEST DUP3 DUP3 LT PUSH2 0x1AD JUMPI PUSH2 0x1A9 DUP6 PUSH2 0x19D DUP2 DUP10 SUB DUP3 PUSH2 0x1C48 JUMP JUMPDEST PUSH1 0x40 MLOAD SWAP2 DUP3 SWAP2 DUP3 PUSH2 0x1E02 JUMP JUMPDEST SUB SWAP1 RETURN JUMPDEST DUP4 SLOAD DUP7 MSTORE SWAP5 DUP6 ADD SWAP5 PUSH1 0x1 SWAP4 DUP5 ADD SWAP4 SWAP1 SWAP2 ADD SWAP1 PUSH2 0x186 JUMP JUMPDEST PUSH2 0x1E81 JUMP JUMPDEST CALLVALUE PUSH2 0x137 JUMPI PUSH1 0x20 CALLDATASIZE PUSH1 0x3 NOT ADD SLT PUSH2 0x137 JUMPI PUSH1 0x4 CALLDATALOAD DUP1 PUSH1 0x0 MSTORE PUSH1 0x4 PUSH1 0x20 MSTORE PUSH1 0x40 PUSH1 0x0 KECCAK256 PUSH1 0x1 DUP1 PUSH1 0xA0 SHL SUB PUSH1 0x1 DUP3 ADD SLOAD AND CALLER SUB PUSH2 0x28E JUMPI PUSH1 0xFF PUSH1 0x6 DUP3 ADD SLOAD AND SWAP1 PUSH1 0x6 DUP3 LT ISZERO PUSH2 0x278 JUMPI PUSH2 0x21E PUSH1 0x2 PUSH1 0xA SWAP4 EQ PUSH2 0x22B9 JUMP JUMPDEST PUSH2 0x227 DUP2 PUSH2 0x2305 JUMP JUMPDEST ADD SLOAD PUSH1 0x0 NOT DUP2 ADD SWAP1 DUP2 GT PUSH2 0x262 JUMPI PUSH1 0x20 PUSH32 0x939DA3B627C123C81FE5AACEBF925163337A0D4F8A03724640618078CAD24894 SWAP2 PUSH1 0x40 MLOAD SWAP1 DUP2 MSTORE LOG2 STOP JUMPDEST PUSH4 0x4E487B71 PUSH1 0xE0 SHL PUSH1 0x0 MSTORE PUSH1 0x11 PUSH1 0x4 MSTORE PUSH1 0x24 PUSH1 0x0 REVERT JUMPDEST PUSH4 0x4E487B71 PUSH1 0xE0 SHL PUSH1 0x0 MSTORE PUSH1 0x21 PUSH1 0x4 MSTORE PUSH1 0x24 PUSH1 0x0 REVERT JUMPDEST PUSH1 0x40 MLOAD PUSH3 0x461BCD PUSH1 0xE5 SHL DUP2 MSTORE PUSH1 0x20 PUSH1 0x4 DUP3 ADD MSTORE PUSH1 0x17 PUSH1 0x24 DUP3 ADD MSTORE PUSH32 0x4F6E6C7920636C69656E742063616E20617070726F7665000000000000000000 PUSH1 0x44 DUP3 ADD MSTORE PUSH1 0x64 SWAP1 REVERT JUMPDEST CALLVALUE PUSH2 0x137 JUMPI PUSH1 0x20 CALLDATASIZE PUSH1 0x3 NOT ADD SLT PUSH2 0x137 JUMPI PUSH1 0x4 CALLDATALOAD PUSH1 0x0 MSTORE PUSH1 0x4 PUSH1 0x20 MSTORE PUSH1 0x20 PUSH1 0x9 PUSH1 0x40 PUSH1 0x0 KECCAK256 ADD SLOAD PUSH1 0x40 MLOAD SWAP1 DUP2 MSTORE RETURN JUMPDEST CALLVALUE PUSH2 0x137 JUMPI PUSH1 0x20 CALLDATASIZE PUSH1 0x3 NOT ADD SLT PUSH2 0x137 JUMPI PUSH1 0x0 PUSH2 0x180 PUSH1 0x40 MLOAD PUSH2 0x324 DUP2 PUSH2 0x1C11 JUMP JUMPDEST DUP3 DUP2 MSTORE DUP3 PUSH1 0x20 DUP3 ADD MSTORE DUP3 PUSH1 0x40 DUP3 ADD MSTORE DUP3 PUSH1 0x60 DUP3 ADD MSTORE PUSH1 0x60 PUSH1 0x80 DUP3 ADD MSTORE PUSH1 0x60 PUSH1 0xA0 DUP3 ADD MSTORE DUP3 PUSH1 0xC0 DUP3 ADD MSTORE DUP3 PUSH1 0xE0 DUP3 ADD MSTORE DUP3 PUSH2 0x100 DUP3 ADD MSTORE DUP3 PUSH2 0x120 DUP3 ADD MSTORE DUP3 PUSH2 0x140 DUP3 ADD MSTORE DUP3 PUSH2 0x160 DUP3 ADD MSTORE ADD MSTORE PUSH1 0x4 CALLDATALOAD PUSH1 0x0 MSTORE PUSH1 0x4 PUSH1 0x20 MSTORE PUSH1 0x40 PUSH1 0x0 KECCAK256 PUSH1 0x40 MLOAD SWAP1 PUSH2 0x38E DUP3 PUSH2 0x1C11 JUMP JUMPDEST DUP1 SLOAD DUP3 MSTORE PUSH1 0x1 DUP2 ADD SLOAD PUSH1 0x1 PUSH1 0x1 PUSH1 0xA0 SHL SUB SWAP1 DUP2 AND PUSH1 0x20 DUP5 ADD MSTORE PUSH1 0x2 DUP3 ADD SLOAD AND PUSH1 0x40 DUP4 ADD MSTORE PUSH1 0x3 DUP2 ADD SLOAD PUSH1 0x60 DUP4 ADD MSTORE PUSH2 0x3C8 PUSH1 0x4 DUP3 ADD PUSH2 0x1CF9 JUMP JUMPDEST PUSH1 0x80 DUP4 ADD MSTORE PUSH2 0x3D9 PUSH1 0x5 DUP3 ADD PUSH2 0x1CF9 JUMP JUMPDEST PUSH1 0xA0 DUP4 ADD MSTORE PUSH1 0xFF PUSH1 0x6 DUP3 ADD SLOAD AND SWAP1 PUSH1 0x6 DUP3 LT ISZERO PUSH2 0x278 JUMPI PUSH1 0xB SWAP2 PUSH1 0xC0 DUP5 ADD MSTORE PUSH1 0x7 DUP2 ADD SLOAD PUSH1 0xE0 DUP5 ADD MSTORE PUSH1 0xFF PUSH1 0x8 DUP3 ADD SLOAD DUP2 DUP2 AND ISZERO ISZERO PUSH2 0x100 DUP7 ADD MSTORE PUSH1 0x8 SHR AND ISZERO ISZERO PUSH2 0x120 DUP5 ADD MSTORE PUSH1 0x9 DUP2 ADD SLOAD PUSH2 0x140 DUP5 ADD MSTORE PUSH1 0xA DUP2 ADD SLOAD PUSH2 0x160 DUP5 ADD MSTORE ADD SLOAD PUSH2 0x180 DUP3 ADD MSTORE PUSH1 0x40 MLOAD DUP1 SWAP2 PUSH1 0x20 DUP3 MSTORE DUP1 MLOAD PUSH1 0x20 DUP4 ADD MSTORE PUSH1 0x1 DUP1 PUSH1 0xA0 SHL SUB PUSH1 0x20 DUP3 ADD MLOAD AND PUSH1 0x40 DUP4 ADD MSTORE PUSH1 0x1 DUP1 PUSH1 0xA0 SHL SUB PUSH1 0x40 DUP3 ADD MLOAD AND PUSH1 0x60 DUP4 ADD MSTORE PUSH1 0x60 DUP2 ADD MLOAD PUSH1 0x80 DUP4 ADD MSTORE PUSH1 0x80 DUP2 ADD MLOAD PUSH2 0x180 PUSH2 0x4B5 PUSH2 0x49F PUSH2 0x1A0 SWAP4 DUP5 PUSH1 0xA0 DUP9 ADD MSTORE PUSH2 0x1C0 DUP8 ADD SWAP1 PUSH2 0x1D9F JUMP JUMPDEST PUSH1 0xA0 DUP6 ADD MLOAD DUP7 DUP3 SUB PUSH1 0x1F NOT ADD PUSH1 0xC0 DUP9 ADD MSTORE PUSH2 0x1D9F JUMP JUMPDEST SWAP3 PUSH2 0x4C8 PUSH1 0xC0 DUP3 ADD MLOAD PUSH1 0xE0 DUP8 ADD SWAP1 PUSH2 0x1DDF JUMP JUMPDEST PUSH1 0xE0 DUP2 ADD MLOAD PUSH2 0x100 DUP7 ADD MSTORE PUSH2 0x100 DUP2 ADD MLOAD ISZERO ISZERO PUSH2 0x120 DUP7 ADD MSTORE PUSH2 0x120 DUP2 ADD MLOAD ISZERO ISZERO PUSH2 0x140 DUP7 ADD MSTORE PUSH2 0x140 DUP2 ADD MLOAD PUSH2 0x160 DUP7 ADD MSTORE PUSH2 0x160 DUP2 ADD MLOAD DUP3 DUP7 ADD MSTORE ADD MLOAD SWAP1 DUP4 ADD MSTORE SUB SWAP1 RETURN JUMPDEST CALLVALUE PUSH2 0x137 JUMPI PUSH1 0x0 CALLDATASIZE PUSH1 0x3 NOT ADD SLT PUSH2 0x137 JUMPI PUSH1 0x2 SLOAD PUSH1 0x40 MLOAD PUSH1 0x1 PUSH1 0x1 PUSH1 0xA0 SHL SUB SWAP1 SWAP2 AND DUP2 MSTORE PUSH1 0x20 SWAP1 RETURN JUMPDEST CALLVALUE PUSH2 0x137 JUMPI PUSH1 0x40 CALLDATASIZE PUSH1 0x3 NOT ADD SLT PUSH2 0x137 JUMPI PUSH2 0x551 PUSH2 0x1DEC JUMP JUMPDEST PUSH1 0x1 PUSH1 0x1 PUSH1 0xA0 SHL SUB AND PUSH1 0x0 SWAP1 DUP2 MSTORE PUSH1 0x6 PUSH1 0x20 MSTORE PUSH1 0x40 SWAP1 KECCAK256 DUP1 SLOAD PUSH1 0x24 CALLDATALOAD SWAP2 SWAP1 DUP3 LT ISZERO PUSH2 0x137 JUMPI PUSH1 0x20 SWAP2 PUSH2 0x582 SWAP2 PUSH2 0x1E3D JUMP JUMPDEST SWAP1 SLOAD PUSH1 0x40 MLOAD SWAP2 PUSH1 0x3 SHL SHR DUP2 MSTORE RETURN JUMPDEST CALLVALUE PUSH2 0x137 JUMPI PUSH2 0x59E CALLDATASIZE PUSH2 0x1E6B JUMP JUMPDEST SWAP1 PUSH1 0x40 MLOAD SWAP1 PUSH2 0x5AC DUP3 PUSH2 0x1C2D JUMP JUMPDEST PUSH1 0x0 DUP3 MSTORE PUSH1 0x0 PUSH1 0x60 PUSH1 0x20 SWAP4 DUP3 DUP6 DUP3 ADD MSTORE DUP3 PUSH1 0x40 DUP3 ADD MSTORE ADD MSTORE DUP1 PUSH1 0x0 MSTORE PUSH1 0x5 DUP3 MSTORE PUSH1 0x40 PUSH1 0x0 KECCAK256 SLOAD DUP4 LT ISZERO PUSH2 0x651 JUMPI PUSH1 0x80 SWAP3 PUSH2 0x5F1 SWAP2 PUSH1 0x0 MSTORE PUSH1 0x5 DUP4 MSTORE PUSH1 0x40 PUSH1 0x0 KECCAK256 PUSH2 0x20A3 JUMP JUMPDEST POP SWAP1 PUSH1 0x40 MLOAD PUSH2 0x5FF DUP2 PUSH2 0x1C2D JUMP JUMPDEST PUSH1 0x1 DUP4 SLOAD SWAP4 DUP5 DUP4 MSTORE ADD SLOAD SWAP2 DUP1 DUP3 ADD PUSH1 0xFF DUP5 AND ISZERO ISZERO DUP2 MSTORE PUSH1 0xFF PUSH1 0x60 PUSH1 0x40 DUP6 ADD SWAP5 DUP3 DUP8 PUSH1 0x8 SHR AND ISZERO ISZERO DUP7 MSTORE ADD SWAP5 PUSH1 0x10 SHR AND ISZERO ISZERO DUP5 MSTORE PUSH1 0x40 MLOAD SWAP5 DUP6 MSTORE MLOAD ISZERO ISZERO SWAP1 DUP5 ADD MSTORE MLOAD ISZERO ISZERO PUSH1 0x40 DUP4 ADD MSTORE MLOAD ISZERO ISZERO PUSH1 0x60 DUP3 ADD MSTORE RETURN JUMPDEST PUSH1 0x40 MLOAD PUSH3 0x461BCD PUSH1 0xE5 SHL DUP2 MSTORE PUSH1 0x4 DUP2 ADD DUP4 SWAP1 MSTORE PUSH1 0xD PUSH1 0x24 DUP3 ADD MSTORE PUSH13 0x92DCECC2D8D2C840D2DCC8CAF PUSH1 0x9B SHL PUSH1 0x44 DUP3 ADD MSTORE PUSH1 0x64 SWAP1 REVERT JUMPDEST CALLVALUE PUSH2 0x137 JUMPI PUSH1 0x0 CALLDATASIZE PUSH1 0x3 NOT ADD SLT PUSH2 0x137 JUMPI PUSH1 0x1 SLOAD PUSH1 0x40 MLOAD PUSH1 0x1 PUSH1 0x1 PUSH1 0xA0 SHL SUB SWAP1 SWAP2 AND DUP2 MSTORE PUSH1 0x20 SWAP1 RETURN JUMPDEST CALLVALUE PUSH2 0x137 JUMPI PUSH1 0x20 CALLDATASIZE PUSH1 0x3 NOT ADD SLT PUSH2 0x137 JUMPI PUSH2 0x6C8 PUSH2 0x1DEC JUMP JUMPDEST PUSH1 0x1 SLOAD PUSH1 0x1 PUSH1 0x1 PUSH1 0xA0 SHL SUB SWAP2 SWAP1 DUP3 AND CALLER SUB PUSH2 0x6F6 JUMPI AND PUSH1 0x1 PUSH1 0x1 PUSH1 0x60 SHL SUB PUSH1 0xA0 SHL PUSH1 0x2 SLOAD AND OR PUSH1 0x2 SSTORE PUSH1 0x0 DUP1 RETURN JUMPDEST PUSH1 0x40 MLOAD PUSH3 0x461BCD PUSH1 0xE5 SHL DUP2 MSTORE PUSH1 0x20 PUSH1 0x4 DUP3 ADD MSTORE PUSH1 0x12 PUSH1 0x24 DUP3 ADD MSTORE PUSH18 0x13DB9B1E481BDDDB995C88185B1B1BDDD959 PUSH1 0x72 SHL PUSH1 0x44 DUP3 ADD MSTORE PUSH1 0x64 SWAP1 REVERT JUMPDEST CALLVALUE PUSH2 0x137 JUMPI PUSH2 0x73E CALLDATASIZE PUSH2 0x1E6B JUMP JUMPDEST PUSH1 0x2 SLOAD PUSH1 0x1 PUSH1 0x1 PUSH1 0xA0 SHL SUB SWAP1 PUSH2 0x757 SWAP1 DUP3 AND CALLER EQ PUSH2 0x21E5 JUMP JUMPDEST DUP3 PUSH1 0x0 MSTORE PUSH1 0x20 PUSH1 0x4 DUP2 MSTORE PUSH1 0x40 PUSH1 0x0 KECCAK256 SWAP3 PUSH1 0x6 DUP5 ADD SWAP1 DUP2 SLOAD SWAP5 PUSH1 0xFF DUP7 AND PUSH1 0x6 DUP2 LT ISZERO PUSH2 0x278 JUMPI DUP1 PUSH1 0x2 PUSH2 0x792 SWAP3 EQ SWAP1 DUP2 ISZERO PUSH2 0xA80 JUMPI JUMPDEST POP PUSH2 0x2229 JUMP JUMPDEST PUSH1 0x8 DUP2 ADD SWAP5 DUP6 SLOAD SWAP4 PUSH1 0xFF DUP6 PUSH1 0x8 SHR AND PUSH2 0xA3B JUMPI PUSH1 0xB DUP4 ADD SWAP7 DUP8 SLOAD SWAP9 DUP10 ISZERO SWAP2 PUSH2 0x7BA DUP4 ISZERO PUSH2 0x226A JUMP JUMPDEST PUSH2 0x2710 SWAP3 DUP4 DUP9 GT PUSH2 0xA06 JUMPI DUP8 DUP13 MUL SWAP1 DUP13 DUP3 DIV DUP10 EQ OR ISZERO PUSH2 0x262 JUMPI DUP13 SWAP9 PUSH1 0x0 PUSH2 0x7EB PUSH1 0x5 SWAP7 PUSH2 0x101 SWAP5 DIV SWAP15 DUP16 SWAP1 PUSH2 0x22AC JUMP JUMPDEST SWAP13 SSTORE PUSH2 0xFFFF NOT AND OR SWAP1 SSTORE PUSH1 0xFF NOT AND OR SWAP1 SSTORE DUP7 PUSH2 0x944 JUMPI JUMPDEST DUP6 PUSH2 0x871 JUMPI JUMPDEST POP SWAP2 PUSH32 0x5A87909BFF68CAAAAF0B3FD9C74EECCC928832F879315E5C6FB7A73612F26C0C DUP5 PUSH32 0x82CA9B6FF85D9D7E3D2E0E0BD4950F362431E50269BF30B6F5E87ACC6C9DE343 SWAP8 SWAP6 SWAP4 DUP6 PUSH1 0xA PUSH1 0x9 PUSH1 0x40 SWAP11 SWAP9 ADD SLOAD SWAP2 ADD SSTORE DUP8 MLOAD SWAP1 ISZERO ISZERO DUP2 MSTORE LOG2 DUP4 MLOAD SWAP3 DUP4 MSTORE DUP3 ADD MSTORE LOG2 STOP JUMPDEST PUSH1 0x0 DUP1 SLOAD PUSH1 0x1 DUP5 ADD SLOAD PUSH1 0x40 MLOAD PUSH4 0xA9059CBB PUSH1 0xE0 SHL DUP2 MSTORE SWAP1 DUP5 AND PUSH1 0x1 PUSH1 0x1 PUSH1 0xA0 SHL SUB AND PUSH1 0x4 DUP3 ADD MSTORE PUSH1 0x24 DUP2 ADD DUP10 SWAP1 MSTORE SWAP5 SWAP6 POP SWAP3 SWAP4 SWAP3 DUP7 SWAP3 DUP5 SWAP3 PUSH1 0x44 SWAP3 DUP5 SWAP3 AND GAS CALL SWAP1 DUP2 ISZERO PUSH2 0x938 JUMPI PUSH1 0x0 SWAP2 PUSH2 0x90B JUMPI JUMPDEST POP ISZERO PUSH2 0x8CF JUMPI SWAP1 DUP6 SWAP2 DUP8 PUSH2 0x808 JUMP JUMPDEST PUSH1 0x40 MLOAD PUSH3 0x461BCD PUSH1 0xE5 SHL DUP2 MSTORE PUSH1 0x4 DUP2 ADD DUP5 SWAP1 MSTORE PUSH1 0x14 PUSH1 0x24 DUP3 ADD MSTORE PUSH20 0x10DB1A595B9D081C99599D5B990819985A5B1959 PUSH1 0x62 SHL PUSH1 0x44 DUP3 ADD MSTORE PUSH1 0x64 SWAP1 REVERT JUMPDEST PUSH2 0x92B SWAP2 POP DUP5 RETURNDATASIZE DUP7 GT PUSH2 0x931 JUMPI JUMPDEST PUSH2 0x923 DUP2 DUP4 PUSH2 0x1C48 JUMP JUMPDEST DUP2 ADD SWAP1 PUSH2 0x2026 JUMP JUMPDEST DUP8 PUSH2 0x8C0 JUMP JUMPDEST POP RETURNDATASIZE PUSH2 0x919 JUMP JUMPDEST PUSH1 0x40 MLOAD RETURNDATASIZE PUSH1 0x0 DUP3 RETURNDATACOPY RETURNDATASIZE SWAP1 REVERT JUMPDEST PUSH1 0x0 DUP1 SLOAD PUSH1 0x2 DUP5 ADD SLOAD PUSH1 0x40 MLOAD PUSH4 0xA9059CBB PUSH1 0xE0 SHL DUP2 MSTORE SWAP1 DUP5 AND PUSH1 0x1 PUSH1 0x1 PUSH1 0xA0 SHL SUB AND PUSH1 0x4 DUP3 ADD MSTORE PUSH1 0x24 DUP2 ADD DUP11 SWAP1 MSTORE SWAP5 SWAP6 POP SWAP3 SWAP4 SWAP2 SWAP3 DUP7 SWAP2 DUP4 SWAP2 PUSH1 0x44 SWAP2 DUP4 SWAP2 DUP8 AND GAS CALL SWAP1 DUP2 ISZERO PUSH2 0x938 JUMPI PUSH1 0x0 SWAP2 PUSH2 0x9E9 JUMPI JUMPDEST POP ISZERO PUSH2 0x9A4 JUMPI SWAP1 DUP7 SWAP3 SWAP2 PUSH2 0x802 JUMP JUMPDEST PUSH1 0x40 MLOAD PUSH3 0x461BCD PUSH1 0xE5 SHL DUP2 MSTORE PUSH1 0x4 DUP2 ADD DUP6 SWAP1 MSTORE PUSH1 0x18 PUSH1 0x24 DUP3 ADD MSTORE PUSH32 0x467265656C616E636572207061796F7574206661696C65640000000000000000 PUSH1 0x44 DUP3 ADD MSTORE PUSH1 0x64 SWAP1 REVERT JUMPDEST PUSH2 0xA00 SWAP2 POP DUP6 RETURNDATASIZE DUP8 GT PUSH2 0x931 JUMPI PUSH2 0x923 DUP2 DUP4 PUSH2 0x1C48 JUMP JUMPDEST DUP9 PUSH2 0x995 JUMP JUMPDEST PUSH1 0x40 MLOAD PUSH3 0x461BCD PUSH1 0xE5 SHL DUP2 MSTORE PUSH1 0x4 DUP2 ADD DUP12 SWAP1 MSTORE PUSH1 0xD PUSH1 0x24 DUP3 ADD MSTORE PUSH13 0x125B9D985B1A59081CDC1B1A5D PUSH1 0x9A SHL PUSH1 0x44 DUP3 ADD MSTORE PUSH1 0x64 SWAP1 REVERT JUMPDEST PUSH1 0x40 MLOAD PUSH3 0x461BCD PUSH1 0xE5 SHL DUP2 MSTORE PUSH1 0x4 DUP2 ADD DUP8 SWAP1 MSTORE PUSH1 0x18 PUSH1 0x24 DUP3 ADD MSTORE PUSH32 0x5061796D656E7420616C72656164792072656C65617365640000000000000000 PUSH1 0x44 DUP3 ADD MSTORE PUSH1 0x64 SWAP1 REVERT JUMPDEST PUSH1 0x4 SWAP2 POP EQ DUP10 PUSH2 0x78C JUMP JUMPDEST CALLVALUE PUSH2 0x137 JUMPI PUSH1 0x20 CALLDATASIZE PUSH1 0x3 NOT ADD SLT PUSH2 0x137 JUMPI PUSH1 0x4 CALLDATALOAD DUP1 PUSH1 0x0 MSTORE PUSH1 0x4 PUSH1 0x20 MSTORE PUSH1 0x40 PUSH1 0x0 KECCAK256 SWAP1 PUSH1 0x6 DUP3 ADD DUP1 SLOAD SWAP3 PUSH1 0xFF DUP5 AND PUSH1 0x6 DUP2 LT ISZERO PUSH2 0x278 JUMPI PUSH2 0xB4B JUMPI PUSH1 0x2 ADD DUP1 SLOAD SWAP1 SWAP4 PUSH1 0x1 PUSH1 0x1 PUSH1 0xA0 SHL SUB DUP3 AND PUSH2 0xB0F JUMPI PUSH2 0xB0D SWAP5 PUSH1 0x1 SWAP3 CALLER SWAP1 PUSH1 0x1 PUSH1 0x1 PUSH1 0x60 SHL SUB PUSH1 0xA0 SHL AND OR SWAP1 SSTORE PUSH1 0xFF NOT AND OR SWAP1 SSTORE CALLER PUSH1 0x0 MSTORE PUSH1 0x7 PUSH1 0x20 MSTORE PUSH1 0x40 PUSH1 0x0 KECCAK256 PUSH2 0x2150 JUMP JUMPDEST STOP JUMPDEST PUSH1 0x40 MLOAD PUSH3 0x461BCD PUSH1 0xE5 SHL DUP2 MSTORE PUSH1 0x20 PUSH1 0x4 DUP3 ADD MSTORE PUSH1 0x14 PUSH1 0x24 DUP3 ADD MSTORE PUSH20 0x129BD888185B1C9958591E481858D8D95C1D1959 PUSH1 0x62 SHL PUSH1 0x44 DUP3 ADD MSTORE PUSH1 0x64 SWAP1 REVERT JUMPDEST PUSH1 0x40 MLOAD PUSH3 0x461BCD PUSH1 0xE5 SHL DUP2 MSTORE PUSH1 0x20 PUSH1 0x4 DUP3 ADD MSTORE PUSH1 0x11 PUSH1 0x24 DUP3 ADD MSTORE PUSH17 0x4A6F62206E6F7420617661696C61626C65 PUSH1 0x78 SHL PUSH1 0x44 DUP3 ADD MSTORE PUSH1 0x64 SWAP1 REVERT JUMPDEST CALLVALUE PUSH2 0x137 JUMPI PUSH1 0x60 CALLDATASIZE PUSH1 0x3 NOT ADD SLT PUSH2 0x137 JUMPI PUSH1 0x4 CALLDATALOAD PUSH1 0x1 PUSH1 0x1 PUSH1 0x40 SHL SUB DUP2 GT PUSH2 0x137 JUMPI PUSH2 0xBB4 SWAP1 CALLDATASIZE SWAP1 PUSH1 0x4 ADD PUSH2 0x1C69 JUMP JUMPDEST PUSH1 0x24 CALLDATALOAD PUSH1 0x1 PUSH1 0x1 PUSH1 0x40 SHL SUB DUP2 GT PUSH2 0x137 JUMPI PUSH2 0xBD3 SWAP1 CALLDATASIZE SWAP1 PUSH1 0x4 ADD PUSH2 0x1C69 JUMP JUMPDEST SWAP1 PUSH1 0x44 CALLDATALOAD ISZERO PUSH2 0x10DD JUMPI PUSH1 0x0 DUP1 SLOAD PUSH1 0x40 MLOAD PUSH4 0x23B872DD PUSH1 0xE0 SHL DUP2 MSTORE CALLER PUSH1 0x4 DUP3 ADD MSTORE ADDRESS PUSH1 0x24 DUP3 ADD MSTORE PUSH1 0x44 DUP1 CALLDATALOAD SWAP1 DUP3 ADD MSTORE SWAP2 PUSH1 0x20 SWAP2 DUP4 SWAP2 PUSH1 0x64 SWAP2 DUP4 SWAP2 SWAP1 PUSH1 0x1 PUSH1 0x1 PUSH1 0xA0 SHL SUB AND GAS CALL DUP1 ISZERO PUSH2 0x938 JUMPI PUSH2 0xC30 SWAP2 PUSH1 0x0 SWAP2 PUSH2 0x10BE JUMPI JUMPDEST POP PUSH2 0x203E JUMP JUMPDEST PUSH2 0xC3B PUSH1 0x3 SLOAD PUSH2 0x207C JUMP JUMPDEST SWAP1 DUP2 PUSH1 0x3 SSTORE PUSH1 0x40 MLOAD SWAP3 PUSH2 0xC4D DUP5 PUSH2 0x1C11 JUMP JUMPDEST DUP3 DUP5 MSTORE CALLER PUSH1 0x20 DUP6 ADD MSTORE PUSH1 0x0 PUSH1 0x40 DUP6 ADD MSTORE PUSH1 0x44 CALLDATALOAD PUSH1 0x60 DUP6 ADD MSTORE DUP2 PUSH1 0x80 DUP6 ADD MSTORE PUSH1 0xA0 DUP5 ADD MSTORE PUSH1 0x0 PUSH1 0xC0 DUP5 ADD MSTORE PUSH1 0x0 PUSH1 0xE0 DUP5 ADD MSTORE PUSH1 0x0 PUSH2 0x100 DUP5 ADD MSTORE PUSH1 0x0 PUSH2 0x120 DUP5 ADD MSTORE PUSH1 0x1 PUSH2 0x140 DUP5 ADD MSTORE PUSH1 0x0 PUSH2 0x160 DUP5 ADD MSTORE PUSH1 0x44 CALLDATALOAD PUSH2 0x180 DUP5 ADD MSTORE DUP2 PUSH1 0x0 MSTORE PUSH1 0x4 PUSH1 0x20 MSTORE PUSH1 0x40 PUSH1 0x0 KECCAK256 DUP4 MLOAD DUP2 SSTORE PUSH1 0x1 DUP2 ADD PUSH1 0x1 DUP1 PUSH1 0xA0 SHL SUB PUSH1 0x20 DUP7 ADD MLOAD AND SWAP1 PUSH1 0x1 PUSH1 0x1 PUSH1 0x60 SHL SUB PUSH1 0xA0 SHL SWAP2 DUP3 DUP3 SLOAD AND OR SWAP1 SSTORE PUSH1 0x2 DUP3 ADD SWAP1 PUSH1 0x1 DUP1 PUSH1 0xA0 SHL SUB PUSH1 0x40 DUP8 ADD MLOAD AND SWAP1 DUP3 SLOAD AND OR SWAP1 SSTORE PUSH1 0x60 DUP5 ADD MLOAD PUSH1 0x3 DUP3 ADD SSTORE PUSH1 0x80 DUP5 ADD MLOAD DUP1 MLOAD SWAP1 PUSH1 0x1 PUSH1 0x1 PUSH1 0x40 SHL SUB DUP3 GT PUSH2 0xFDD JUMPI DUP2 SWAP1 PUSH2 0xD26 PUSH1 0x4 DUP6 ADD SLOAD PUSH2 0x1CBF JUMP JUMPDEST PUSH1 0x1F DUP2 GT PUSH2 0x106B JUMPI JUMPDEST POP PUSH1 0x20 SWAP1 PUSH1 0x1F DUP4 GT PUSH1 0x1 EQ PUSH2 0xFFE JUMPI PUSH1 0x0 SWAP3 PUSH2 0xFF3 JUMPI JUMPDEST POP POP DUP2 PUSH1 0x1 SHL SWAP2 PUSH1 0x0 NOT SWAP1 PUSH1 0x3 SHL SHR NOT AND OR PUSH1 0x4 DUP3 ADD SSTORE JUMPDEST PUSH1 0xA0 DUP5 ADD MLOAD DUP1 MLOAD SWAP1 PUSH1 0x1 PUSH1 0x1 PUSH1 0x40 SHL SUB DUP3 GT PUSH2 0xFDD JUMPI DUP2 SWAP1 PUSH2 0xD83 PUSH1 0x5 DUP6 ADD SLOAD PUSH2 0x1CBF JUMP JUMPDEST PUSH1 0x1F DUP2 GT PUSH2 0xF8A JUMPI JUMPDEST POP PUSH1 0x20 SWAP1 PUSH1 0x1F DUP4 GT PUSH1 0x1 EQ PUSH2 0xF1D JUMPI PUSH1 0x0 SWAP3 PUSH2 0xF12 JUMPI JUMPDEST POP POP DUP2 PUSH1 0x1 SHL SWAP2 PUSH1 0x0 NOT SWAP1 PUSH1 0x3 SHL SHR NOT AND OR PUSH1 0x5 DUP3 ADD SSTORE JUMPDEST PUSH1 0xC0 DUP5 ADD MLOAD SWAP4 PUSH1 0x6 DUP6 LT ISZERO PUSH2 0x278 JUMPI PUSH2 0x180 PUSH1 0xB SWAP2 PUSH2 0xDDF PUSH1 0x20 SWAP8 PUSH1 0x6 DUP7 ADD PUSH2 0x208B JUMP JUMPDEST PUSH1 0xE0 DUP2 ADD MLOAD PUSH1 0x7 DUP6 ADD SSTORE PUSH2 0xE29 PUSH1 0x8 DUP6 ADD PUSH2 0xE0D PUSH2 0x100 DUP5 ADD MLOAD ISZERO ISZERO DUP3 SWAP1 PUSH1 0xFF DUP1 NOT DUP4 SLOAD AND SWAP2 ISZERO ISZERO AND OR SWAP1 SSTORE JUMP JUMPDEST PUSH2 0x120 DUP4 ADD MLOAD DUP2 SLOAD PUSH2 0xFF00 NOT AND SWAP1 ISZERO ISZERO PUSH1 0x8 SHL PUSH2 0xFF00 AND OR SWAP1 SSTORE JUMP JUMPDEST PUSH2 0x140 DUP2 ADD MLOAD PUSH1 0x9 DUP6 ADD SSTORE PUSH2 0x160 DUP2 ADD MLOAD PUSH1 0xA DUP6 ADD SSTORE ADD MLOAD SWAP2 ADD SSTORE DUP2 PUSH1 0x0 MSTORE PUSH1 0x5 DUP4 MSTORE PUSH2 0xE7F PUSH1 0x40 PUSH1 0x0 KECCAK256 PUSH1 0x40 MLOAD SWAP1 PUSH2 0xE61 DUP3 PUSH2 0x1C2D JUMP JUMPDEST PUSH1 0x44 CALLDATALOAD DUP3 MSTORE PUSH1 0x0 DUP7 DUP4 ADD MSTORE PUSH1 0x0 PUSH1 0x40 DUP4 ADD MSTORE PUSH1 0x0 PUSH1 0x60 DUP4 ADD MSTORE PUSH2 0x20BF JUMP JUMPDEST DUP2 PUSH32 0x99C090EA4E24C09BAF74DA49BF4100BE7DE555B972B1E6E4F495989738093D79 PUSH1 0x40 DUP1 MLOAD PUSH1 0x0 DUP2 MSTORE PUSH1 0x44 CALLDATALOAD DUP8 DUP3 ADD MSTORE LOG2 CALLER PUSH1 0x0 MSTORE PUSH1 0x6 DUP4 MSTORE PUSH2 0xEC7 DUP3 PUSH1 0x40 PUSH1 0x0 KECCAK256 PUSH2 0x2150 JUMP JUMPDEST DUP2 PUSH32 0x6F3A5227C058380F6D30B3C63E04E4B049F2DF6D1780F11E4FF1B3E9728A3652 PUSH1 0x40 MLOAD PUSH1 0x44 CALLDATALOAD DUP2 MSTORE PUSH1 0x40 DUP7 DUP3 ADD MSTORE DUP1 PUSH2 0xF07 CALLER SWAP6 PUSH1 0x40 DUP4 ADD SWAP1 PUSH2 0x1D9F JUMP JUMPDEST SUB SWAP1 LOG3 PUSH1 0x40 MLOAD SWAP1 DUP2 MSTORE RETURN JUMPDEST ADD MLOAD SWAP1 POP DUP7 DUP1 PUSH2 0xDA3 JUMP JUMPDEST PUSH1 0x5 DUP6 ADD PUSH1 0x0 SWAP1 DUP2 MSTORE PUSH1 0x20 DUP2 KECCAK256 SWAP4 POP PUSH1 0x1F NOT DUP6 AND SWAP1 JUMPDEST DUP2 DUP2 LT PUSH2 0xF72 JUMPI POP SWAP1 DUP5 PUSH1 0x1 SWAP6 SWAP5 SWAP4 SWAP3 LT PUSH2 0xF59 JUMPI JUMPDEST POP POP POP DUP2 SHL ADD PUSH1 0x5 DUP3 ADD SSTORE PUSH2 0xDBB JUMP JUMPDEST ADD MLOAD PUSH1 0x0 NOT PUSH1 0xF8 DUP5 PUSH1 0x3 SHL AND SHR NOT AND SWAP1 SSTORE DUP7 DUP1 DUP1 PUSH2 0xF49 JUMP JUMPDEST SWAP3 SWAP4 PUSH1 0x20 PUSH1 0x1 DUP2 SWAP3 DUP8 DUP7 ADD MLOAD DUP2 SSTORE ADD SWAP6 ADD SWAP4 ADD PUSH2 0xF33 JUMP JUMPDEST SWAP1 SWAP2 POP PUSH1 0x5 DUP5 ADD PUSH1 0x0 MSTORE PUSH1 0x20 PUSH1 0x0 KECCAK256 PUSH1 0x1F DUP5 ADD PUSH1 0x5 SHR DUP2 ADD PUSH1 0x20 DUP6 LT PUSH2 0xFD6 JUMPI JUMPDEST SWAP1 DUP5 SWAP4 SWAP3 SWAP2 JUMPDEST PUSH1 0x1F DUP4 ADD PUSH1 0x5 SHR DUP3 ADD DUP2 LT PUSH2 0xFC7 JUMPI POP POP PUSH2 0xD8C JUMP JUMPDEST PUSH1 0x0 DUP2 SSTORE DUP6 SWAP5 POP PUSH1 0x1 ADD PUSH2 0xFB1 JUMP JUMPDEST POP DUP1 PUSH2 0xFAB JUMP JUMPDEST PUSH4 0x4E487B71 PUSH1 0xE0 SHL PUSH1 0x0 MSTORE PUSH1 0x41 PUSH1 0x4 MSTORE PUSH1 0x24 PUSH1 0x0 REVERT JUMPDEST ADD MLOAD SWAP1 POP DUP7 DUP1 PUSH2 0xD46 JUMP JUMPDEST PUSH1 0x4 DUP6 ADD PUSH1 0x0 SWAP1 DUP2 MSTORE PUSH1 0x20 DUP2 KECCAK256 SWAP4 POP PUSH1 0x1F NOT DUP6 AND SWAP1 JUMPDEST DUP2 DUP2 LT PUSH2 0x1053 JUMPI POP SWAP1 DUP5 PUSH1 0x1 SWAP6 SWAP5 SWAP4 SWAP3 LT PUSH2 0x103A JUMPI JUMPDEST POP POP POP DUP2 SHL ADD PUSH1 0x4 DUP3 ADD SSTORE PUSH2 0xD5E JUMP JUMPDEST ADD MLOAD PUSH1 0x0 NOT PUSH1 0xF8 DUP5 PUSH1 0x3 SHL AND SHR NOT AND SWAP1 SSTORE DUP7 DUP1 DUP1 PUSH2 0x102A JUMP JUMPDEST SWAP3 SWAP4 PUSH1 0x20 PUSH1 0x1 DUP2 SWAP3 DUP8 DUP7 ADD MLOAD DUP2 SSTORE ADD SWAP6 ADD SWAP4 ADD PUSH2 0x1014 JUMP JUMPDEST SWAP1 SWAP2 POP PUSH1 0x4 DUP5 ADD PUSH1 0x0 MSTORE PUSH1 0x20 PUSH1 0x0 KECCAK256 PUSH1 0x1F DUP5 ADD PUSH1 0x5 SHR DUP2 ADD PUSH1 0x20 DUP6 LT PUSH2 0x10B7 JUMPI JUMPDEST SWAP1 DUP5 SWAP4 SWAP3 SWAP2 JUMPDEST PUSH1 0x1F DUP4 ADD PUSH1 0x5 SHR DUP3 ADD DUP2 LT PUSH2 0x10A8 JUMPI POP POP PUSH2 0xD2F JUMP JUMPDEST PUSH1 0x0 DUP2 SSTORE DUP6 SWAP5 POP PUSH1 0x1 ADD PUSH2 0x1092 JUMP JUMPDEST POP DUP1 PUSH2 0x108C JUMP JUMPDEST PUSH2 0x10D7 SWAP2 POP PUSH1 0x20 RETURNDATASIZE PUSH1 0x20 GT PUSH2 0x931 JUMPI PUSH2 0x923 DUP2 DUP4 PUSH2 0x1C48 JUMP JUMPDEST DUP5 PUSH2 0xC2A JUMP JUMPDEST PUSH1 0x40 MLOAD PUSH3 0x461BCD PUSH1 0xE5 SHL DUP2 MSTORE PUSH1 0x20 PUSH1 0x4 DUP3 ADD MSTORE PUSH1 0x1D PUSH1 0x24 DUP3 ADD MSTORE PUSH32 0x427564676574206D7573742062652067726561746572207468616E2030000000 PUSH1 0x44 DUP3 ADD MSTORE PUSH1 0x64 SWAP1 REVERT JUMPDEST CALLVALUE PUSH2 0x137 JUMPI PUSH1 0x0 CALLDATASIZE PUSH1 0x3 NOT ADD SLT PUSH2 0x137 JUMPI PUSH1 0x20 PUSH1 0x3 SLOAD PUSH1 0x40 MLOAD SWAP1 DUP2 MSTORE RETURN JUMPDEST CALLVALUE PUSH2 0x137 JUMPI PUSH1 0x40 CALLDATASIZE PUSH1 0x3 NOT ADD SLT PUSH2 0x137 JUMPI PUSH2 0x1159 PUSH2 0x1DEC JUMP JUMPDEST PUSH1 0x1 PUSH1 0x1 PUSH1 0xA0 SHL SUB AND PUSH1 0x0 SWAP1 DUP2 MSTORE PUSH1 0x7 PUSH1 0x20 MSTORE PUSH1 0x40 SWAP1 KECCAK256 DUP1 SLOAD PUSH1 0x24 CALLDATALOAD SWAP2 SWAP1 DUP3 LT ISZERO PUSH2 0x137 JUMPI PUSH1 0x20 SWAP2 PUSH2 0x582 SWAP2 PUSH2 0x1E3D JUMP JUMPDEST CALLVALUE PUSH2 0x137 JUMPI PUSH1 0x20 DUP1 PUSH1 0x3 NOT CALLDATASIZE ADD SLT PUSH2 0x137 JUMPI PUSH1 0x4 CALLDATALOAD PUSH1 0x0 MSTORE PUSH1 0x4 DUP2 MSTORE PUSH1 0x40 PUSH1 0x0 KECCAK256 SWAP1 PUSH1 0x1 DUP1 PUSH1 0xA0 SHL SUB SWAP2 DUP3 PUSH1 0x1 DUP3 ADD SLOAD AND DUP1 CALLER SUB PUSH2 0x12E6 JUMPI PUSH1 0x6 DUP3 ADD SWAP4 DUP5 SLOAD SWAP3 PUSH1 0xFF DUP5 AND PUSH1 0x6 DUP2 LT ISZERO PUSH2 0x278 JUMPI PUSH1 0x4 SUB PUSH2 0x12AE JUMPI SWAP2 PUSH2 0x123E SWAP4 SWAP2 PUSH1 0xB DUP7 SWAP5 ADD SWAP7 PUSH1 0x5 DUP9 SLOAD SWAP5 PUSH2 0x11FA DUP7 ISZERO ISZERO PUSH2 0x226A JUMP JUMPDEST PUSH1 0xFF NOT AND OR SWAP1 SSTORE PUSH1 0x0 DUP1 SLOAD PUSH1 0x40 MLOAD PUSH4 0xA9059CBB PUSH1 0xE0 SHL DUP2 MSTORE PUSH1 0x1 PUSH1 0x1 PUSH1 0xA0 SHL SUB SWAP1 SWAP5 AND PUSH1 0x4 DUP6 ADD MSTORE PUSH1 0x24 DUP5 ADD SWAP5 SWAP1 SWAP5 MSTORE SWAP2 SWAP5 DUP6 SWAP4 SWAP2 SWAP1 SWAP2 AND SWAP2 DUP4 SWAP2 DUP3 SWAP1 PUSH1 0x44 DUP3 ADD SWAP1 JUMP JUMPDEST SUB SWAP3 GAS CALL SWAP1 DUP2 ISZERO PUSH2 0x938 JUMPI PUSH1 0x0 SWAP2 PUSH2 0x1291 JUMPI JUMPDEST POP ISZERO PUSH2 0x125D JUMPI PUSH1 0x0 DUP3 SSTORE STOP JUMPDEST PUSH1 0x64 SWAP1 PUSH1 0x40 MLOAD SWAP1 PUSH3 0x461BCD PUSH1 0xE5 SHL DUP3 MSTORE PUSH1 0x4 DUP3 ADD MSTORE PUSH1 0xD PUSH1 0x24 DUP3 ADD MSTORE PUSH13 0x1499599D5B990819985A5B1959 PUSH1 0x9A SHL PUSH1 0x44 DUP3 ADD MSTORE REVERT JUMPDEST PUSH2 0x12A8 SWAP2 POP DUP3 RETURNDATASIZE DUP5 GT PUSH2 0x931 JUMPI PUSH2 0x923 DUP2 DUP4 PUSH2 0x1C48 JUMP JUMPDEST DUP4 PUSH2 0x1251 JUMP JUMPDEST PUSH1 0x40 MLOAD PUSH3 0x461BCD PUSH1 0xE5 SHL DUP2 MSTORE PUSH1 0x4 DUP2 ADD DUP7 SWAP1 MSTORE PUSH1 0x10 PUSH1 0x24 DUP3 ADD MSTORE PUSH16 0x129BD8881B9BDD08191A5CDC1D5D1959 PUSH1 0x82 SHL PUSH1 0x44 DUP3 ADD MSTORE PUSH1 0x64 SWAP1 REVERT JUMPDEST PUSH1 0x40 MLOAD PUSH3 0x461BCD PUSH1 0xE5 SHL DUP2 MSTORE PUSH1 0x4 DUP2 ADD DUP5 SWAP1 MSTORE PUSH1 0x16 PUSH1 0x24 DUP3 ADD MSTORE PUSH22 0x13DB9B1E4818DB1A595B9D0818D85B881C99599D5B99 PUSH1 0x52 SHL PUSH1 0x44 DUP3 ADD MSTORE PUSH1 0x64 SWAP1 REVERT JUMPDEST CALLVALUE PUSH2 0x137 JUMPI PUSH1 0x20 DUP1 PUSH1 0x3 NOT CALLDATASIZE ADD SLT PUSH2 0x137 JUMPI PUSH1 0x1 PUSH1 0x1 PUSH1 0xA0 SHL SUB PUSH2 0x1346 PUSH2 0x1DEC JUMP JUMPDEST AND PUSH1 0x0 MSTORE PUSH1 0x7 DUP2 MSTORE PUSH1 0x40 PUSH1 0x0 KECCAK256 SWAP1 PUSH1 0x40 MLOAD SWAP1 DUP2 DUP2 DUP5 SLOAD SWAP2 DUP3 DUP2 MSTORE ADD SWAP4 PUSH1 0x0 MSTORE DUP2 PUSH1 0x0 KECCAK256 SWAP2 PUSH1 0x0 SWAP1 JUMPDEST DUP3 DUP3 LT PUSH2 0x1385 JUMPI PUSH2 0x1A9 DUP6 PUSH2 0x19D DUP2 DUP10 SUB DUP3 PUSH2 0x1C48 JUMP JUMPDEST DUP4 SLOAD DUP7 MSTORE SWAP5 DUP6 ADD SWAP5 PUSH1 0x1 SWAP4 DUP5 ADD SWAP4 SWAP1 SWAP2 ADD SWAP1 PUSH2 0x136E JUMP JUMPDEST CALLVALUE PUSH2 0x137 JUMPI PUSH1 0x40 CALLDATASIZE PUSH1 0x3 NOT ADD SLT PUSH2 0x137 JUMPI PUSH1 0x4 CALLDATALOAD PUSH1 0x24 CALLDATALOAD DUP1 ISZERO ISZERO DUP2 SUB PUSH2 0x137 JUMPI PUSH2 0x13D1 PUSH1 0x1 DUP1 PUSH1 0xA0 SHL SUB PUSH1 0x2 SLOAD AND CALLER EQ PUSH2 0x21E5 JUMP JUMPDEST DUP2 PUSH1 0x0 MSTORE PUSH1 0x4 PUSH1 0x20 MSTORE PUSH1 0x40 PUSH1 0x0 KECCAK256 PUSH1 0x6 DUP2 ADD SWAP2 DUP3 SLOAD PUSH1 0xFF DUP2 AND PUSH1 0x6 DUP2 LT ISZERO PUSH2 0x278 JUMPI PUSH1 0x2 PUSH2 0x13FF SWAP2 EQ PUSH2 0x2229 JUMP JUMPDEST PUSH1 0x8 DUP4 ADD DUP1 SLOAD PUSH1 0xFF NOT SWAP1 DUP2 AND PUSH1 0x1 OR SWAP1 SWAP2 SSTORE SWAP2 ISZERO PUSH2 0x1457 JUMPI POP SWAP2 PUSH1 0x3 PUSH2 0x142A SWAP4 DUP3 SLOAD AND OR SWAP1 SSTORE PUSH2 0x2305 JUMP JUMPDEST PUSH32 0x5A87909BFF68CAAAAF0B3FD9C74EECCC928832F879315E5C6FB7A73612F26C0C PUSH1 0x20 PUSH1 0x40 MLOAD PUSH1 0x1 DUP2 MSTORE LOG2 STOP JUMPDEST PUSH1 0x4 SWAP3 POP AND OR SWAP1 SSTORE PUSH32 0x5A87909BFF68CAAAAF0B3FD9C74EECCC928832F879315E5C6FB7A73612F26C0C PUSH1 0x20 PUSH1 0x40 MLOAD PUSH1 0x0 DUP2 MSTORE LOG2 STOP JUMPDEST CALLVALUE PUSH2 0x137 JUMPI PUSH1 0x20 CALLDATASIZE PUSH1 0x3 NOT ADD SLT PUSH2 0x137 JUMPI PUSH1 0x4 CALLDATALOAD PUSH1 0x0 MSTORE PUSH1 0x4 PUSH1 0x20 MSTORE PUSH1 0x40 PUSH1 0x0 KECCAK256 DUP1 SLOAD PUSH1 0x1 PUSH1 0xA0 SHL PUSH1 0x1 SWAP1 SUB SWAP2 DUP3 PUSH1 0x1 DUP3 ADD SLOAD AND SWAP3 PUSH1 0x2 DUP3 ADD SLOAD AND PUSH1 0x3 DUP3 ADD SLOAD SWAP2 PUSH1 0x4 DUP2 ADD PUSH2 0x14DA SWAP1 PUSH2 0x1CF9 JUMP JUMPDEST SWAP3 PUSH2 0x14E7 PUSH1 0x5 DUP4 ADD PUSH2 0x1CF9 JUMP JUMPDEST SWAP4 PUSH1 0x6 DUP4 ADD SLOAD PUSH1 0xFF AND SWAP5 PUSH1 0x7 DUP5 ADD SLOAD SWAP1 PUSH1 0x8 DUP6 ADD SLOAD SWAP3 PUSH1 0x9 DUP7 ADD SLOAD SWAP5 PUSH1 0xA DUP8 ADD SLOAD SWAP7 PUSH1 0xB ADD SLOAD SWAP8 PUSH1 0x40 MLOAD SWAP12 DUP13 SWAP12 DUP13 MSTORE PUSH1 0x20 DUP13 ADD MSTORE PUSH1 0x40 DUP12 ADD MSTORE PUSH1 0x60 DUP11 ADD MSTORE PUSH2 0x1A0 DUP1 PUSH1 0x80 DUP12 ADD MSTORE DUP10 ADD PUSH2 0x1539 SWAP2 PUSH2 0x1D9F JUMP JUMPDEST DUP9 DUP2 SUB PUSH1 0xA0 DUP11 ADD MSTORE PUSH2 0x154A SWAP2 PUSH2 0x1D9F JUMP JUMPDEST SWAP6 PUSH1 0xC0 DUP9 ADD PUSH2 0x1558 SWAP2 PUSH2 0x1DDF JUMP JUMPDEST PUSH1 0xE0 DUP8 ADD MSTORE PUSH1 0xFF DUP2 AND ISZERO ISZERO PUSH2 0x100 DUP8 ADD MSTORE PUSH1 0x8 SHR PUSH1 0xFF AND ISZERO ISZERO PUSH2 0x120 DUP7 ADD MSTORE PUSH2 0x140 DUP6 ADD MSTORE PUSH2 0x160 DUP5 ADD MSTORE PUSH2 0x180 DUP4 ADD MSTORE SUB SWAP1 RETURN JUMPDEST CALLVALUE PUSH2 0x137 JUMPI PUSH1 0x60 CALLDATASIZE PUSH1 0x3 NOT ADD SLT PUSH2 0x137 JUMPI PUSH1 0x4 CALLDATALOAD PUSH1 0x1 PUSH1 0x1 PUSH1 0x40 SHL SUB DUP2 GT PUSH2 0x137 JUMPI PUSH2 0x15BD SWAP1 CALLDATASIZE SWAP1 PUSH1 0x4 ADD PUSH2 0x1C69 JUMP JUMPDEST PUSH1 0x24 CALLDATALOAD PUSH1 0x1 PUSH1 0x1 PUSH1 0x40 SHL SUB DUP2 GT PUSH2 0x137 JUMPI PUSH2 0x15DC SWAP1 CALLDATASIZE SWAP1 PUSH1 0x4 ADD PUSH2 0x1C69 JUMP JUMPDEST PUSH1 0x44 DUP1 CALLDATALOAD SWAP1 PUSH1 0x1 PUSH1 0x1 PUSH1 0x40 SHL SUB DUP3 GT PUSH2 0x137 JUMPI CALLDATASIZE PUSH1 0x23 DUP4 ADD SLT ISZERO PUSH2 0x137 JUMPI DUP2 PUSH1 0x4 ADD CALLDATALOAD SWAP2 PUSH1 0x1 PUSH1 0x1 PUSH1 0x40 SHL SUB DUP4 GT PUSH2 0xFDD JUMPI DUP3 PUSH1 0x5 SHL PUSH1 0x40 MLOAD SWAP4 PUSH2 0x1623 PUSH1 0x20 DUP4 ADD DUP7 PUSH2 0x1C48 JUMP JUMPDEST DUP5 MSTORE PUSH1 0x24 PUSH1 0x20 DUP6 ADD SWAP2 DUP4 ADD ADD SWAP2 CALLDATASIZE DUP4 GT PUSH2 0x137 JUMPI PUSH1 0x24 ADD SWAP1 JUMPDEST DUP3 DUP3 LT PUSH2 0x1C01 JUMPI POP POP POP DUP2 MLOAD ISZERO PUSH2 0x1BC7 JUMPI PUSH1 0x0 SWAP4 DUP5 JUMPDEST DUP4 MLOAD DUP7 LT ISZERO PUSH2 0x16CB JUMPI PUSH2 0x1665 DUP7 DUP6 PUSH2 0x2185 JUMP JUMPDEST MLOAD ISZERO PUSH2 0x168F JUMPI PUSH2 0x1675 DUP7 DUP6 PUSH2 0x2185 JUMP JUMPDEST MLOAD DUP2 ADD DUP1 SWAP2 GT PUSH2 0x262 JUMPI PUSH2 0x1689 SWAP1 SWAP6 PUSH2 0x207C JUMP JUMPDEST SWAP5 PUSH2 0x1652 JUMP JUMPDEST PUSH1 0x40 MLOAD PUSH3 0x461BCD PUSH1 0xE5 SHL DUP2 MSTORE PUSH1 0x20 PUSH1 0x4 DUP3 ADD MSTORE PUSH1 0x15 PUSH1 0x24 DUP3 ADD MSTORE PUSH21 0x4D696C6573746F6E65206D757374206265203E203 PUSH1 0x5C SHL DUP2 DUP6 ADD MSTORE PUSH1 0x64 SWAP1 REVERT JUMPDEST PUSH1 0x0 DUP1 SLOAD PUSH1 0x40 MLOAD PUSH4 0x23B872DD PUSH1 0xE0 SHL DUP2 MSTORE CALLER PUSH1 0x4 DUP3 ADD MSTORE ADDRESS PUSH1 0x24 DUP3 ADD MSTORE PUSH1 0x44 DUP2 ADD DUP5 SWAP1 MSTORE SWAP3 SWAP4 SWAP3 DUP8 SWAP3 DUP8 SWAP3 PUSH1 0x20 SWAP2 DUP4 SWAP2 PUSH1 0x64 SWAP2 DUP4 SWAP2 PUSH1 0x1 PUSH1 0x1 PUSH1 0xA0 SHL SUB AND GAS CALL DUP1 ISZERO PUSH2 0x938 JUMPI PUSH2 0x1722 SWAP2 PUSH1 0x0 SWAP2 PUSH2 0x1BA8 JUMPI POP PUSH2 0x203E JUMP JUMPDEST PUSH2 0x172D PUSH1 0x3 SLOAD PUSH2 0x207C JUMP JUMPDEST SWAP2 DUP3 PUSH1 0x3 SSTORE DUP2 MLOAD PUSH1 0x40 MLOAD SWAP2 PUSH2 0x1741 DUP4 PUSH2 0x1C11 JUMP JUMPDEST DUP5 DUP4 MSTORE CALLER PUSH1 0x20 DUP5 ADD MSTORE PUSH1 0x0 PUSH1 0x40 DUP5 ADD MSTORE DUP7 PUSH1 0x60 DUP5 ADD MSTORE DUP6 PUSH1 0x80 DUP5 ADD MSTORE PUSH1 0xA0 DUP4 ADD MSTORE PUSH1 0x0 PUSH1 0xC0 DUP4 ADD MSTORE PUSH1 0x0 PUSH1 0xE0 DUP4 ADD MSTORE PUSH1 0x0 PUSH2 0x100 DUP4 ADD MSTORE PUSH1 0x0 PUSH2 0x120 DUP4 ADD MSTORE PUSH2 0x140 DUP3 ADD MSTORE PUSH1 0x0 PUSH2 0x160 DUP3 ADD MSTORE DUP5 PUSH2 0x180 DUP3 ADD MSTORE DUP3 PUSH1 0x0 MSTORE PUSH1 0x4 PUSH1 0x20 MSTORE PUSH1 0x40 PUSH1 0x0 KECCAK256 SWAP1 DUP1 MLOAD DUP3 SSTORE PUSH1 0x1 DUP3 ADD PUSH1 0x1 DUP1 PUSH1 0xA0 SHL SUB PUSH1 0x20 DUP4 ADD MLOAD AND SWAP1 PUSH1 0x1 PUSH1 0x1 PUSH1 0x60 SHL SUB PUSH1 0xA0 SHL SWAP2 DUP3 DUP3 SLOAD AND OR SWAP1 SSTORE PUSH1 0x2 DUP4 ADD SWAP1 PUSH1 0x1 DUP1 PUSH1 0xA0 SHL SUB PUSH1 0x40 DUP5 ADD MLOAD AND SWAP1 DUP3 SLOAD AND OR SWAP1 SSTORE PUSH1 0x60 DUP2 ADD MLOAD PUSH1 0x3 DUP4 ADD SSTORE PUSH1 0x80 DUP2 ADD MLOAD DUP1 MLOAD SWAP1 PUSH1 0x1 PUSH1 0x1 PUSH1 0x40 SHL SUB DUP3 GT PUSH2 0xFDD JUMPI DUP2 SWAP1 PUSH2 0x1815 PUSH1 0x4 DUP7 ADD SLOAD PUSH2 0x1CBF JUMP JUMPDEST PUSH1 0x1F DUP2 GT PUSH2 0x1B55 JUMPI JUMPDEST POP PUSH1 0x20 SWAP1 PUSH1 0x1F DUP4 GT PUSH1 0x1 EQ PUSH2 0x1AE3 JUMPI PUSH1 0x0 SWAP3 PUSH2 0x1AD8 JUMPI JUMPDEST POP POP DUP2 PUSH1 0x1 SHL SWAP2 PUSH1 0x0 NOT SWAP1 PUSH1 0x3 SHL SHR NOT AND OR PUSH1 0x4 DUP4 ADD SSTORE JUMPDEST PUSH1 0xA0 DUP2 ADD MLOAD DUP1 MLOAD SWAP1 PUSH1 0x1 PUSH1 0x1 PUSH1 0x40 SHL SUB DUP3 GT PUSH2 0xFDD JUMPI DUP2 SWAP1 PUSH2 0x1872 PUSH1 0x5 DUP7 ADD SLOAD PUSH2 0x1CBF JUMP JUMPDEST PUSH1 0x1F DUP2 GT PUSH2 0x1A85 JUMPI JUMPDEST POP PUSH1 0x20 SWAP1 PUSH1 0x1F DUP4 GT PUSH1 0x1 EQ PUSH2 0x1A13 JUMPI PUSH1 0x0 SWAP3 PUSH2 0x1A08 JUMPI JUMPDEST POP POP DUP2 PUSH1 0x1 SHL SWAP2 PUSH1 0x0 NOT SWAP1 PUSH1 0x3 SHL SHR NOT AND OR PUSH1 0x5 DUP4 ADD SSTORE JUMPDEST PUSH1 0xC0 DUP2 ADD MLOAD PUSH1 0x6 DUP2 LT ISZERO PUSH2 0x278 JUMPI PUSH1 0xB SWAP2 PUSH2 0x18CB PUSH2 0x180 SWAP3 PUSH1 0x6 DUP7 ADD PUSH2 0x208B JUMP JUMPDEST PUSH1 0xE0 DUP2 ADD MLOAD PUSH1 0x7 DUP6 ADD SSTORE PUSH2 0x18F9 PUSH1 0x8 DUP6 ADD PUSH2 0xE0D PUSH2 0x100 DUP5 ADD MLOAD ISZERO ISZERO DUP3 SWAP1 PUSH1 0xFF DUP1 NOT DUP4 SLOAD AND SWAP2 ISZERO ISZERO AND OR SWAP1 SSTORE JUMP JUMPDEST PUSH2 0x140 DUP2 ADD MLOAD PUSH1 0x9 DUP6 ADD SSTORE PUSH2 0x160 DUP2 ADD MLOAD PUSH1 0xA DUP6 ADD SSTORE ADD MLOAD SWAP2 ADD SSTORE PUSH1 0x0 JUMPDEST DUP2 MLOAD DUP2 LT ISZERO PUSH2 0x19AF JUMPI PUSH2 0x19AA SWAP1 DUP4 PUSH1 0x0 MSTORE PUSH1 0x5 PUSH1 0x20 MSTORE PUSH2 0x196A PUSH1 0x40 PUSH1 0x0 KECCAK256 PUSH2 0x193F DUP4 DUP7 PUSH2 0x2185 JUMP JUMPDEST MLOAD SWAP1 PUSH1 0x40 MLOAD SWAP2 PUSH2 0x194E DUP4 PUSH2 0x1C2D JUMP JUMPDEST DUP3 MSTORE PUSH1 0x0 PUSH1 0x20 DUP4 ADD MSTORE PUSH1 0x0 PUSH1 0x40 DUP4 ADD MSTORE PUSH1 0x0 PUSH1 0x60 DUP4 ADD MSTORE PUSH2 0x20BF JUMP JUMPDEST DUP4 PUSH32 0x99C090EA4E24C09BAF74DA49BF4100BE7DE555B972B1E6E4F495989738093D79 PUSH1 0x40 PUSH2 0x1998 DUP5 DUP8 PUSH2 0x2185 JUMP JUMPDEST MLOAD DUP2 MLOAD SWAP1 DUP6 DUP3 MSTORE PUSH1 0x20 DUP3 ADD MSTORE LOG2 PUSH2 0x207C JUMP JUMPDEST PUSH2 0x1917 JUMP JUMPDEST PUSH1 0x20 DUP4 DUP6 DUP2 PUSH32 0x6F3A5227C058380F6D30B3C63E04E4B049F2DF6D1780F11E4FF1B3E9728A3652 DUP10 CALLER PUSH1 0x0 MSTORE PUSH1 0x6 DUP7 MSTORE PUSH2 0x19EC DUP4 PUSH1 0x40 PUSH1 0x0 KECCAK256 PUSH2 0x2150 JUMP JUMPDEST PUSH1 0x40 MLOAD SWAP1 DUP2 MSTORE PUSH1 0x40 DUP7 DUP3 ADD MSTORE DUP1 PUSH2 0xF07 CALLER SWAP6 PUSH1 0x40 DUP4 ADD SWAP1 PUSH2 0x1D9F JUMP JUMPDEST ADD MLOAD SWAP1 POP DUP9 DUP1 PUSH2 0x1892 JUMP JUMPDEST SWAP3 POP PUSH1 0x5 DUP6 ADD PUSH1 0x0 MSTORE PUSH1 0x20 PUSH1 0x0 KECCAK256 SWAP1 PUSH1 0x0 SWAP4 JUMPDEST PUSH1 0x1F NOT DUP5 AND DUP6 LT PUSH2 0x1A6A JUMPI PUSH1 0x1 SWAP5 POP DUP4 PUSH1 0x1F NOT DUP2 AND LT PUSH2 0x1A51 JUMPI JUMPDEST POP POP POP DUP2 SHL ADD PUSH1 0x5 DUP4 ADD SSTORE PUSH2 0x18AA JUMP JUMPDEST ADD MLOAD PUSH1 0x0 NOT PUSH1 0xF8 DUP5 PUSH1 0x3 SHL AND SHR NOT AND SWAP1 SSTORE DUP9 DUP1 DUP1 PUSH2 0x1A41 JUMP JUMPDEST DUP2 DUP2 ADD MLOAD DUP4 SSTORE PUSH1 0x20 SWAP5 DUP6 ADD SWAP5 PUSH1 0x1 SWAP1 SWAP4 ADD SWAP3 SWAP1 SWAP2 ADD SWAP1 PUSH2 0x1A26 JUMP JUMPDEST SWAP1 SWAP2 POP PUSH1 0x5 DUP6 ADD PUSH1 0x0 MSTORE PUSH1 0x20 PUSH1 0x0 KECCAK256 PUSH1 0x1F DUP5 ADD PUSH1 0x5 SHR DUP2 ADD PUSH1 0x20 DUP6 LT PUSH2 0x1AD1 JUMPI JUMPDEST SWAP1 DUP5 SWAP4 SWAP3 SWAP2 JUMPDEST PUSH1 0x1F DUP4 ADD PUSH1 0x5 SHR DUP3 ADD DUP2 LT PUSH2 0x1AC2 JUMPI POP POP PUSH2 0x187B JUMP JUMPDEST PUSH1 0x0 DUP2 SSTORE DUP6 SWAP5 POP PUSH1 0x1 ADD PUSH2 0x1AAC JUMP JUMPDEST POP DUP1 PUSH2 0x1AA6 JUMP JUMPDEST ADD MLOAD SWAP1 POP DUP9 DUP1 PUSH2 0x1835 JUMP JUMPDEST SWAP3 POP PUSH1 0x4 DUP6 ADD PUSH1 0x0 MSTORE PUSH1 0x20 PUSH1 0x0 KECCAK256 SWAP1 PUSH1 0x0 SWAP4 JUMPDEST PUSH1 0x1F NOT DUP5 AND DUP6 LT PUSH2 0x1B3A JUMPI PUSH1 0x1 SWAP5 POP DUP4 PUSH1 0x1F NOT DUP2 AND LT PUSH2 0x1B21 JUMPI JUMPDEST POP POP POP DUP2 SHL ADD PUSH1 0x4 DUP4 ADD SSTORE PUSH2 0x184D JUMP JUMPDEST ADD MLOAD PUSH1 0x0 NOT PUSH1 0xF8 DUP5 PUSH1 0x3 SHL AND SHR NOT AND SWAP1 SSTORE DUP9 DUP1 DUP1 PUSH2 0x1B11 JUMP JUMPDEST DUP2 DUP2 ADD MLOAD DUP4 SSTORE PUSH1 0x20 SWAP5 DUP6 ADD SWAP5 PUSH1 0x1 SWAP1 SWAP4 ADD SWAP3 SWAP1 SWAP2 ADD SWAP1 PUSH2 0x1AF6 JUMP JUMPDEST SWAP1 SWAP2 POP PUSH1 0x4 DUP6 ADD PUSH1 0x0 MSTORE PUSH1 0x20 PUSH1 0x0 KECCAK256 PUSH1 0x1F DUP5 ADD PUSH1 0x5 SHR DUP2 ADD PUSH1 0x20 DUP6 LT PUSH2 0x1BA1 JUMPI JUMPDEST SWAP1 DUP5 SWAP4 SWAP3 SWAP2 JUMPDEST PUSH1 0x1F DUP4 ADD PUSH1 0x5 SHR DUP3 ADD DUP2 LT PUSH2 0x1B92 JUMPI POP POP PUSH2 0x181E JUMP JUMPDEST PUSH1 0x0 DUP2 SSTORE DUP6 SWAP5 POP PUSH1 0x1 ADD PUSH2 0x1B7C JUMP JUMPDEST POP DUP1 PUSH2 0x1B76 JUMP JUMPDEST PUSH2 0x1BC1 SWAP2 POP PUSH1 0x20 RETURNDATASIZE PUSH1 0x20 GT PUSH2 0x931 JUMPI PUSH2 0x923 DUP2 DUP4 PUSH2 0x1C48 JUMP JUMPDEST DUP7 PUSH2 0xC2A JUMP JUMPDEST PUSH1 0x64 SWAP1 PUSH19 0x135A5B195CDD1BDB995CC81C995C5D5A5C9959 PUSH1 0x6A SHL PUSH1 0x40 MLOAD SWAP2 PUSH3 0x461BCD PUSH1 0xE5 SHL DUP4 MSTORE PUSH1 0x20 PUSH1 0x4 DUP5 ADD MSTORE PUSH1 0x13 PUSH1 0x24 DUP5 ADD MSTORE DUP3 ADD MSTORE REVERT JUMPDEST DUP2 CALLDATALOAD DUP2 MSTORE PUSH1 0x20 SWAP2 DUP3 ADD SWAP2 ADD PUSH2 0x163C JUMP JUMPDEST PUSH2 0x1A0 DUP2 ADD SWAP1 DUP2 LT PUSH1 0x1 PUSH1 0x1 PUSH1 0x40 SHL SUB DUP3 GT OR PUSH2 0xFDD JUMPI PUSH1 0x40 MSTORE JUMP JUMPDEST PUSH1 0x80 DUP2 ADD SWAP1 DUP2 LT PUSH1 0x1 PUSH1 0x1 PUSH1 0x40 SHL SUB DUP3 GT OR PUSH2 0xFDD JUMPI PUSH1 0x40 MSTORE JUMP JUMPDEST SWAP1 PUSH1 0x1F DUP1 NOT SWAP2 ADD AND DUP2 ADD SWAP1 DUP2 LT PUSH1 0x1 PUSH1 0x1 PUSH1 0x40 SHL SUB DUP3 GT OR PUSH2 0xFDD JUMPI PUSH1 0x40 MSTORE JUMP JUMPDEST DUP2 PUSH1 0x1F DUP3 ADD SLT ISZERO PUSH2 0x137 JUMPI DUP1 CALLDATALOAD SWAP1 PUSH1 0x1 PUSH1 0x1 PUSH1 0x40 SHL SUB DUP3 GT PUSH2 0xFDD JUMPI PUSH1 0x40 MLOAD SWAP3 PUSH2 0x1C9D PUSH1 0x1F DUP5 ADD PUSH1 0x1F NOT AND PUSH1 0x20 ADD DUP6 PUSH2 0x1C48 JUMP JUMPDEST DUP3 DUP5 MSTORE PUSH1 0x20 DUP4 DUP4 ADD ADD GT PUSH2 0x137 JUMPI DUP2 PUSH1 0x0 SWAP3 PUSH1 0x20 DUP1 SWAP4 ADD DUP4 DUP7 ADD CALLDATACOPY DUP4 ADD ADD MSTORE SWAP1 JUMP JUMPDEST SWAP1 PUSH1 0x1 DUP3 DUP2 SHR SWAP3 AND DUP1 ISZERO PUSH2 0x1CEF JUMPI JUMPDEST PUSH1 0x20 DUP4 LT EQ PUSH2 0x1CD9 JUMPI JUMP JUMPDEST PUSH4 0x4E487B71 PUSH1 0xE0 SHL PUSH1 0x0 MSTORE PUSH1 0x22 PUSH1 0x4 MSTORE PUSH1 0x24 PUSH1 0x0 REVERT JUMPDEST SWAP2 PUSH1 0x7F AND SWAP2 PUSH2 0x1CCE JUMP JUMPDEST SWAP1 PUSH1 0x40 MLOAD SWAP2 DUP3 PUSH1 0x0 DUP3 SLOAD SWAP3 PUSH2 0x1D0D DUP5 PUSH2 0x1CBF JUMP JUMPDEST SWAP1 DUP2 DUP5 MSTORE PUSH1 0x1 SWAP5 DUP6 DUP2 AND SWAP1 DUP2 PUSH1 0x0 EQ PUSH2 0x1D7C JUMPI POP PUSH1 0x1 EQ PUSH2 0x1D39 JUMPI JUMPDEST POP POP PUSH2 0x1D37 SWAP3 POP SUB DUP4 PUSH2 0x1C48 JUMP JUMPDEST JUMP JUMPDEST SWAP1 SWAP4 SWAP2 POP PUSH1 0x0 MSTORE PUSH1 0x20 SWAP1 DUP2 PUSH1 0x0 KECCAK256 SWAP4 PUSH1 0x0 SWAP2 JUMPDEST DUP2 DUP4 LT PUSH2 0x1D64 JUMPI POP POP PUSH2 0x1D37 SWAP4 POP DUP3 ADD ADD CODESIZE DUP1 PUSH2 0x1D29 JUMP JUMPDEST DUP6 SLOAD DUP9 DUP5 ADD DUP6 ADD MSTORE SWAP5 DUP6 ADD SWAP5 DUP8 SWAP5 POP SWAP2 DUP4 ADD SWAP2 PUSH2 0x1D4C JUMP JUMPDEST SWAP2 POP POP PUSH2 0x1D37 SWAP5 POP PUSH1 0x20 SWAP3 POP PUSH1 0xFF NOT AND DUP3 DUP5 ADD MSTORE ISZERO ISZERO PUSH1 0x5 SHL DUP3 ADD ADD CODESIZE DUP1 PUSH2 0x1D29 JUMP JUMPDEST SWAP2 SWAP1 DUP3 MLOAD SWAP3 DUP4 DUP3 MSTORE PUSH1 0x0 JUMPDEST DUP5 DUP2 LT PUSH2 0x1DCB JUMPI POP POP DUP3 PUSH1 0x0 PUSH1 0x20 DUP1 SWAP5 SWAP6 DUP5 ADD ADD MSTORE PUSH1 0x1F DUP1 NOT SWAP2 ADD AND ADD ADD SWAP1 JUMP JUMPDEST PUSH1 0x20 DUP2 DUP4 ADD DUP2 ADD MLOAD DUP5 DUP4 ADD DUP3 ADD MSTORE ADD PUSH2 0x1DAA JUMP JUMPDEST SWAP1 PUSH1 0x6 DUP3 LT ISZERO PUSH2 0x278 JUMPI MSTORE JUMP JUMPDEST PUSH1 0x4 CALLDATALOAD SWAP1 PUSH1 0x1 PUSH1 0x1 PUSH1 0xA0 SHL SUB DUP3 AND DUP3 SUB PUSH2 0x137 JUMPI JUMP JUMPDEST PUSH1 0x20 SWAP1 DUP2 PUSH1 0x40 DUP2 DUP4 ADD SWAP3 DUP3 DUP2 MSTORE DUP6 MLOAD DUP1 SWAP5 MSTORE ADD SWAP4 ADD SWAP2 PUSH1 0x0 JUMPDEST DUP3 DUP2 LT PUSH2 0x1E29 JUMPI POP POP POP POP SWAP1 JUMP JUMPDEST DUP4 MLOAD DUP6 MSTORE SWAP4 DUP2 ADD SWAP4 SWAP3 DUP2 ADD SWAP3 PUSH1 0x1 ADD PUSH2 0x1E1B JUMP JUMPDEST DUP1 SLOAD DUP3 LT ISZERO PUSH2 0x1E55 JUMPI PUSH1 0x0 MSTORE PUSH1 0x20 PUSH1 0x0 KECCAK256 ADD SWAP1 PUSH1 0x0 SWAP1 JUMP JUMPDEST PUSH4 0x4E487B71 PUSH1 0xE0 SHL PUSH1 0x0 MSTORE PUSH1 0x32 PUSH1 0x4 MSTORE PUSH1 0x24 PUSH1 0x0 REVERT JUMPDEST PUSH1 0x40 SWAP1 PUSH1 0x3 NOT ADD SLT PUSH2 0x137 JUMPI PUSH1 0x4 CALLDATALOAD SWAP1 PUSH1 0x24 CALLDATALOAD SWAP1 JUMP JUMPDEST CALLVALUE PUSH2 0x137 JUMPI PUSH1 0x20 DUP1 PUSH1 0x3 NOT CALLDATASIZE ADD SLT PUSH2 0x137 JUMPI PUSH1 0x4 SWAP1 PUSH1 0x0 SWAP1 DUP3 CALLDATALOAD DUP3 MSTORE DUP3 DUP2 MSTORE PUSH1 0x40 SWAP1 DUP2 DUP4 KECCAK256 PUSH1 0x1 DUP1 PUSH1 0xA0 SHL SUB PUSH1 0x2 DUP3 ADD SLOAD AND CALLER SUB PUSH2 0x1FE3 JUMPI PUSH1 0x6 DUP2 ADD SWAP1 PUSH1 0xFF DUP3 SLOAD AND PUSH1 0x6 DUP2 LT ISZERO PUSH2 0x1FD0 JUMPI PUSH1 0x1 SUB PUSH2 0x1F97 JUMPI PUSH1 0xA DUP2 ADD SLOAD SWAP2 PUSH2 0x1EE8 PUSH1 0x9 DUP4 ADD SLOAD DUP5 LT PUSH2 0x2199 JUMP JUMPDEST DUP2 SLOAD DUP7 MSTORE PUSH1 0x5 DUP5 MSTORE PUSH1 0x1 PUSH2 0x1EFE DUP5 DUP8 DUP10 KECCAK256 PUSH2 0x20A3 JUMP JUMPDEST POP ADD DUP1 SLOAD SWAP8 PUSH1 0xFF DUP10 AND PUSH2 0x1F54 JUMPI POP PUSH32 0x26CF581E2709E0615164AF15A371B2DD10FB48D5BAED91E9EACD557633C16BCB SWAP6 SWAP7 SWAP8 PUSH1 0x2 SWAP2 PUSH1 0x1 PUSH1 0xFF NOT DUP1 SWAP4 AND OR SWAP1 SSTORE DUP3 SLOAD AND OR SWAP1 SSTORE TIMESTAMP PUSH1 0x7 DUP3 ADD SSTORE SLOAD SWAP4 MLOAD SWAP1 DUP2 MSTORE LOG2 DUP1 RETURN JUMPDEST DUP7 MLOAD PUSH3 0x461BCD PUSH1 0xE5 SHL DUP2 MSTORE SWAP1 DUP2 ADD DUP7 SWAP1 MSTORE PUSH1 0x1B PUSH1 0x24 DUP3 ADD MSTORE PUSH32 0x4D696C6573746F6E6520616C7265616479207375626D69747465640000000000 PUSH1 0x44 DUP3 ADD MSTORE PUSH1 0x64 SWAP1 REVERT JUMPDEST DUP4 MLOAD PUSH3 0x461BCD PUSH1 0xE5 SHL DUP2 MSTORE DUP1 DUP8 ADD DUP5 SWAP1 MSTORE PUSH1 0x13 PUSH1 0x24 DUP3 ADD MSTORE PUSH19 0x4A6F62206E6F7420696E2070726F6772657373 PUSH1 0x68 SHL PUSH1 0x44 DUP3 ADD MSTORE PUSH1 0x64 SWAP1 REVERT JUMPDEST PUSH4 0x4E487B71 PUSH1 0xE0 SHL DUP7 MSTORE PUSH1 0x21 DUP8 MSTORE PUSH1 0x24 DUP7 REVERT JUMPDEST DUP3 MLOAD PUSH3 0x461BCD PUSH1 0xE5 SHL DUP2 MSTORE DUP1 DUP7 ADD DUP4 SWAP1 MSTORE PUSH1 0x1B PUSH1 0x24 DUP3 ADD MSTORE PUSH32 0x4E6F74207468652061737369676E656420667265656C616E6365720000000000 PUSH1 0x44 DUP3 ADD MSTORE PUSH1 0x64 SWAP1 REVERT JUMPDEST SWAP1 DUP2 PUSH1 0x20 SWAP2 SUB SLT PUSH2 0x137 JUMPI MLOAD DUP1 ISZERO ISZERO DUP2 SUB PUSH2 0x137 JUMPI SWAP1 JUMP JUMPDEST ISZERO PUSH2 0x2045 JUMPI JUMP JUMPDEST PUSH1 0x40 MLOAD PUSH3 0x461BCD PUSH1 0xE5 SHL DUP2 MSTORE PUSH1 0x20 PUSH1 0x4 DUP3 ADD MSTORE PUSH1 0xF PUSH1 0x24 DUP3 ADD MSTORE PUSH15 0x151C985B9CD9995C8819985A5B1959 PUSH1 0x8A SHL PUSH1 0x44 DUP3 ADD MSTORE PUSH1 0x64 SWAP1 REVERT JUMPDEST PUSH1 0x0 NOT DUP2 EQ PUSH2 0x262 JUMPI PUSH1 0x1 ADD SWAP1 JUMP JUMPDEST SWAP1 PUSH1 0x6 DUP2 LT ISZERO PUSH2 0x278 JUMPI PUSH1 0xFF DUP1 NOT DUP4 SLOAD AND SWAP2 AND OR SWAP1 SSTORE JUMP JUMPDEST DUP1 SLOAD DUP3 LT ISZERO PUSH2 0x1E55 JUMPI PUSH1 0x0 MSTORE PUSH1 0x20 PUSH1 0x0 KECCAK256 SWAP1 PUSH1 0x1 SHL ADD SWAP1 PUSH1 0x0 SWAP1 JUMP JUMPDEST DUP1 SLOAD PUSH1 0x1 PUSH1 0x40 SHL DUP2 LT ISZERO PUSH2 0xFDD JUMPI PUSH2 0x20DC SWAP2 PUSH1 0x1 DUP3 ADD DUP2 SSTORE PUSH2 0x20A3 JUMP JUMPDEST PUSH2 0x213A JUMPI PUSH1 0x1 PUSH1 0x60 SWAP2 DUP4 MLOAD DUP2 SSTORE ADD SWAP2 PUSH2 0x2107 PUSH1 0x20 DUP3 ADD MLOAD ISZERO ISZERO DUP5 SWAP1 PUSH1 0xFF DUP1 NOT DUP4 SLOAD AND SWAP2 ISZERO ISZERO AND OR SWAP1 SSTORE JUMP JUMPDEST PUSH1 0x40 DUP2 ADD MLOAD DUP4 SLOAD PUSH2 0xFF00 NOT AND SWAP1 ISZERO ISZERO PUSH1 0x8 SHL PUSH2 0xFF00 AND OR DUP4 SSTORE ADD MLOAD DUP2 SLOAD PUSH3 0xFF0000 NOT AND SWAP1 ISZERO ISZERO PUSH1 0x10 SHL PUSH3 0xFF0000 AND OR SWAP1 SSTORE JUMP JUMPDEST PUSH4 0x4E487B71 PUSH1 0xE0 SHL PUSH1 0x0 MSTORE PUSH1 0x0 PUSH1 0x4 MSTORE PUSH1 0x24 PUSH1 0x0 REVERT JUMPDEST DUP1 SLOAD PUSH1 0x1 PUSH1 0x40 SHL DUP2 LT ISZERO PUSH2 0xFDD JUMPI PUSH2 0x216D SWAP2 PUSH1 0x1 DUP3 ADD DUP2 SSTORE PUSH2 0x1E3D JUMP JUMPDEST DUP2 SWAP3 SWAP2 SLOAD SWAP1 PUSH1 0x3 SHL SWAP2 DUP3 SHL SWAP2 PUSH1 0x0 NOT SWAP1 SHL NOT AND OR SWAP1 SSTORE JUMP JUMPDEST DUP1 MLOAD DUP3 LT ISZERO PUSH2 0x1E55 JUMPI PUSH1 0x20 SWAP2 PUSH1 0x5 SHL ADD ADD SWAP1 JUMP JUMPDEST ISZERO PUSH2 0x21A0 JUMPI JUMP JUMPDEST PUSH1 0x40 MLOAD PUSH3 0x461BCD PUSH1 0xE5 SHL DUP2 MSTORE PUSH1 0x20 PUSH1 0x4 DUP3 ADD MSTORE PUSH1 0x17 PUSH1 0x24 DUP3 ADD MSTORE PUSH32 0x416C6C206D696C6573746F6E657320636F6D706C657465000000000000000000 PUSH1 0x44 DUP3 ADD MSTORE PUSH1 0x64 SWAP1 REVERT JUMPDEST ISZERO PUSH2 0x21EC JUMPI JUMP JUMPDEST PUSH1 0x40 MLOAD PUSH3 0x461BCD PUSH1 0xE5 SHL DUP2 MSTORE PUSH1 0x20 PUSH1 0x4 DUP3 ADD MSTORE PUSH1 0x15 PUSH1 0x24 DUP3 ADD MSTORE PUSH21 0x13DB9B1E481052481859D95B9D08185B1B1BDDD959 PUSH1 0x5A SHL PUSH1 0x44 DUP3 ADD MSTORE PUSH1 0x64 SWAP1 REVERT JUMPDEST ISZERO PUSH2 0x2230 JUMPI JUMP JUMPDEST PUSH1 0x40 MLOAD PUSH3 0x461BCD PUSH1 0xE5 SHL DUP2 MSTORE PUSH1 0x20 PUSH1 0x4 DUP3 ADD MSTORE PUSH1 0x12 PUSH1 0x24 DUP3 ADD MSTORE PUSH18 0x496E76616C6964206A6F6220737461747573 PUSH1 0x70 SHL PUSH1 0x44 DUP3 ADD MSTORE PUSH1 0x64 SWAP1 REVERT JUMPDEST ISZERO PUSH2 0x2271 JUMPI JUMP JUMPDEST PUSH1 0x40 MLOAD PUSH3 0x461BCD PUSH1 0xE5 SHL DUP2 MSTORE PUSH1 0x20 PUSH1 0x4 DUP3 ADD MSTORE PUSH1 0x13 PUSH1 0x24 DUP3 ADD MSTORE PUSH19 0x4E6F20657363726F772072656D61696E696E67 PUSH1 0x68 SHL PUSH1 0x44 DUP3 ADD MSTORE PUSH1 0x64 SWAP1 REVERT JUMPDEST SWAP2 SWAP1 DUP3 SUB SWAP2 DUP3 GT PUSH2 0x262 JUMPI JUMP JUMPDEST ISZERO PUSH2 0x22C0 JUMPI JUMP JUMPDEST PUSH1 0x40 MLOAD PUSH3 0x461BCD PUSH1 0xE5 SHL DUP2 MSTORE PUSH1 0x20 PUSH1 0x4 DUP3 ADD MSTORE PUSH1 0x17 PUSH1 0x24 DUP3 ADD MSTORE PUSH32 0x4D696C6573746F6E65206E6F74207375626D6974746564000000000000000000 PUSH1 0x44 DUP3 ADD MSTORE PUSH1 0x64 SWAP1 REVERT JUMPDEST PUSH1 0xA DUP2 ADD SWAP1 DUP2 SLOAD PUSH1 0x9 DUP3 ADD SWAP2 PUSH2 0x231D DUP4 SLOAD DUP4 LT PUSH2 0x2199 JUMP JUMPDEST DUP1 SLOAD SWAP4 PUSH1 0x0 SWAP5 DUP6 MSTORE PUSH1 0x20 SWAP4 PUSH1 0x5 DUP6 MSTORE PUSH1 0x40 PUSH2 0x233A DUP6 DUP3 DUP10 KECCAK256 PUSH2 0x20A3 JUMP JUMPDEST POP SWAP1 PUSH1 0x1 DUP3 ADD DUP1 SLOAD PUSH2 0x234E PUSH1 0xFF DUP3 AND PUSH2 0x22B9 JUMP JUMPDEST PUSH1 0xFF DUP2 PUSH1 0x10 SHR AND PUSH2 0x24F7 JUMPI PUSH3 0x10100 SWAP1 PUSH3 0xFFFF00 NOT AND OR SWAP1 SSTORE DUP2 SLOAD PUSH2 0x2378 PUSH1 0xB DUP8 ADD SWAP2 DUP3 SLOAD PUSH2 0x22AC JUMP JUMPDEST SWAP1 SSTORE DUP8 SLOAD PUSH1 0x2 DUP7 ADD DUP1 SLOAD DUP5 SLOAD DUP5 MLOAD PUSH4 0xA9059CBB PUSH1 0xE0 SHL DUP2 MSTORE PUSH1 0x1 PUSH1 0x1 PUSH1 0xA0 SHL SUB SWAP3 DUP4 AND PUSH1 0x4 DUP3 ADD MSTORE PUSH1 0x24 DUP2 ADD SWAP2 SWAP1 SWAP2 MSTORE SWAP2 SWAP10 SWAP1 SWAP9 SWAP3 SWAP1 SWAP2 SWAP1 DUP3 SWAP1 DUP3 SWAP1 PUSH1 0x44 SWAP1 DUP3 SWAP1 DUP16 SWAP1 DUP15 AND GAS CALL SWAP1 DUP2 ISZERO PUSH2 0x24ED JUMPI DUP12 SWAP2 PUSH2 0x24D0 JUMPI JUMPDEST POP ISZERO PUSH2 0x248D JUMPI DUP7 SLOAD SWAP4 SLOAD DUP4 MLOAD SWAP3 DUP4 MSTORE SWAP1 DUP3 ADD MSTORE PUSH32 0xAFC8FC5DD6037BF38D34D9D51BB5ECC0AF143248332C63AE9E83BBEF6D4638D9 SWAP2 SWAP1 LOG2 DUP2 SLOAD SWAP2 PUSH1 0x1 DUP4 ADD DUP1 SWAP4 GT PUSH2 0x2479 JUMPI DUP3 SWAP1 SSTORE SLOAD GT PUSH2 0x2466 JUMPI PUSH1 0x8 DUP2 ADD DUP1 SLOAD PUSH2 0xFF00 NOT AND PUSH2 0x100 OR SWAP1 SSTORE PUSH1 0x6 DUP2 ADD DUP1 SLOAD PUSH1 0xFF NOT AND PUSH1 0x5 OR SWAP1 SSTORE SLOAD SWAP2 SLOAD AND SWAP2 PUSH32 0x4156924BD7E340B19303AF17BF5323D66FAE5DC16F350319092E0839C8543683 SWAP1 DUP1 LOG3 JUMP JUMPDEST PUSH1 0x6 ADD DUP1 SLOAD PUSH1 0xFF NOT AND PUSH1 0x1 OR SWAP1 SSTORE POP POP POP JUMP JUMPDEST PUSH4 0x4E487B71 PUSH1 0xE0 SHL DUP8 MSTORE PUSH1 0x11 PUSH1 0x4 MSTORE PUSH1 0x24 DUP8 REVERT JUMPDEST PUSH1 0x64 SWAP1 DUP4 MLOAD SWAP1 PUSH3 0x461BCD PUSH1 0xE5 SHL DUP3 MSTORE PUSH1 0x4 DUP3 ADD MSTORE PUSH1 0x17 PUSH1 0x24 DUP3 ADD MSTORE PUSH32 0x5061796D656E74207472616E73666572206661696C6564000000000000000000 PUSH1 0x44 DUP3 ADD MSTORE REVERT JUMPDEST PUSH2 0x24E7 SWAP2 POP DUP3 RETURNDATASIZE DUP5 GT PUSH2 0x931 JUMPI PUSH2 0x923 DUP2 DUP4 PUSH2 0x1C48 JUMP JUMPDEST CODESIZE PUSH2 0x23CD JUMP JUMPDEST DUP5 MLOAD RETURNDATASIZE DUP14 DUP3 RETURNDATACOPY RETURNDATASIZE SWAP1 REVERT JUMPDEST DUP3 MLOAD PUSH3 0x461BCD PUSH1 0xE5 SHL DUP2 MSTORE PUSH1 0x4 DUP2 ADD DUP11 SWAP1 MSTORE PUSH1 0x16 PUSH1 0x24 DUP3 ADD MSTORE PUSH22 0x135A5B195CDD1BDB9948185B1C9958591E481C185A59 PUSH1 0x52 SHL PUSH1 0x44 DUP3 ADD MSTORE PUSH1 0x64 SWAP1 REVERT INVALID LOG2 PUSH5 0x6970667358 0x22 SLT KECCAK256 0xE4 PUSH10 0x3284D425ED8E5689C93E ADDMOD 0xAD 0xD4 0xBD SWAP6 PUSH29 0xA357C74B242A9C64A51AE403EE0F64736F6C6343000814003300000000 "},"methodIdentifiers":{"acceptJob(uint256)":"63b2f3c9","aiAgent()":"a6d5b732","approveMilestone(uint256)":"c438b40f","clientJobs(address,uint256)":"8facd859","freelancerJobs(address,uint256)":"442f5c88","getClientJobs(address)":"cf2646c2","getFreelancerJobs(address)":"40f70be4","getJob(uint256)":"bf22c457","getMilestone(uint256,uint256)":"8ed9895c","getMilestoneCount(uint256)":"c2010e50","jobCounter()":"50355d76","jobs(uint256)":"180aedf3","owner()":"8da5cb5b","postJob(string,string,uint256)":"5c3b9c4a","postJobWithMilestones(string,string,uint256[])":"05be0478","refundClient(uint256)":"43eed51c","resolveDispute(uint256,bool)":"34b25ee2","resolveDisputeWithSplit(uint256,uint256)":"6e939a72","setAIAgent(address)":"6ebe941b","stablecoin()":"e9cbd822","submitMilestone(uint256)":"7d64b00b","submitWork(uint256)":"c4c11523"}}}}}