{"contracts/ApplicationRegistry.sol":{"ApplicationRegistry":{"abi":[{"anonymous":false,"inputs":[{"indexed":true,"internalType":"uint256","name":"jobId","type":"uint256"},{"indexed":true,"internalType":"address","name":"freelancer","type":"address"},{"indexed":false,"internalType":"bytes32","name":"applicationHash","type":"bytes32"},{"indexed":false,"internalType":"string","name":"metadataURI","type":"string"}],"name":"ApplicationSubmitted","type":"event"},{"inputs":[{"internalType":"uint256","name":"jobId","type":"uint256"},{"internalType":"bytes32","name":"applicationHash","type":"bytes32"},{"internalType":"string","name":"metadataURI","type":"string"}],"name":"submitApplication","outputs":[],"stateMutability":"nonpayable","type":"function"}],"evm":{"bytecode":{"linkReferences":{},"object":"6080806040523461001657610104908161001c8239f35b600080fdfe6080806040526004361015601257600080fd5b600090813560e01c632495a9f814602857600080fd5b3460ca57606036600319011260ca5767ffffffffffffffff60443581811160c6573660238201121560c657806004013591821160c657366024838301011160c65760248291813585526040602086015282604086015201606084013782606082840101527fe4085a16175b00804b920c84edbccce822f358b929d83df3dcf254e158c8db69339260608160043594601f80199101168101030190a380f35b8380fd5b5080fdfea264697066735822122081f537bed510acd2c26b0e38b82bb1e6d6ed5445b8fb2d8c176d3ba73283fdaa64736f6c63430008140033","opcodes":"PUSH1 0x80 DUP1 PUSH1 0x40 MSTORE CALLVALUE PUSH2 0x16 JUMPI PUSH2 0x104 SWAP1 DUP2 PUSH2 0x1C DUP3 CODECOPY RETURN JUMPDEST PUSH1 0x0 DUP1 REVERT INVALID PUSH1 0x80 DUP1 PUSH1 0x40 MSTORE PUSH1 0x4 CALLDATASIZE LT ISZERO PUSH1 0x12 JUMPI PUSH1 0x0 DUP1 REVERT JUMPDEST PUSH1 0x0 SWAP1 DUP2 CALLDATALOAD PUSH1 0xE0 SHR PUSH4 0x2495A9F8 EQ PUSH1 0x28 JUMPI PUSH1 0x0 DUP1 REVERT JUMPDEST CALLVALUE PUSH1 0xCA JUMPI PUSH1 0x60 CALLDATASIZE PUSH1 0x3 NOT ADD SLT PUSH1 0xCA JUMPI PUSH8 0xFFFFFFFFFFFFFFFF PUSH1 0x44 CALLDATALOAD DUP2 DUP2 GT PUSH1 0xC6 JUMPI CALLDATASIZE PUSH1 0x23 DUP3 ADD SLT ISZERO PUSH1 0xC6 JUMPI DUP1 PUSH1 0x4 ADD CALLDATALOAD SWAP2 DUP3 GT PUSH1 0xC6 JUMPI CALLDATASIZE PUSH1 0x24 DUP4 DUP4 ADD ADD GT PUSH1 0xC6 JUMPI PUSH1 0x24 DUP3 SWAP2 DUP2 CALLDATALOAD DUP6 MSTORE PUSH1 0x40 PUSH1 0x20 DUP7 ADD MSTORE DUP3 PUSH1 0x40 DUP7 ADD MSTORE ADD PUSH1 0x60 DUP5 ADD CALLDATACOPY DUP3 PUSH1 0x60 DUP3 DUP5 ADD ADD MSTORE PUSH32 0xE4085A16175B00804B920C84EDBCCCE822F358B929D83DF3DCF254E158C8DB69 CALLER SWAP3 PUSH1 0x60 DUP2 PUSH1 0x4 CALLDATALOAD SWAP5 PUSH1 0x1F DUP1 NOT SWAP2 ADD AND DUP2 ADD SUB ADD SWAP1 LOG3 DUP1 RETURN JUMPDEST DUP4 DUP1 REVERT JUMPDEST POP DUP1 REVERT INVALID LOG2 PUSH5 0x6970667358 0x22 SLT KECCAK256 DUP2 CREATE2 CALLDATACOPY 0xBE 0xD5 LT 0xAC 0xD2 0xC2 PUSH12 0xE38B82BB1E6D6ED5445B8FB 0x2D DUP13 OR PUSH14 0x3BA73283FDAA64736F6C63430008 EQ STOP CALLER "},"methodIdentifiers":{"submitApplication(uint256,bytes32,string)":"2495a9f8"}}}}}