{"contracts/AgentIdentityRegistry.sol":{"AgentIdentityRegistry":{"abi":[{"anonymous":false,"inputs":[{"indexed":true,"internalType":"uint256","name":"agentId","type":"uint256"},{"indexed":true,"internalType":"address","name":"owner","type":"address"},{"indexed":false,"internalType":"string","name":"uri","type":"string"}],"name":"AgentRegistered","type":"event"},{"inputs":[{"internalType":"uint256","name":"","type":"uint256"}],"name":"agentIdentities","outputs":[{"internalType":"address","name":"owner","type":"address"},{"internalType":"string","name":"uri","type":"string"}],"stateMutability":"view","type":"function"},{"inputs":[{"internalType":"string","name":"uri","type":"string"}],"name":"registerAgent","outputs":[{"internalType":"uint256","name":"","type":"uint256"}],"stateMutability":"nonpayable","type":"function"}],"evm":{"bytecode":{"linkReferences":{},"object":"60808060405234610016576104cb908161001c8239f35b600080fdfe608060408181526004918236101561001657600080fd5b600090813560e01c9081631e0eccd8146103025750632d2a95851461003a57600080fd5b346102f757602091826003193601126102fe5767ffffffffffffffff84358181116102fa57366023820112156102fa5780860135938285116102f757602482019160248636920101116102f7578054946001938487018097116102e4578683558551868101818110838211176102d15797899a87899a938a9594849d9b52338152818b601f19956100d687601f8c01169e8f9a519a018a61045d565b898952898c838b01378a828b8b0101528184019889528a52528b88209060018060a01b039051166bffffffffffffffffffffffff60a01b8254161781550193519081519384116102be57509183918b979695938d6101358d9754610423565b601f8111610258575b50508d91601f84116001146101bd57507f0d063c6022bff16d09991a9f91882ffa112f5fb2529136f65eb4c77bbd047e4398998392839289946101b2575b50501b916000199060031b1c19161790555b808251948b8652818c8701528386013783010152848133958101030190a351908152f35b01519250388061017c565b9183928f929b94169a8589528289209289905b8d8210610229575050837f0d063c6022bff16d09991a9f91882ffa112f5fb2529136f65eb4c77bbd047e439b9c10610210575b505050811b01905561018e565b015160001960f88460031b161c19169055388080610203565b9296999b509497509295989a91818881928887015181550196019401928e9a9895929b9996938e9895926101d0565b9193959780999a50859750949092945281882090601f860160051c82019286106102b4575b918a8e9a9998969492601f8f9997950160051c01915b8281106102a357508f915061013e565b8981558f9b508e98508c9101610293565b909150819061027d565b634e487b7160e01b875260419052602486fd5b634e487b7160e01b855260418b52602485fd5b634e487b7160e01b835260118952602483fd5b80fd5b8380fd5b5080fd5b939050346102fe576020908160031936011261041f573582526001808252838320805490820180546001600160a01b039092169692839186919061034585610423565b948585528783821691826000146103fd5750506001146103c1575b50506103749250969492959396038561045d565b81519485938452828185015284518093850152815b8381106103aa57505060608094508284010152601f80199101168101030190f35b808601820151878201606001528694508101610389565b86925087528187209087915b8583106103e557505061037493508201013880610360565b805483880185015286945087939092019181016103cd565b925093505061037494915060ff191682840152151560051b8201013880610360565b8280fd5b90600182811c92168015610453575b602083101461043d57565b634e487b7160e01b600052602260045260246000fd5b91607f1691610432565b90601f8019910116810190811067ffffffffffffffff82111761047f57604052565b634e487b7160e01b600052604160045260246000fdfea2646970667358221220204f246ad720405ed2fa094999efd6a0fe2e7719f8c7b7e2823ebdf0de35ceaa64736f6c63430008140033","opcodes":"PUSH1 0x80 DUP1 PUSH1 0x40 MSTORE CALLVALUE PUSH2 0x16 JUMPI PUSH2 0x4CB SWAP1 DUP2 PUSH2 0x1C DUP3 CODECOPY RETURN JUMPDEST PUSH1 0x0 DUP1 REVERT INVALID PUSH1 0x80 PUSH1 0x40 DUP2 DUP2 MSTORE PUSH1 0x4 SWAP2 DUP3 CALLDATASIZE LT ISZERO PUSH2 0x16 JUMPI PUSH1 0x0 DUP1 REVERT JUMPDEST PUSH1 0x0 SWAP1 DUP2 CALLDATALOAD PUSH1 0xE0 SHR SWAP1 DUP2 PUSH4 0x1E0ECCD8 EQ PUSH2 0x302 JUMPI POP PUSH4 0x2D2A9585 EQ PUSH2 0x3A JUMPI PUSH1 0x0 DUP1 REVERT JUMPDEST CALLVALUE PUSH2 0x2F7 JUMPI PUSH1 0x20 SWAP2 DUP3 PUSH1 0x3 NOT CALLDATASIZE ADD SLT PUSH2 0x2FE JUMPI PUSH8 0xFFFFFFFFFFFFFFFF DUP5 CALLDATALOAD DUP2 DUP2 GT PUSH2 0x2FA JUMPI CALLDATASIZE PUSH1 0x23 DUP3 ADD SLT ISZERO PUSH2 0x2FA JUMPI DUP1 DUP7 ADD CALLDATALOAD SWAP4 DUP3 DUP6 GT PUSH2 0x2F7 JUMPI PUSH1 0x24 DUP3 ADD SWAP2 PUSH1 0x24 DUP7 CALLDATASIZE SWAP3 ADD ADD GT PUSH2 0x2F7 JUMPI DUP1 SLOAD SWAP5 PUSH1 0x1 SWAP4 DUP5 DUP8 ADD DUP1 SWAP8 GT PUSH2 0x2E4 JUMPI DUP7 DUP4 SSTORE DUP6 MLOAD DUP7 DUP2 ADD DUP2 DUP2 LT DUP4 DUP3 GT OR PUSH2 0x2D1 JUMPI SWAP8 DUP10 SWAP11 DUP8 DUP10 SWAP11 SWAP4 DUP11 SWAP6 SWAP5 DUP5 SWAP14 SWAP12 MSTORE CALLER DUP2 MSTORE DUP2 DUP12 PUSH1 0x1F NOT SWAP6 PUSH2 0xD6 DUP8 PUSH1 0x1F DUP13 ADD AND SWAP15 DUP16 SWAP11 MLOAD SWAP11 ADD DUP11 PUSH2 0x45D JUMP JUMPDEST DUP10 DUP10 MSTORE DUP10 DUP13 DUP4 DUP12 ADD CALLDATACOPY DUP11 DUP3 DUP12 DUP12 ADD ADD MSTORE DUP2 DUP5 ADD SWAP9 DUP10 MSTORE DUP11 MSTORE MSTORE DUP12 DUP9 KECCAK256 SWAP1 PUSH1 0x1 DUP1 PUSH1 0xA0 SHL SUB SWAP1 MLOAD AND PUSH12 0xFFFFFFFFFFFFFFFFFFFFFFFF PUSH1 0xA0 SHL DUP3 SLOAD AND OR DUP2 SSTORE ADD SWAP4 MLOAD SWAP1 DUP2 MLOAD SWAP4 DUP5 GT PUSH2 0x2BE JUMPI POP SWAP2 DUP4 SWAP2 DUP12 SWAP8 SWAP7 SWAP6 SWAP4 DUP14 PUSH2 0x135 DUP14 SWAP8 SLOAD PUSH2 0x423 JUMP JUMPDEST PUSH1 0x1F DUP2 GT PUSH2 0x258 JUMPI JUMPDEST POP POP DUP14 SWAP2 PUSH1 0x1F DUP5 GT PUSH1 0x1 EQ PUSH2 0x1BD JUMPI POP PUSH32 0xD063C6022BFF16D09991A9F91882FFA112F5FB2529136F65EB4C77BBD047E43 SWAP9 SWAP10 DUP4 SWAP3 DUP4 SWAP3 DUP10 SWAP5 PUSH2 0x1B2 JUMPI JUMPDEST POP POP SHL SWAP2 PUSH1 0x0 NOT SWAP1 PUSH1 0x3 SHL SHR NOT AND OR SWAP1 SSTORE JUMPDEST DUP1 DUP3 MLOAD SWAP5 DUP12 DUP7 MSTORE DUP2 DUP13 DUP8 ADD MSTORE DUP4 DUP7 ADD CALLDATACOPY DUP4 ADD ADD MSTORE DUP5 DUP2 CALLER SWAP6 DUP2 ADD SUB ADD SWAP1 LOG3 MLOAD SWAP1 DUP2 MSTORE RETURN JUMPDEST ADD MLOAD SWAP3 POP CODESIZE DUP1 PUSH2 0x17C JUMP JUMPDEST SWAP2 DUP4 SWAP3 DUP16 SWAP3 SWAP12 SWAP5 AND SWAP11 DUP6 DUP10 MSTORE DUP3 DUP10 KECCAK256 SWAP3 DUP10 SWAP1 JUMPDEST DUP14 DUP3 LT PUSH2 0x229 JUMPI POP POP DUP4 PUSH32 0xD063C6022BFF16D09991A9F91882FFA112F5FB2529136F65EB4C77BBD047E43 SWAP12 SWAP13 LT PUSH2 0x210 JUMPI JUMPDEST POP POP POP DUP2 SHL ADD SWAP1 SSTORE PUSH2 0x18E JUMP JUMPDEST ADD MLOAD PUSH1 0x0 NOT PUSH1 0xF8 DUP5 PUSH1 0x3 SHL AND SHR NOT AND SWAP1 SSTORE CODESIZE DUP1 DUP1 PUSH2 0x203 JUMP JUMPDEST SWAP3 SWAP7 SWAP10 SWAP12 POP SWAP5 SWAP8 POP SWAP3 SWAP6 SWAP9 SWAP11 SWAP2 DUP2 DUP9 DUP2 SWAP3 DUP9 DUP8 ADD MLOAD DUP2 SSTORE ADD SWAP7 ADD SWAP5 ADD SWAP3 DUP15 SWAP11 SWAP9 SWAP6 SWAP3 SWAP12 SWAP10 SWAP7 SWAP4 DUP15 SWAP9 SWAP6 SWAP3 PUSH2 0x1D0 JUMP JUMPDEST SWAP2 SWAP4 SWAP6 SWAP8 DUP1 SWAP10 SWAP11 POP DUP6 SWAP8 POP SWAP5 SWAP1 SWAP3 SWAP5 MSTORE DUP2 DUP9 KECCAK256 SWAP1 PUSH1 0x1F DUP7 ADD PUSH1 0x5 SHR DUP3 ADD SWAP3 DUP7 LT PUSH2 0x2B4 JUMPI JUMPDEST SWAP2 DUP11 DUP15 SWAP11 SWAP10 SWAP9 SWAP7 SWAP5 SWAP3 PUSH1 0x1F DUP16 SWAP10 SWAP8 SWAP6 ADD PUSH1 0x5 SHR ADD SWAP2 JUMPDEST DUP3 DUP2 LT PUSH2 0x2A3 JUMPI POP DUP16 SWAP2 POP PUSH2 0x13E JUMP JUMPDEST DUP10 DUP2 SSTORE DUP16 SWAP12 POP DUP15 SWAP9 POP DUP13 SWAP2 ADD PUSH2 0x293 JUMP JUMPDEST SWAP1 SWAP2 POP DUP2 SWAP1 PUSH2 0x27D JUMP JUMPDEST PUSH4 0x4E487B71 PUSH1 0xE0 SHL DUP8 MSTORE PUSH1 0x41 SWAP1 MSTORE PUSH1 0x24 DUP7 REVERT JUMPDEST PUSH4 0x4E487B71 PUSH1 0xE0 SHL DUP6 MSTORE PUSH1 0x41 DUP12 MSTORE PUSH1 0x24 DUP6 REVERT JUMPDEST PUSH4 0x4E487B71 PUSH1 0xE0 SHL DUP4 MSTORE PUSH1 0x11 DUP10 MSTORE PUSH1 0x24 DUP4 REVERT JUMPDEST DUP1 REVERT JUMPDEST DUP4 DUP1 REVERT JUMPDEST POP DUP1 REVERT JUMPDEST SWAP4 SWAP1 POP CALLVALUE PUSH2 0x2FE JUMPI PUSH1 0x20 SWAP1 DUP2 PUSH1 0x3 NOT CALLDATASIZE ADD SLT PUSH2 0x41F JUMPI CALLDATALOAD DUP3 MSTORE PUSH1 0x1 DUP1 DUP3 MSTORE DUP4 DUP4 KECCAK256 DUP1 SLOAD SWAP1 DUP3 ADD DUP1 SLOAD PUSH1 0x1 PUSH1 0x1 PUSH1 0xA0 SHL SUB SWAP1 SWAP3 AND SWAP7 SWAP3 DUP4 SWAP2 DUP7 SWAP2 SWAP1 PUSH2 0x345 DUP6 PUSH2 0x423 JUMP JUMPDEST SWAP5 DUP6 DUP6 MSTORE DUP8 DUP4 DUP3 AND SWAP2 DUP3 PUSH1 0x0 EQ PUSH2 0x3FD JUMPI POP POP PUSH1 0x1 EQ PUSH2 0x3C1 JUMPI JUMPDEST POP POP PUSH2 0x374 SWAP3 POP SWAP7 SWAP5 SWAP3 SWAP6 SWAP4 SWAP7 SUB DUP6 PUSH2 0x45D JUMP JUMPDEST DUP2 MLOAD SWAP5 DUP6 SWAP4 DUP5 MSTORE DUP3 DUP2 DUP6 ADD MSTORE DUP5 MLOAD DUP1 SWAP4 DUP6 ADD MSTORE DUP2 JUMPDEST DUP4 DUP2 LT PUSH2 0x3AA JUMPI POP POP PUSH1 0x60 DUP1 SWAP5 POP DUP3 DUP5 ADD ADD MSTORE PUSH1 0x1F DUP1 NOT SWAP2 ADD AND DUP2 ADD SUB ADD SWAP1 RETURN JUMPDEST DUP1 DUP7 ADD DUP3 ADD MLOAD DUP8 DUP3 ADD PUSH1 0x60 ADD MSTORE DUP7 SWAP5 POP DUP2 ADD PUSH2 0x389 JUMP JUMPDEST DUP7 SWAP3 POP DUP8 MSTORE DUP2 DUP8 KECCAK256 SWAP1 DUP8 SWAP2 JUMPDEST DUP6 DUP4 LT PUSH2 0x3E5 JUMPI POP POP PUSH2 0x374 SWAP4 POP DUP3 ADD ADD CODESIZE DUP1 PUSH2 0x360 JUMP JUMPDEST DUP1 SLOAD DUP4 DUP9 ADD DUP6 ADD MSTORE DUP7 SWAP5 POP DUP8 SWAP4 SWAP1 SWAP3 ADD SWAP2 DUP2 ADD PUSH2 0x3CD JUMP JUMPDEST SWAP3 POP SWAP4 POP POP PUSH2 0x374 SWAP5 SWAP2 POP PUSH1 0xFF NOT AND DUP3 DUP5 ADD MSTORE ISZERO ISZERO PUSH1 0x5 SHL DUP3 ADD ADD CODESIZE DUP1 PUSH2 0x360 JUMP JUMPDEST DUP3 DUP1 REVERT JUMPDEST SWAP1 PUSH1 0x1 DUP3 DUP2 SHR SWAP3 AND DUP1 ISZERO PUSH2 0x453 JUMPI JUMPDEST PUSH1 0x20 DUP4 LT EQ PUSH2 0x43D JUMPI JUMP JUMPDEST PUSH4 0x4E487B71 PUSH1 0xE0 SHL PUSH1 0x0 MSTORE PUSH1 0x22 PUSH1 0x4 MSTORE PUSH1 0x24 PUSH1 0x0 REVERT JUMPDEST SWAP2 PUSH1 0x7F AND SWAP2 PUSH2 0x432 JUMP JUMPDEST SWAP1 PUSH1 0x1F DUP1 NOT SWAP2 ADD AND DUP2 ADD SWAP1 DUP2 LT PUSH8 0xFFFFFFFFFFFFFFFF DUP3 GT OR PUSH2 0x47F JUMPI PUSH1 0x40 MSTORE JUMP JUMPDEST PUSH4 0x4E487B71 PUSH1 0xE0 SHL PUSH1 0x0 MSTORE PUSH1 0x41 PUSH1 0x4 MSTORE PUSH1 0x24 PUSH1 0x0 REVERT INVALID LOG2 PUSH5 0x6970667358 0x22 SLT KECCAK256 KECCAK256 0x4F 0x24 PUSH11 0xD720405ED2FA094999EFD6 LOG0 INVALID 0x2E PUSH24 0x19F8C7B7E2823EBDF0DE35CEAA64736F6C63430008140033 "},"methodIdentifiers":{"agentIdentities(uint256)":"1e0eccd8","registerAgent(string)":"2d2a9585"}}}}}