{"contracts/AgentReputationRegistry.sol":{"AgentReputationRegistry":{"abi":[{"anonymous":false,"inputs":[{"indexed":true,"internalType":"uint256","name":"agentId","type":"uint256"},{"indexed":true,"internalType":"address","name":"rater","type":"address"},{"indexed":false,"internalType":"int8","name":"rating","type":"int8"},{"indexed":false,"internalType":"string","name":"metadataURI","type":"string"}],"name":"ReputationSubmitted","type":"event"},{"inputs":[{"internalType":"uint256","name":"agentId","type":"uint256"}],"name":"getReputation","outputs":[{"internalType":"int256","name":"score","type":"int256"},{"internalType":"uint256","name":"count","type":"uint256"}],"stateMutability":"view","type":"function"},{"inputs":[{"internalType":"uint256","name":"","type":"uint256"}],"name":"reputationByAgent","outputs":[{"internalType":"int256","name":"score","type":"int256"},{"internalType":"uint256","name":"count","type":"uint256"}],"stateMutability":"view","type":"function"},{"inputs":[{"internalType":"uint256","name":"agentId","type":"uint256"},{"internalType":"int8","name":"rating","type":"int8"},{"internalType":"string","name":"metadataURI","type":"string"}],"name":"submitReputation","outputs":[],"stateMutability":"nonpayable","type":"function"}],"evm":{"bytecode":{"linkReferences":{},"object":"6080806040523461001657610250908161001c8239f35b600080fdfe608060408181526004908136101561001657600080fd5b600092833560e01c9081634acdbf12146101e55750806389370d8b146101b45763a00121ff1461004557600080fd5b346101b05760603660031901126101b057813590602480359182860b8093036101ac576044359067ffffffffffffffff958683116101a857366023840112156101a857828101359687116101a857368488850101116101a8576004198512158061019d575b1561016657858852876020528188208054868101908a888312911290801582169115161761015457906001918155018054916001830180931161014257505580519384526020840181905283018590527fdbbb56ec55d3de668ac3e15b6401a12be81f356824c05282e96fd690fbb9070e9291859101606083013784606085830101526060813395601f80199101168101030190a380f35b634e487b7160e01b8a52601190528489fd5b634e487b7160e01b8a5260118352858afd5b6013846020606494519362461bcd60e51b855284015282015272526174696e67206f7574206f662072616e676560681b6044820152fd5b5060058513156100aa565b8780fd5b8580fd5b8280fd5b5090346101b05760203660031901126101b05791819235815280602052206001815491015482519182526020820152f35b9050838334610216576020366003190112610216579083913581528060205220600181549101549082526020820152f35b5080fdfea264697066735822122042e465dd085e78278f65e440fbd311f5ebbba1b7e85b3ad3ad516048825860f264736f6c63430008140033","opcodes":"PUSH1 0x80 DUP1 PUSH1 0x40 MSTORE CALLVALUE PUSH2 0x16 JUMPI PUSH2 0x250 SWAP1 DUP2 PUSH2 0x1C DUP3 CODECOPY RETURN JUMPDEST PUSH1 0x0 DUP1 REVERT INVALID PUSH1 0x80 PUSH1 0x40 DUP2 DUP2 MSTORE PUSH1 0x4 SWAP1 DUP2 CALLDATASIZE LT ISZERO PUSH2 0x16 JUMPI PUSH1 0x0 DUP1 REVERT JUMPDEST PUSH1 0x0 SWAP3 DUP4 CALLDATALOAD PUSH1 0xE0 SHR SWAP1 DUP2 PUSH4 0x4ACDBF12 EQ PUSH2 0x1E5 JUMPI POP DUP1 PUSH4 0x89370D8B EQ PUSH2 0x1B4 JUMPI PUSH4 0xA00121FF EQ PUSH2 0x45 JUMPI PUSH1 0x0 DUP1 REVERT JUMPDEST CALLVALUE PUSH2 0x1B0 JUMPI PUSH1 0x60 CALLDATASIZE PUSH1 0x3 NOT ADD SLT PUSH2 0x1B0 JUMPI DUP2 CALLDATALOAD SWAP1 PUSH1 0x24 DUP1 CALLDATALOAD SWAP2 DUP3 DUP7 SIGNEXTEND DUP1 SWAP4 SUB PUSH2 0x1AC JUMPI PUSH1 0x44 CALLDATALOAD SWAP1 PUSH8 0xFFFFFFFFFFFFFFFF SWAP6 DUP7 DUP4 GT PUSH2 0x1A8 JUMPI CALLDATASIZE PUSH1 0x23 DUP5 ADD SLT ISZERO PUSH2 0x1A8 JUMPI DUP3 DUP2 ADD CALLDATALOAD SWAP7 DUP8 GT PUSH2 0x1A8 JUMPI CALLDATASIZE DUP5 DUP9 DUP6 ADD ADD GT PUSH2 0x1A8 JUMPI PUSH1 0x4 NOT DUP6 SLT ISZERO DUP1 PUSH2 0x19D JUMPI JUMPDEST ISZERO PUSH2 0x166 JUMPI DUP6 DUP9 MSTORE DUP8 PUSH1 0x20 MSTORE DUP2 DUP9 KECCAK256 DUP1 SLOAD DUP7 DUP2 ADD SWAP1 DUP11 DUP9 DUP4 SLT SWAP2 SLT SWAP1 DUP1 ISZERO DUP3 AND SWAP2 ISZERO AND OR PUSH2 0x154 JUMPI SWAP1 PUSH1 0x1 SWAP2 DUP2 SSTORE ADD DUP1 SLOAD SWAP2 PUSH1 0x1 DUP4 ADD DUP1 SWAP4 GT PUSH2 0x142 JUMPI POP SSTORE DUP1 MLOAD SWAP4 DUP5 MSTORE PUSH1 0x20 DUP5 ADD DUP2 SWAP1 MSTORE DUP4 ADD DUP6 SWAP1 MSTORE PUSH32 0xDBBB56EC55D3DE668AC3E15B6401A12BE81F356824C05282E96FD690FBB9070E SWAP3 SWAP2 DUP6 SWAP2 ADD PUSH1 0x60 DUP4 ADD CALLDATACOPY DUP5 PUSH1 0x60 DUP6 DUP4 ADD ADD MSTORE PUSH1 0x60 DUP2 CALLER SWAP6 PUSH1 0x1F DUP1 NOT SWAP2 ADD AND DUP2 ADD SUB ADD SWAP1 LOG3 DUP1 RETURN JUMPDEST PUSH4 0x4E487B71 PUSH1 0xE0 SHL DUP11 MSTORE PUSH1 0x11 SWAP1 MSTORE DUP5 DUP10 REVERT JUMPDEST PUSH4 0x4E487B71 PUSH1 0xE0 SHL DUP11 MSTORE PUSH1 0x11 DUP4 MSTORE DUP6 DUP11 REVERT JUMPDEST PUSH1 0x13 DUP5 PUSH1 0x20 PUSH1 0x64 SWAP5 MLOAD SWAP4 PUSH3 0x461BCD PUSH1 0xE5 SHL DUP6 MSTORE DUP5 ADD MSTORE DUP3 ADD MSTORE PUSH19 0x526174696E67206F7574206F662072616E6765 PUSH1 0x68 SHL PUSH1 0x44 DUP3 ADD MSTORE REVERT JUMPDEST POP PUSH1 0x5 DUP6 SGT ISZERO PUSH2 0xAA JUMP JUMPDEST DUP8 DUP1 REVERT JUMPDEST DUP6 DUP1 REVERT JUMPDEST DUP3 DUP1 REVERT JUMPDEST POP SWAP1 CALLVALUE PUSH2 0x1B0 JUMPI PUSH1 0x20 CALLDATASIZE PUSH1 0x3 NOT ADD SLT PUSH2 0x1B0 JUMPI SWAP2 DUP2 SWAP3 CALLDATALOAD DUP2 MSTORE DUP1 PUSH1 0x20 MSTORE KECCAK256 PUSH1 0x1 DUP2 SLOAD SWAP2 ADD SLOAD DUP3 MLOAD SWAP2 DUP3 MSTORE PUSH1 0x20 DUP3 ADD MSTORE RETURN JUMPDEST SWAP1 POP DUP4 DUP4 CALLVALUE PUSH2 0x216 JUMPI PUSH1 0x20 CALLDATASIZE PUSH1 0x3 NOT ADD SLT PUSH2 0x216 JUMPI SWAP1 DUP4 SWAP2 CALLDATALOAD DUP2 MSTORE DUP1 PUSH1 0x20 MSTORE KECCAK256 PUSH1 0x1 DUP2 SLOAD SWAP2 ADD SLOAD SWAP1 DUP3 MSTORE PUSH1 0x20 DUP3 ADD MSTORE RETURN JUMPDEST POP DUP1 REVERT INVALID LOG2 PUSH5 0x6970667358 0x22 SLT KECCAK256 TIMESTAMP 0xE4 PUSH6 0xDD085E78278F PUSH6 0xE440FBD311F5 0xEB 0xBB LOG1 0xB7 0xE8 JUMPDEST GASPRICE 0xD3 0xAD MLOAD PUSH1 0x48 DUP3 PC PUSH1 0xF2 PUSH5 0x736F6C6343 STOP ADDMOD EQ STOP CALLER "},"methodIdentifiers":{"getReputation(uint256)":"89370d8b","reputationByAgent(uint256)":"4acdbf12","submitReputation(uint256,int8,string)":"a00121ff"}}}}}