{"contracts/FreelancePay.sol":{"FreelancePay":{"abi":[{"inputs":[{"internalType":"address","name":"_stablecoin","type":"address"},{"internalType":"address","name":"_aiAgent","type":"address"}],"stateMutability":"nonpayable","type":"constructor"},{"anonymous":false,"inputs":[{"indexed":true,"internalType":"uint256","name":"jobId","type":"uint256"},{"indexed":false,"internalType":"bool","name":"approved","type":"bool"}],"name":"DisputeResolved","type":"event"},{"anonymous":false,"inputs":[{"indexed":true,"internalType":"uint256","name":"jobId","type":"uint256"},{"indexed":true,"internalType":"address","name":"client","type":"address"},{"indexed":false,"internalType":"uint256","name":"budget","type":"uint256"},{"indexed":false,"internalType":"string","name":"title","type":"string"}],"name":"JobCreated","type":"event"},{"anonymous":false,"inputs":[{"indexed":true,"internalType":"uint256","name":"jobId","type":"uint256"}],"name":"JobDisputed","type":"event"},{"anonymous":false,"inputs":[{"indexed":true,"internalType":"uint256","name":"jobId","type":"uint256"},{"indexed":true,"internalType":"address","name":"freelancer","type":"address"}],"name":"JobSubmitted","type":"event"},{"anonymous":false,"inputs":[{"indexed":true,"internalType":"uint256","name":"jobId","type":"uint256"},{"indexed":false,"internalType":"uint256","name":"index","type":"uint256"},{"indexed":false,"internalType":"uint256","name":"amount","type":"uint256"}],"name":"MilestoneAdded","type":"event"},{"anonymous":false,"inputs":[{"indexed":true,"internalType":"uint256","name":"jobId","type":"uint256"},{"indexed":false,"internalType":"uint256","name":"index","type":"uint256"}],"name":"MilestoneApproved","type":"event"},{"anonymous":false,"inputs":[{"indexed":true,"internalType":"uint256","name":"jobId","type":"uint256"},{"indexed":false,"internalType":"uint256","name":"index","type":"uint256"},{"indexed":false,"internalType":"uint256","name":"amount","type":"uint256"}],"name":"MilestonePaid","type":"event"},{"anonymous":false,"inputs":[{"indexed":true,"internalType":"uint256","name":"jobId","type":"uint256"},{"indexed":false,"internalType":"uint256","name":"index","type":"uint256"}],"name":"MilestoneSubmitted","type":"event"},{"anonymous":false,"inputs":[{"indexed":true,"internalType":"uint256","name":"jobId","type":"uint256"},{"indexed":true,"internalType":"address","name":"freelancer","type":"address"}],"name":"PaymentReleased","type":"event"},{"inputs":[{"internalType":"uint256","name":"_jobId","type":"uint256"}],"name":"acceptJob","outputs":[],"stateMutability":"nonpayable","type":"function"},{"inputs":[],"name":"aiAgent","outputs":[{"internalType":"address","name":"","type":"address"}],"stateMutability":"view","type":"function"},{"inputs":[{"internalType":"uint256","name":"_jobId","type":"uint256"}],"name":"approveMilestone","outputs":[],"stateMutability":"nonpayable","type":"function"},{"inputs":[{"internalType":"address","name":"","type":"address"},{"internalType":"uint256","name":"","type":"uint256"}],"name":"clientJobs","outputs":[{"internalType":"uint256","name":"","type":"uint256"}],"stateMutability":"view","type":"function"},{"inputs":[{"internalType":"address","name":"","type":"address"},{"internalType":"uint256","name":"","type":"uint256"}],"name":"freelancerJobs","outputs":[{"internalType":"uint256","name":"","type":"uint256"}],"stateMutability":"view","type":"function"},{"inputs":[{"internalType":"address","name":"_client","type":"address"}],"name":"getClientJobs","outputs":[{"internalType":"uint256[]","name":"","type":"uint256[]"}],"stateMutability":"view","type":"function"},{"inputs":[{"internalType":"address","name":"_freelancer","type":"address"}],"name":"getFreelancerJobs","outputs":[{"internalType":"uint256[]","name":"","type":"uint256[]"}],"stateMutability":"view","type":"function"},{"inputs":[{"internalType":"uint256","name":"_jobId","type":"uint256"}],"name":"getJob","outputs":[{"components":[{"internalType":"uint256","name":"id","type":"uint256"},{"internalType":"address","name":"client","type":"address"},{"internalType":"address","name":"freelancer","type":"address"},{"internalType":"uint256","name":"budget","type":"uint256"},{"internalType":"string","name":"title","type":"string"},{"internalType":"string","name":"description","type":"string"},{"internalType":"enum FreelancePay.JobStatus","name":"status","type":"uint8"},{"internalType":"uint256","name":"submissionTime","type":"uint256"},{"internalType":"bool","name":"aiJudgmentMade","type":"bool"},{"internalType":"bool","name":"paymentReleased","type":"bool"},{"internalType":"uint256","name":"milestoneCount","type":"uint256"},{"internalType":"uint256","name":"currentMilestone","type":"uint256"},{"internalType":"uint256","name":"escrowRemaining","type":"uint256"}],"internalType":"struct FreelancePay.Job","name":"","type":"tuple"}],"stateMutability":"view","type":"function"},{"inputs":[{"internalType":"uint256","name":"_jobId","type":"uint256"},{"internalType":"uint256","name":"_index","type":"uint256"}],"name":"getMilestone","outputs":[{"components":[{"internalType":"uint256","name":"amount","type":"uint256"},{"internalType":"bool","name":"submitted","type":"bool"},{"internalType":"bool","name":"approved","type":"bool"},{"internalType":"bool","name":"released","type":"bool"}],"internalType":"struct FreelancePay.Milestone","name":"","type":"tuple"}],"stateMutability":"view","type":"function"},{"inputs":[{"internalType":"uint256","name":"_jobId","type":"uint256"}],"name":"getMilestoneCount","outputs":[{"internalType":"uint256","name":"","type":"uint256"}],"stateMutability":"view","type":"function"},{"inputs":[],"name":"jobCounter","outputs":[{"internalType":"uint256","name":"","type":"uint256"}],"stateMutability":"view","type":"function"},{"inputs":[{"internalType":"uint256","name":"","type":"uint256"}],"name":"jobs","outputs":[{"internalType":"uint256","name":"id","type":"uint256"},{"internalType":"address","name":"client","type":"address"},{"internalType":"address","name":"freelancer","type":"address"},{"internalType":"uint256","name":"budget","type":"uint256"},{"internalType":"string","name":"title","type":"string"},{"internalType":"string","name":"description","type":"string"},{"internalType":"enum FreelancePay.JobStatus","name":"status","type":"uint8"},{"internalType":"uint256","name":"submissionTime","type":"uint256"},{"internalType":"bool","name":"aiJudgmentMade","type":"bool"},{"internalType":"bool","name":"paymentReleased","type":"bool"},{"internalType":"uint256","name":"milestoneCount","type":"uint256"},{"internalType":"uint256","name":"currentMilestone","type":"uint256"},{"internalType":"uint256","name":"escrowRemaining","type":"uint256"}],"stateMutability":"view","type":"function"},{"inputs":[],"name":"owner","outputs":[{"internalType":"address","name":"","type":"address"}],"stateMutability":"view","type":"function"},{"inputs":[{"internalType":"string","name":"_title","type":"string"},{"internalType":"string","name":"_description","type":"string"},{"internalType":"uint256","name":"_budget","type":"uint256"}],"name":"postJob","outputs":[{"internalType":"uint256","name":"","type":"uint256"}],"stateMutability":"nonpayable","type":"function"},{"inputs":[{"internalType":"string","name":"_title","type":"string"},{"internalType":"string","name":"_description","type":"string"},{"internalType":"uint256[]","name":"_milestones","type":"uint256[]"}],"name":"postJobWithMilestones","outputs":[{"internalType":"uint256","name":"","type":"uint256"}],"stateMutability":"nonpayable","type":"function"},{"inputs":[{"internalType":"uint256","name":"_jobId","type":"uint256"}],"name":"refundClient","outputs":[],"stateMutability":"nonpayable","type":"function"},{"inputs":[{"internalType":"uint256","name":"_jobId","type":"uint256"},{"internalType":"bool","name":"_approved","type":"bool"}],"name":"resolveDispute","outputs":[],"stateMutability":"nonpayable","type":"function"},{"inputs":[{"internalType":"address","name":"_newAgent","type":"address"}],"name":"setAIAgent","outputs":[],"stateMutability":"nonpayable","type":"function"},{"inputs":[],"name":"stablecoin","outputs":[{"internalType":"contract IERC20","name":"","type":"address"}],"stateMutability":"view","type":"function"},{"inputs":[{"internalType":"uint256","name":"_jobId","type":"uint256"}],"name":"submitMilestone","outputs":[],"stateMutability":"nonpayable","type":"function"},{"inputs":[{"internalType":"uint256","name":"_jobId","type":"uint256"}],"name":"submitWork","outputs":[],"stateMutability":"nonpayable","type":"function"}],"evm":{"bytecode":{"linkReferences":{},"object":"608034620000a157601f620022b838819003918201601f19168301916001600160401b03831184841017620000a6578084926040948552833981010312620000a1576200005a60206200005283620000bc565b9201620000bc565b600080546001600160a01b03199081166001600160a01b03948516179091556001805482163317905560028054909116919092161790556040516121e69081620000d28239f35b600080fd5b634e487b7160e01b600052604160045260246000fd5b51906001600160a01b0382168203620000a15756fe6080604052600436101561001257600080fd5b60003560e01c806305be0478146112e0578063180aedf3146111df57806334b25ee21461108057806340f70be41461100857806343eed51c14610e48578063442f5c8814610dfe57806350355d7614610de05780635c3b9c4a1461082657806363b2f3c91461072d5780636ebe941b146106ac5780637d64b00b146101b95780638da5cb5b146106835780638ed9895c146105855780638facd8591461052d578063a6d5b73214610504578063bf22c457146102f7578063c2010e50146102c8578063c438b40f146101be578063c4c11523146101b9578063cf2646c2146101315763e9cbd8221461010357600080fd5b3461012c57600036600319011261012c576000546040516001600160a01b039091168152602090f35b600080fd5b3461012c5760208060031936011261012c576001600160a01b03610153611b3f565b1660005260068152604060002090604051908181845491828152019360005281600020916000905b8282106101a25761019e856101928189038261199b565b60405191829182611b55565b0390f35b83548652948501946001938401939091019061017b565b611bbe565b3461012c57602036600319011261012c57600435806000526004602052604060002060018060a01b0360018201541633036102835760ff60068201541690600682101561026d576102136002600a9314611f22565b61021c81611f6e565b015460001981019081116102575760207f939da3b627c123c81fe5aacebf925163337a0d4f8a03724640618078cad2489491604051908152a2005b634e487b7160e01b600052601160045260246000fd5b634e487b7160e01b600052602160045260246000fd5b60405162461bcd60e51b815260206004820152601760248201527f4f6e6c7920636c69656e742063616e20617070726f76650000000000000000006044820152606490fd5b3461012c57602036600319011261012c5760043560005260046020526020600960406000200154604051908152f35b3461012c57602036600319011261012c57600061018060405161031981611964565b82815282602082015282604082015282606082015260606080820152606060a08201528260c08201528260e0820152826101008201528261012082015282610140820152826101608201520152600435600052600460205260406000206040519061038382611964565b8054825260018101546001600160a01b0390811660208401526002820154166040830152600381015460608301526103bd60048201611a4c565b60808301526103ce60058201611a4c565b60a083015260ff60068201541690600682101561026d57600b9160c0840152600781015460e084015260ff6008820154818116151561010086015260081c1615156101208401526009810154610140840152600a81015461016084015201546101808201526040518091602082528051602083015260018060a01b03602082015116604083015260018060a01b0360408201511660608301526060810151608083015260808101516101806104aa6104946101a0938460a08801526101c0870190611af2565b60a0850151868203601f190160c0880152611af2565b926104bd60c082015160e0870190611b32565b60e081015161010086015261010081015115156101208601526101208101511515610140860152610140810151610160860152610160810151828601520151908301520390f35b3461012c57600036600319011261012c576002546040516001600160a01b039091168152602090f35b3461012c57604036600319011261012c57610546611b3f565b6001600160a01b031660009081526006602052604090208054602435919082101561012c5760209161057791611b90565b90546040519160031b1c8152f35b3461012c57604036600319011261012c57604051602435906004356105a982611980565b600082526000606060209382858201528260408201520152806000526005825260406000205483101561064e576080926105ee91600052600583526040600020611de0565b50906040516105fc81611980565b600183549384835201549180820160ff84161515815260ff60606040850194828760081c1615158652019460101c16151584526040519485525115159084015251151560408301525115156060820152f35b60405162461bcd60e51b815260048101839052600d60248201526c092dcecc2d8d2c840d2dcc8caf609b1b6044820152606490fd5b3461012c57600036600319011261012c576001546040516001600160a01b039091168152602090f35b3461012c57602036600319011261012c576106c5611b3f565b6001546001600160a01b039190821633036106f357166001600160601b0360a01b6002541617600255600080f35b60405162461bcd60e51b815260206004820152601260248201527113db9b1e481bdddb995c88185b1b1bddd95960721b6044820152606490fd5b3461012c57602036600319011261012c576004358060005260046020526040600020906006820180549260ff8416600681101561026d576107ed57600201805490936001600160a01b0382166107b1576107af9460019233906001600160601b0360a01b1617905560ff19161790553360005260076020526040600020611e8d565b005b60405162461bcd60e51b8152602060048201526014602482015273129bd888185b1c9958591e481858d8d95c1d195960621b6044820152606490fd5b60405162461bcd60e51b81526020600482015260116024820152704a6f62206e6f7420617661696c61626c6560781b6044820152606490fd5b3461012c57606036600319011261012c576004356001600160401b03811161012c576108569036906004016119bc565b6024356001600160401b03811161012c576108759036906004016119bc565b9060443515610d9b57600080546040516323b872dd60e01b815233600482015230602482015260448035908201529160209183916064918391906001600160a01b03165af18015610d8f576108d291600091610d60575b50611d7b565b6108dd600354611db9565b9081600355604051926108ef84611964565b82845233602085015260006040850152604435606085015281608085015260a0840152600060c0840152600060e084015260006101008401526000610120840152600161014084015260006101608401526044356101808401528160005260046020526040600020835181556001810160018060a01b03602086015116906001600160601b0360a01b9182825416179055600282019060018060a01b03604087015116908254161790556060840151600382015560808401518051906001600160401b038211610c7f5781906109c86004850154611a12565b601f8111610d0d575b50602090601f8311600114610ca057600092610c95575b50508160011b916000199060031b1c19161760048201555b60a08401518051906001600160401b038211610c7f578190610a256005850154611a12565b601f8111610c2c575b50602090601f8311600114610bbf57600092610bb4575b50508160011b916000199060031b1c19161760058201555b60c084015193600685101561026d57610180600b91610a8160209760068601611dc8565b60e08101516007850155610acb60088501610aaf6101008401511515829060ff801983541691151516179055565b610120830151815461ff00191690151560081b61ff0016179055565b6101408101516009850155610160810151600a85015501519101558160005260058352610b21604060002060405190610b0382611980565b60443582526000868301526000604083015260006060830152611dfc565b817f99c090ea4e24c09baf74da49bf4100be7de555b972b1e6e4f495989738093d79604080516000815260443587820152a23360005260068352610b69826040600020611e8d565b817f6f3a5227c058380f6d30b3c63e04e4b049f2df6d1780f11e4ff1b3e9728a3652604051604435815260408682015280610ba933956040830190611af2565b0390a3604051908152f35b015190508680610a45565b600585016000908152602081209350601f198516905b818110610c145750908460019594939210610bfb575b505050811b016005820155610a5d565b015160001960f88460031b161c19169055868080610beb565b92936020600181928786015181550195019301610bd5565b909150600584016000526020600020601f840160051c810160208510610c78575b90849392915b601f830160051c82018110610c69575050610a2e565b60008155859450600101610c53565b5080610c4d565b634e487b7160e01b600052604160045260246000fd5b0151905086806109e8565b600485016000908152602081209350601f198516905b818110610cf55750908460019594939210610cdc575b505050811b016004820155610a00565b015160001960f88460031b161c19169055868080610ccc565b92936020600181928786015181550195019301610cb6565b909150600484016000526020600020601f840160051c810160208510610d59575b90849392915b601f830160051c82018110610d4a5750506109d1565b60008155859450600101610d34565b5080610d2e565b610d82915060203d602011610d88575b610d7a818361199b565b810190611d63565b846108cc565b503d610d70565b6040513d6000823e3d90fd5b60405162461bcd60e51b815260206004820152601d60248201527f427564676574206d7573742062652067726561746572207468616e20300000006044820152606490fd5b3461012c57600036600319011261012c576020600354604051908152f35b3461012c57604036600319011261012c57610e17611b3f565b6001600160a01b031660009081526007602052604090208054602435919082101561012c5760209161057791611b90565b3461012c5760208060031936011261012c576004356000526004815260406000209060018060a01b039182600182015416803303610fca57600682019384549260ff8416600681101561026d57600403610f9257600b01948554938415610f575760ff191660051790556000805460405163a9059cbb60e01b81526001600160a01b039490941660048501526024840194909452919284928492604492849291165af1908115610d8f57600091610f3a575b5015610f065760008255005b6064906040519062461bcd60e51b82526004820152600d60248201526c1499599d5b990819985a5b1959609a1b6044820152fd5b610f519150823d8411610d8857610d7a818361199b565b83610efa565b60405162461bcd60e51b81526004810187905260136024820152724e6f20657363726f772072656d61696e696e6760681b6044820152606490fd5b60405162461bcd60e51b815260048101869052601060248201526f129bd8881b9bdd08191a5cdc1d5d195960821b6044820152606490fd5b60405162461bcd60e51b815260048101849052601660248201527513db9b1e4818db1a595b9d0818d85b881c99599d5b9960521b6044820152606490fd5b3461012c5760208060031936011261012c576001600160a01b0361102a611b3f565b1660005260078152604060002090604051908181845491828152019360005281600020916000905b8282106110695761019e856101928189038261199b565b835486529485019460019384019390910190611052565b3461012c57604036600319011261012c57600435602435801515810361012c576002546001600160a01b031633036111a25781600052600460205260406000206006810191825460ff8116600681101561026d576002036111685760088301805460ff199081166001179091559115611133575091600361110693825416179055611f6e565b7f5a87909bff68caaaaf0b3fd9c74eeccc928832f879315e5c6fb7a73612f26c0c602060405160018152a2005b60049250161790557f5a87909bff68caaaaf0b3fd9c74eeccc928832f879315e5c6fb7a73612f26c0c602060405160008152a2005b60405162461bcd60e51b8152602060048201526012602482015271496e76616c6964206a6f622073746174757360701b6044820152606490fd5b60405162461bcd60e51b815260206004820152601560248201527413db9b1e481052481859d95b9d08185b1b1bddd959605a1b6044820152606490fd5b3461012c57602036600319011261012c57600435600052600460205260406000208054600160a01b600190039182600182015416926002820154166003820154916004810161122d90611a4c565b9261123a60058301611a4c565b93600683015460ff1694600784015490600885015492600986015494600a87015496600b0154976040519b8c9b8c5260208c015260408b015260608a01526101a08060808b0152890161128c91611af2565b88810360a08a015261129d91611af2565b9560c088016112ab91611b32565b60e087015260ff8116151561010087015260081c60ff1615156101208601526101408501526101608401526101808301520390f35b3461012c57606036600319011261012c576004356001600160401b03811161012c576113109036906004016119bc565b6024356001600160401b03811161012c5761132f9036906004016119bc565b60448035906001600160401b03821161012c573660238301121561012c578160040135916001600160401b038311610c7f578260051b60405193611376602083018661199b565b8452602460208501918301019136831161012c57602401905b8282106119545750505081511561191a57600093845b835186101561141e576113b88685611ec2565b51156113e2576113c88685611ec2565b518101809111610257576113dc9095611db9565b946113a5565b60405162461bcd60e51b815260206004820152601560248201527404d696c6573746f6e65206d757374206265203e203605c1b81850152606490fd5b600080546040516323b872dd60e01b81523360048201523060248201526044810184905292939287928792602091839160649183916001600160a01b03165af18015610d8f57611475916000916118fb5750611d7b565b611480600354611db9565b918260035581516040519161149483611964565b8483523360208401526000604084015286606084015285608084015260a0830152600060c0830152600060e083015260006101008301526000610120830152610140820152600061016082015284610180820152826000526004602052604060002090805182556001820160018060a01b03602083015116906001600160601b0360a01b9182825416179055600283019060018060a01b03604084015116908254161790556060810151600383015560808101518051906001600160401b038211610c7f5781906115686004860154611a12565b601f81116118a8575b50602090601f83116001146118365760009261182b575b50508160011b916000199060031b1c19161760048301555b60a08101518051906001600160401b038211610c7f5781906115c56005860154611a12565b601f81116117d8575b50602090601f83116001146117665760009261175b575b50508160011b916000199060031b1c19161760058301555b60c0810151600681101561026d57600b9161161e6101809260068601611dc8565b60e0810151600785015561164c60088501610aaf6101008401511515829060ff801983541691151516179055565b6101408101516009850155610160810151600a850155015191015560005b8151811015611702576116fd908360005260056020526116bd60406000206116928386611ec2565b5190604051916116a183611980565b8252600060208301526000604083015260006060830152611dfc565b837f99c090ea4e24c09baf74da49bf4100be7de555b972b1e6e4f495989738093d7960406116eb8487611ec2565b518151908582526020820152a2611db9565b61166a565b60208385817f6f3a5227c058380f6d30b3c63e04e4b049f2df6d1780f11e4ff1b3e9728a365289336000526006865261173f836040600020611e8d565b60405190815260408682015280610ba933956040830190611af2565b0151905088806115e5565b9250600585016000526020600020906000935b601f19841685106117bd576001945083601f198116106117a4575b505050811b0160058301556115fd565b015160001960f88460031b161c19169055888080611794565b81810151835560209485019460019093019290910190611779565b909150600585016000526020600020601f840160051c810160208510611824575b90849392915b601f830160051c820181106118155750506115ce565b600081558594506001016117ff565b50806117f9565b015190508880611588565b9250600485016000526020600020906000935b601f198416851061188d576001945083601f19811610611874575b505050811b0160048301556115a0565b015160001960f88460031b161c19169055888080611864565b81810151835560209485019460019093019290910190611849565b909150600485016000526020600020601f840160051c8101602085106118f4575b90849392915b601f830160051c820181106118e5575050611571565b600081558594506001016118cf565b50806118c9565b611914915060203d602011610d8857610d7a818361199b565b866108cc565b60649072135a5b195cdd1bdb995cc81c995c5d5a5c9959606a1b6040519162461bcd60e51b83526020600484015260136024840152820152fd5b813581526020918201910161138f565b6101a081019081106001600160401b03821117610c7f57604052565b608081019081106001600160401b03821117610c7f57604052565b90601f801991011681019081106001600160401b03821117610c7f57604052565b81601f8201121561012c578035906001600160401b038211610c7f57604051926119f0601f8401601f19166020018561199b565b8284526020838301011161012c57816000926020809301838601378301015290565b90600182811c92168015611a42575b6020831014611a2c57565b634e487b7160e01b600052602260045260246000fd5b91607f1691611a21565b9060405191826000825492611a6084611a12565b908184526001948581169081600014611acf5750600114611a8c575b5050611a8a9250038361199b565b565b9093915060005260209081600020936000915b818310611ab7575050611a8a93508201013880611a7c565b85548884018501529485019487945091830191611a9f565b915050611a8a94506020925060ff191682840152151560051b8201013880611a7c565b919082519283825260005b848110611b1e575050826000602080949584010152601f8019910116010190565b602081830181015184830182015201611afd565b90600682101561026d5752565b600435906001600160a01b038216820361012c57565b6020908160408183019282815285518094520193019160005b828110611b7c575050505090565b835185529381019392810192600101611b6e565b8054821015611ba85760005260206000200190600090565b634e487b7160e01b600052603260045260246000fd5b3461012c5760208060031936011261012c576004906000908235825282815260409081832060018060a01b036002820154163303611d2057600681019060ff8254166006811015611d0d57600103611cd457600a81015491611c2560098301548410611ed6565b81548652600584526001611c3b84878920611de0565b500180549760ff8916611c9157507f26cf581e2709e0615164af15a371b2dd10fb48d5baed91e9eacd557633c16bcb959697600291600160ff19809316179055825416179055426007820155549351908152a280f35b865162461bcd60e51b8152908101869052601b60248201527f4d696c6573746f6e6520616c7265616479207375626d697474656400000000006044820152606490fd5b835162461bcd60e51b815280870184905260136024820152724a6f62206e6f7420696e2070726f677265737360681b6044820152606490fd5b634e487b7160e01b865260218752602486fd5b825162461bcd60e51b8152808601839052601b60248201527f4e6f74207468652061737369676e656420667265656c616e63657200000000006044820152606490fd5b9081602091031261012c5751801515810361012c5790565b15611d8257565b60405162461bcd60e51b815260206004820152600f60248201526e151c985b9cd9995c8819985a5b1959608a1b6044820152606490fd5b60001981146102575760010190565b90600681101561026d5760ff80198354169116179055565b8054821015611ba85760005260206000209060011b0190600090565b8054600160401b811015610c7f57611e1991600182018155611de0565b611e77576001606091835181550191611e4460208201511515849060ff801983541691151516179055565b6040810151835461ff00191690151560081b61ff00161783550151815462ff0000191690151560101b62ff000016179055565b634e487b7160e01b600052600060045260246000fd5b8054600160401b811015610c7f57611eaa91600182018155611b90565b819291549060031b91821b91600019901b1916179055565b8051821015611ba85760209160051b010190565b15611edd57565b60405162461bcd60e51b815260206004820152601760248201527f416c6c206d696c6573746f6e657320636f6d706c6574650000000000000000006044820152606490fd5b15611f2957565b60405162461bcd60e51b815260206004820152601760248201527f4d696c6573746f6e65206e6f74207375626d69747465640000000000000000006044820152606490fd5b600a81019081546009820191611f8683548310611ed6565b8054936000948552602093600585526040611fa385828920611de0565b5090600182018054611fb760ff8216611f22565b60ff8160101c166121735762ffff001916620101001790558154600b8601805491820391821161215f575587546002860180548454845163a9059cbb60e01b81526001600160a01b039283166004820152602481019190915291999098929091908290829060449082908f908e165af1908115612155578b91612138575b50156120f557865493548351928352908201527fafc8fc5dd6037bf38d34d9d51bb5ecc0af143248332c63ae9e83bbef6d4638d99190a2815491600183018093116120e15782905554116120ce5760088101805461ff00191661010017905560068101805460ff1916600517905554915416917f4156924bd7e340b19303af17bf5323d66fae5dc16f350319092e0839c85436839080a3565b600601805460ff19166001179055505050565b634e487b7160e01b87526011600452602487fd5b60649083519062461bcd60e51b82526004820152601760248201527f5061796d656e74207472616e73666572206661696c65640000000000000000006044820152fd5b61214f9150823d8411610d8857610d7a818361199b565b38612035565b84513d8d823e3d90fd5b634e487b7160e01b8a52601160045260248afd5b825162461bcd60e51b8152600481018a90526016602482015275135a5b195cdd1bdb9948185b1c9958591e481c185a5960521b6044820152606490fdfea2646970667358221220db5512fc3b2dd6c61a911492c09b53c05b512f65cab9e3293a97ed17061b0fd964736f6c63430008140033","opcodes":"PUSH1 0x80 CALLVALUE PUSH3 0xA1 JUMPI PUSH1 0x1F PUSH3 0x22B8 CODESIZE DUP2 SWAP1 SUB SWAP2 DUP3 ADD PUSH1 0x1F NOT AND DUP4 ADD SWAP2 PUSH1 0x1 PUSH1 0x1 PUSH1 0x40 SHL SUB DUP4 GT DUP5 DUP5 LT OR PUSH3 0xA6 JUMPI DUP1 DUP5 SWAP3 PUSH1 0x40 SWAP5 DUP6 MSTORE DUP4 CODECOPY DUP2 ADD SUB SLT PUSH3 0xA1 JUMPI PUSH3 0x5A PUSH1 0x20 PUSH3 0x52 DUP4 PUSH3 0xBC JUMP JUMPDEST SWAP3 ADD PUSH3 0xBC JUMP JUMPDEST PUSH1 0x0 DUP1 SLOAD PUSH1 0x1 PUSH1 0x1 PUSH1 0xA0 SHL SUB NOT SWAP1 DUP2 AND PUSH1 0x1 PUSH1 0x1 PUSH1 0xA0 SHL SUB SWAP5 DUP6 AND OR SWAP1 SWAP2 SSTORE PUSH1 0x1 DUP1 SLOAD DUP3 AND CALLER OR SWAP1 SSTORE PUSH1 0x2 DUP1 SLOAD SWAP1 SWAP2 AND SWAP2 SWAP1 SWAP3 AND OR SWAP1 SSTORE PUSH1 0x40 MLOAD PUSH2 0x21E6 SWAP1 DUP2 PUSH3 0xD2 DUP3 CODECOPY RETURN JUMPDEST PUSH1 0x0 DUP1 REVERT JUMPDEST PUSH4 0x4E487B71 PUSH1 0xE0 SHL PUSH1 0x0 MSTORE PUSH1 0x41 PUSH1 0x4 MSTORE PUSH1 0x24 PUSH1 0x0 REVERT JUMPDEST MLOAD SWAP1 PUSH1 0x1 PUSH1 0x1 PUSH1 0xA0 SHL SUB DUP3 AND DUP3 SUB PUSH3 0xA1 JUMPI JUMP INVALID PUSH1 0x80 PUSH1 0x40 MSTORE PUSH1 0x4 CALLDATASIZE LT ISZERO PUSH2 0x12 JUMPI PUSH1 0x0 DUP1 REVERT JUMPDEST PUSH1 0x0 CALLDATALOAD PUSH1 0xE0 SHR DUP1 PUSH4 0x5BE0478 EQ PUSH2 0x12E0 JUMPI DUP1 PUSH4 0x180AEDF3 EQ PUSH2 0x11DF JUMPI DUP1 PUSH4 0x34B25EE2 EQ PUSH2 0x1080 JUMPI DUP1 PUSH4 0x40F70BE4 EQ PUSH2 0x1008 JUMPI DUP1 PUSH4 0x43EED51C EQ PUSH2 0xE48 JUMPI DUP1 PUSH4 0x442F5C88 EQ PUSH2 0xDFE JUMPI DUP1 PUSH4 0x50355D76 EQ PUSH2 0xDE0 JUMPI DUP1 PUSH4 0x5C3B9C4A EQ PUSH2 0x826 JUMPI DUP1 PUSH4 0x63B2F3C9 EQ PUSH2 0x72D JUMPI DUP1 PUSH4 0x6EBE941B EQ PUSH2 0x6AC JUMPI DUP1 PUSH4 0x7D64B00B EQ PUSH2 0x1B9 JUMPI DUP1 PUSH4 0x8DA5CB5B EQ PUSH2 0x683 JUMPI DUP1 PUSH4 0x8ED9895C EQ PUSH2 0x585 JUMPI DUP1 PUSH4 0x8FACD859 EQ PUSH2 0x52D JUMPI DUP1 PUSH4 0xA6D5B732 EQ PUSH2 0x504 JUMPI DUP1 PUSH4 0xBF22C457 EQ PUSH2 0x2F7 JUMPI DUP1 PUSH4 0xC2010E50 EQ PUSH2 0x2C8 JUMPI DUP1 PUSH4 0xC438B40F EQ PUSH2 0x1BE JUMPI DUP1 PUSH4 0xC4C11523 EQ PUSH2 0x1B9 JUMPI DUP1 PUSH4 0xCF2646C2 EQ PUSH2 0x131 JUMPI PUSH4 0xE9CBD822 EQ PUSH2 0x103 JUMPI PUSH1 0x0 DUP1 REVERT JUMPDEST CALLVALUE PUSH2 0x12C JUMPI PUSH1 0x0 CALLDATASIZE PUSH1 0x3 NOT ADD SLT PUSH2 0x12C JUMPI PUSH1 0x0 SLOAD PUSH1 0x40 MLOAD PUSH1 0x1 PUSH1 0x1 PUSH1 0xA0 SHL SUB SWAP1 SWAP2 AND DUP2 MSTORE PUSH1 0x20 SWAP1 RETURN JUMPDEST PUSH1 0x0 DUP1 REVERT JUMPDEST CALLVALUE PUSH2 0x12C JUMPI PUSH1 0x20 DUP1 PUSH1 0x3 NOT CALLDATASIZE ADD SLT PUSH2 0x12C JUMPI PUSH1 0x1 PUSH1 0x1 PUSH1 0xA0 SHL SUB PUSH2 0x153 PUSH2 0x1B3F JUMP JUMPDEST AND PUSH1 0x0 MSTORE PUSH1 0x6 DUP2 MSTORE PUSH1 0x40 PUSH1 0x0 KECCAK256 SWAP1 PUSH1 0x40 MLOAD SWAP1 DUP2 DUP2 DUP5 SLOAD SWAP2 DUP3 DUP2 MSTORE ADD SWAP4 PUSH1 0x0 MSTORE DUP2 PUSH1 0x0 KECCAK256 SWAP2 PUSH1 0x0 SWAP1 JUMPDEST DUP3 DUP3 LT PUSH2 0x1A2 JUMPI PUSH2 0x19E DUP6 PUSH2 0x192 DUP2 DUP10 SUB DUP3 PUSH2 0x199B JUMP JUMPDEST PUSH1 0x40 MLOAD SWAP2 DUP3 SWAP2 DUP3 PUSH2 0x1B55 JUMP JUMPDEST SUB SWAP1 RETURN JUMPDEST DUP4 SLOAD DUP7 MSTORE SWAP5 DUP6 ADD SWAP5 PUSH1 0x1 SWAP4 DUP5 ADD SWAP4 SWAP1 SWAP2 ADD SWAP1 PUSH2 0x17B JUMP JUMPDEST PUSH2 0x1BBE JUMP JUMPDEST CALLVALUE PUSH2 0x12C JUMPI PUSH1 0x20 CALLDATASIZE PUSH1 0x3 NOT ADD SLT PUSH2 0x12C JUMPI PUSH1 0x4 CALLDATALOAD DUP1 PUSH1 0x0 MSTORE PUSH1 0x4 PUSH1 0x20 MSTORE PUSH1 0x40 PUSH1 0x0 KECCAK256 PUSH1 0x1 DUP1 PUSH1 0xA0 SHL SUB PUSH1 0x1 DUP3 ADD SLOAD AND CALLER SUB PUSH2 0x283 JUMPI PUSH1 0xFF PUSH1 0x6 DUP3 ADD SLOAD AND SWAP1 PUSH1 0x6 DUP3 LT ISZERO PUSH2 0x26D JUMPI PUSH2 0x213 PUSH1 0x2 PUSH1 0xA SWAP4 EQ PUSH2 0x1F22 JUMP JUMPDEST PUSH2 0x21C DUP2 PUSH2 0x1F6E JUMP JUMPDEST ADD SLOAD PUSH1 0x0 NOT DUP2 ADD SWAP1 DUP2 GT PUSH2 0x257 JUMPI PUSH1 0x20 PUSH32 0x939DA3B627C123C81FE5AACEBF925163337A0D4F8A03724640618078CAD24894 SWAP2 PUSH1 0x40 MLOAD SWAP1 DUP2 MSTORE LOG2 STOP JUMPDEST PUSH4 0x4E487B71 PUSH1 0xE0 SHL PUSH1 0x0 MSTORE PUSH1 0x11 PUSH1 0x4 MSTORE PUSH1 0x24 PUSH1 0x0 REVERT JUMPDEST PUSH4 0x4E487B71 PUSH1 0xE0 SHL PUSH1 0x0 MSTORE PUSH1 0x21 PUSH1 0x4 MSTORE PUSH1 0x24 PUSH1 0x0 REVERT JUMPDEST PUSH1 0x40 MLOAD PUSH3 0x461BCD PUSH1 0xE5 SHL DUP2 MSTORE PUSH1 0x20 PUSH1 0x4 DUP3 ADD MSTORE PUSH1 0x17 PUSH1 0x24 DUP3 ADD MSTORE PUSH32 0x4F6E6C7920636C69656E742063616E20617070726F7665000000000000000000 PUSH1 0x44 DUP3 ADD MSTORE PUSH1 0x64 SWAP1 REVERT JUMPDEST CALLVALUE PUSH2 0x12C JUMPI PUSH1 0x20 CALLDATASIZE PUSH1 0x3 NOT ADD SLT PUSH2 0x12C JUMPI PUSH1 0x4 CALLDATALOAD PUSH1 0x0 MSTORE PUSH1 0x4 PUSH1 0x20 MSTORE PUSH1 0x20 PUSH1 0x9 PUSH1 0x40 PUSH1 0x0 KECCAK256 ADD SLOAD PUSH1 0x40 MLOAD SWAP1 DUP2 MSTORE RETURN JUMPDEST CALLVALUE PUSH2 0x12C JUMPI PUSH1 0x20 CALLDATASIZE PUSH1 0x3 NOT ADD SLT PUSH2 0x12C JUMPI PUSH1 0x0 PUSH2 0x180 PUSH1 0x40 MLOAD PUSH2 0x319 DUP2 PUSH2 0x1964 JUMP JUMPDEST DUP3 DUP2 MSTORE DUP3 PUSH1 0x20 DUP3 ADD MSTORE DUP3 PUSH1 0x40 DUP3 ADD MSTORE DUP3 PUSH1 0x60 DUP3 ADD MSTORE PUSH1 0x60 PUSH1 0x80 DUP3 ADD MSTORE PUSH1 0x60 PUSH1 0xA0 DUP3 ADD MSTORE DUP3 PUSH1 0xC0 DUP3 ADD MSTORE DUP3 PUSH1 0xE0 DUP3 ADD MSTORE DUP3 PUSH2 0x100 DUP3 ADD MSTORE DUP3 PUSH2 0x120 DUP3 ADD MSTORE DUP3 PUSH2 0x140 DUP3 ADD MSTORE DUP3 PUSH2 0x160 DUP3 ADD MSTORE ADD MSTORE PUSH1 0x4 CALLDATALOAD PUSH1 0x0 MSTORE PUSH1 0x4 PUSH1 0x20 MSTORE PUSH1 0x40 PUSH1 0x0 KECCAK256 PUSH1 0x40 MLOAD SWAP1 PUSH2 0x383 DUP3 PUSH2 0x1964 JUMP JUMPDEST DUP1 SLOAD DUP3 MSTORE PUSH1 0x1 DUP2 ADD SLOAD PUSH1 0x1 PUSH1 0x1 PUSH1 0xA0 SHL SUB SWAP1 DUP2 AND PUSH1 0x20 DUP5 ADD MSTORE PUSH1 0x2 DUP3 ADD SLOAD AND PUSH1 0x40 DUP4 ADD MSTORE PUSH1 0x3 DUP2 ADD SLOAD PUSH1 0x60 DUP4 ADD MSTORE PUSH2 0x3BD PUSH1 0x4 DUP3 ADD PUSH2 0x1A4C JUMP JUMPDEST PUSH1 0x80 DUP4 ADD MSTORE PUSH2 0x3CE PUSH1 0x5 DUP3 ADD PUSH2 0x1A4C JUMP JUMPDEST PUSH1 0xA0 DUP4 ADD MSTORE PUSH1 0xFF PUSH1 0x6 DUP3 ADD SLOAD AND SWAP1 PUSH1 0x6 DUP3 LT ISZERO PUSH2 0x26D JUMPI PUSH1 0xB SWAP2 PUSH1 0xC0 DUP5 ADD MSTORE PUSH1 0x7 DUP2 ADD SLOAD PUSH1 0xE0 DUP5 ADD MSTORE PUSH1 0xFF PUSH1 0x8 DUP3 ADD SLOAD DUP2 DUP2 AND ISZERO ISZERO PUSH2 0x100 DUP7 ADD MSTORE PUSH1 0x8 SHR AND ISZERO ISZERO PUSH2 0x120 DUP5 ADD MSTORE PUSH1 0x9 DUP2 ADD SLOAD PUSH2 0x140 DUP5 ADD MSTORE PUSH1 0xA DUP2 ADD SLOAD PUSH2 0x160 DUP5 ADD MSTORE ADD SLOAD PUSH2 0x180 DUP3 ADD MSTORE PUSH1 0x40 MLOAD DUP1 SWAP2 PUSH1 0x20 DUP3 MSTORE DUP1 MLOAD PUSH1 0x20 DUP4 ADD MSTORE PUSH1 0x1 DUP1 PUSH1 0xA0 SHL SUB PUSH1 0x20 DUP3 ADD MLOAD AND PUSH1 0x40 DUP4 ADD MSTORE PUSH1 0x1 DUP1 PUSH1 0xA0 SHL SUB PUSH1 0x40 DUP3 ADD MLOAD AND PUSH1 0x60 DUP4 ADD MSTORE PUSH1 0x60 DUP2 ADD MLOAD PUSH1 0x80 DUP4 ADD MSTORE PUSH1 0x80 DUP2 ADD MLOAD PUSH2 0x180 PUSH2 0x4AA PUSH2 0x494 PUSH2 0x1A0 SWAP4 DUP5 PUSH1 0xA0 DUP9 ADD MSTORE PUSH2 0x1C0 DUP8 ADD SWAP1 PUSH2 0x1AF2 JUMP JUMPDEST PUSH1 0xA0 DUP6 ADD MLOAD DUP7 DUP3 SUB PUSH1 0x1F NOT ADD PUSH1 0xC0 DUP9 ADD MSTORE PUSH2 0x1AF2 JUMP JUMPDEST SWAP3 PUSH2 0x4BD PUSH1 0xC0 DUP3 ADD MLOAD PUSH1 0xE0 DUP8 ADD SWAP1 PUSH2 0x1B32 JUMP JUMPDEST PUSH1 0xE0 DUP2 ADD MLOAD PUSH2 0x100 DUP7 ADD MSTORE PUSH2 0x100 DUP2 ADD MLOAD ISZERO ISZERO PUSH2 0x120 DUP7 ADD MSTORE PUSH2 0x120 DUP2 ADD MLOAD ISZERO ISZERO PUSH2 0x140 DUP7 ADD MSTORE PUSH2 0x140 DUP2 ADD MLOAD PUSH2 0x160 DUP7 ADD MSTORE PUSH2 0x160 DUP2 ADD MLOAD DUP3 DUP7 ADD MSTORE ADD MLOAD SWAP1 DUP4 ADD MSTORE SUB SWAP1 RETURN JUMPDEST CALLVALUE PUSH2 0x12C JUMPI PUSH1 0x0 CALLDATASIZE PUSH1 0x3 NOT ADD SLT PUSH2 0x12C JUMPI PUSH1 0x2 SLOAD PUSH1 0x40 MLOAD PUSH1 0x1 PUSH1 0x1 PUSH1 0xA0 SHL SUB SWAP1 SWAP2 AND DUP2 MSTORE PUSH1 0x20 SWAP1 RETURN JUMPDEST CALLVALUE PUSH2 0x12C JUMPI PUSH1 0x40 CALLDATASIZE PUSH1 0x3 NOT ADD SLT PUSH2 0x12C JUMPI PUSH2 0x546 PUSH2 0x1B3F JUMP JUMPDEST PUSH1 0x1 PUSH1 0x1 PUSH1 0xA0 SHL SUB AND PUSH1 0x0 SWAP1 DUP2 MSTORE PUSH1 0x6 PUSH1 0x20 MSTORE PUSH1 0x40 SWAP1 KECCAK256 DUP1 SLOAD PUSH1 0x24 CALLDATALOAD SWAP2 SWAP1 DUP3 LT ISZERO PUSH2 0x12C JUMPI PUSH1 0x20 SWAP2 PUSH2 0x577 SWAP2 PUSH2 0x1B90 JUMP JUMPDEST SWAP1 SLOAD PUSH1 0x40 MLOAD SWAP2 PUSH1 0x3 SHL SHR DUP2 MSTORE RETURN JUMPDEST CALLVALUE PUSH2 0x12C JUMPI PUSH1 0x40 CALLDATASIZE PUSH1 0x3 NOT ADD SLT PUSH2 0x12C JUMPI PUSH1 0x40 MLOAD PUSH1 0x24 CALLDATALOAD SWAP1 PUSH1 0x4 CALLDATALOAD PUSH2 0x5A9 DUP3 PUSH2 0x1980 JUMP JUMPDEST PUSH1 0x0 DUP3 MSTORE PUSH1 0x0 PUSH1 0x60 PUSH1 0x20 SWAP4 DUP3 DUP6 DUP3 ADD MSTORE DUP3 PUSH1 0x40 DUP3 ADD MSTORE ADD MSTORE DUP1 PUSH1 0x0 MSTORE PUSH1 0x5 DUP3 MSTORE PUSH1 0x40 PUSH1 0x0 KECCAK256 SLOAD DUP4 LT ISZERO PUSH2 0x64E JUMPI PUSH1 0x80 SWAP3 PUSH2 0x5EE SWAP2 PUSH1 0x0 MSTORE PUSH1 0x5 DUP4 MSTORE PUSH1 0x40 PUSH1 0x0 KECCAK256 PUSH2 0x1DE0 JUMP JUMPDEST POP SWAP1 PUSH1 0x40 MLOAD PUSH2 0x5FC DUP2 PUSH2 0x1980 JUMP JUMPDEST PUSH1 0x1 DUP4 SLOAD SWAP4 DUP5 DUP4 MSTORE ADD SLOAD SWAP2 DUP1 DUP3 ADD PUSH1 0xFF DUP5 AND ISZERO ISZERO DUP2 MSTORE PUSH1 0xFF PUSH1 0x60 PUSH1 0x40 DUP6 ADD SWAP5 DUP3 DUP8 PUSH1 0x8 SHR AND ISZERO ISZERO DUP7 MSTORE ADD SWAP5 PUSH1 0x10 SHR AND ISZERO ISZERO DUP5 MSTORE PUSH1 0x40 MLOAD SWAP5 DUP6 MSTORE MLOAD ISZERO ISZERO SWAP1 DUP5 ADD MSTORE MLOAD ISZERO ISZERO PUSH1 0x40 DUP4 ADD MSTORE MLOAD ISZERO ISZERO PUSH1 0x60 DUP3 ADD MSTORE RETURN JUMPDEST PUSH1 0x40 MLOAD PUSH3 0x461BCD PUSH1 0xE5 SHL DUP2 MSTORE PUSH1 0x4 DUP2 ADD DUP4 SWAP1 MSTORE PUSH1 0xD PUSH1 0x24 DUP3 ADD MSTORE PUSH13 0x92DCECC2D8D2C840D2DCC8CAF PUSH1 0x9B SHL PUSH1 0x44 DUP3 ADD MSTORE PUSH1 0x64 SWAP1 REVERT JUMPDEST CALLVALUE PUSH2 0x12C JUMPI PUSH1 0x0 CALLDATASIZE PUSH1 0x3 NOT ADD SLT PUSH2 0x12C JUMPI PUSH1 0x1 SLOAD PUSH1 0x40 MLOAD PUSH1 0x1 PUSH1 0x1 PUSH1 0xA0 SHL SUB SWAP1 SWAP2 AND DUP2 MSTORE PUSH1 0x20 SWAP1 RETURN JUMPDEST CALLVALUE PUSH2 0x12C JUMPI PUSH1 0x20 CALLDATASIZE PUSH1 0x3 NOT ADD SLT PUSH2 0x12C JUMPI PUSH2 0x6C5 PUSH2 0x1B3F JUMP JUMPDEST PUSH1 0x1 SLOAD PUSH1 0x1 PUSH1 0x1 PUSH1 0xA0 SHL SUB SWAP2 SWAP1 DUP3 AND CALLER SUB PUSH2 0x6F3 JUMPI AND PUSH1 0x1 PUSH1 0x1 PUSH1 0x60 SHL SUB PUSH1 0xA0 SHL PUSH1 0x2 SLOAD AND OR PUSH1 0x2 SSTORE PUSH1 0x0 DUP1 RETURN JUMPDEST PUSH1 0x40 MLOAD PUSH3 0x461BCD PUSH1 0xE5 SHL DUP2 MSTORE PUSH1 0x20 PUSH1 0x4 DUP3 ADD MSTORE PUSH1 0x12 PUSH1 0x24 DUP3 ADD MSTORE PUSH18 0x13DB9B1E481BDDDB995C88185B1B1BDDD959 PUSH1 0x72 SHL PUSH1 0x44 DUP3 ADD MSTORE PUSH1 0x64 SWAP1 REVERT JUMPDEST CALLVALUE PUSH2 0x12C JUMPI PUSH1 0x20 CALLDATASIZE PUSH1 0x3 NOT ADD SLT PUSH2 0x12C JUMPI PUSH1 0x4 CALLDATALOAD DUP1 PUSH1 0x0 MSTORE PUSH1 0x4 PUSH1 0x20 MSTORE PUSH1 0x40 PUSH1 0x0 KECCAK256 SWAP1 PUSH1 0x6 DUP3 ADD DUP1 SLOAD SWAP3 PUSH1 0xFF DUP5 AND PUSH1 0x6 DUP2 LT ISZERO PUSH2 0x26D JUMPI PUSH2 0x7ED JUMPI PUSH1 0x2 ADD DUP1 SLOAD SWAP1 SWAP4 PUSH1 0x1 PUSH1 0x1 PUSH1 0xA0 SHL SUB DUP3 AND PUSH2 0x7B1 JUMPI PUSH2 0x7AF SWAP5 PUSH1 0x1 SWAP3 CALLER SWAP1 PUSH1 0x1 PUSH1 0x1 PUSH1 0x60 SHL SUB PUSH1 0xA0 SHL AND OR SWAP1 SSTORE PUSH1 0xFF NOT AND OR SWAP1 SSTORE CALLER PUSH1 0x0 MSTORE PUSH1 0x7 PUSH1 0x20 MSTORE PUSH1 0x40 PUSH1 0x0 KECCAK256 PUSH2 0x1E8D JUMP JUMPDEST STOP JUMPDEST PUSH1 0x40 MLOAD PUSH3 0x461BCD PUSH1 0xE5 SHL DUP2 MSTORE PUSH1 0x20 PUSH1 0x4 DUP3 ADD MSTORE PUSH1 0x14 PUSH1 0x24 DUP3 ADD MSTORE PUSH20 0x129BD888185B1C9958591E481858D8D95C1D1959 PUSH1 0x62 SHL PUSH1 0x44 DUP3 ADD MSTORE PUSH1 0x64 SWAP1 REVERT JUMPDEST PUSH1 0x40 MLOAD PUSH3 0x461BCD PUSH1 0xE5 SHL DUP2 MSTORE PUSH1 0x20 PUSH1 0x4 DUP3 ADD MSTORE PUSH1 0x11 PUSH1 0x24 DUP3 ADD MSTORE PUSH17 0x4A6F62206E6F7420617661696C61626C65 PUSH1 0x78 SHL PUSH1 0x44 DUP3 ADD MSTORE PUSH1 0x64 SWAP1 REVERT JUMPDEST CALLVALUE PUSH2 0x12C JUMPI PUSH1 0x60 CALLDATASIZE PUSH1 0x3 NOT ADD SLT PUSH2 0x12C JUMPI PUSH1 0x4 CALLDATALOAD PUSH1 0x1 PUSH1 0x1 PUSH1 0x40 SHL SUB DUP2 GT PUSH2 0x12C JUMPI PUSH2 0x856 SWAP1 CALLDATASIZE SWAP1 PUSH1 0x4 ADD PUSH2 0x19BC JUMP JUMPDEST PUSH1 0x24 CALLDATALOAD PUSH1 0x1 PUSH1 0x1 PUSH1 0x40 SHL SUB DUP2 GT PUSH2 0x12C JUMPI PUSH2 0x875 SWAP1 CALLDATASIZE SWAP1 PUSH1 0x4 ADD PUSH2 0x19BC JUMP JUMPDEST SWAP1 PUSH1 0x44 CALLDATALOAD ISZERO PUSH2 0xD9B JUMPI PUSH1 0x0 DUP1 SLOAD PUSH1 0x40 MLOAD PUSH4 0x23B872DD PUSH1 0xE0 SHL DUP2 MSTORE CALLER PUSH1 0x4 DUP3 ADD MSTORE ADDRESS PUSH1 0x24 DUP3 ADD MSTORE PUSH1 0x44 DUP1 CALLDATALOAD SWAP1 DUP3 ADD MSTORE SWAP2 PUSH1 0x20 SWAP2 DUP4 SWAP2 PUSH1 0x64 SWAP2 DUP4 SWAP2 SWAP1 PUSH1 0x1 PUSH1 0x1 PUSH1 0xA0 SHL SUB AND GAS CALL DUP1 ISZERO PUSH2 0xD8F JUMPI PUSH2 0x8D2 SWAP2 PUSH1 0x0 SWAP2 PUSH2 0xD60 JUMPI JUMPDEST POP PUSH2 0x1D7B JUMP JUMPDEST PUSH2 0x8DD PUSH1 0x3 SLOAD PUSH2 0x1DB9 JUMP JUMPDEST SWAP1 DUP2 PUSH1 0x3 SSTORE PUSH1 0x40 MLOAD SWAP3 PUSH2 0x8EF DUP5 PUSH2 0x1964 JUMP JUMPDEST DUP3 DUP5 MSTORE CALLER PUSH1 0x20 DUP6 ADD MSTORE PUSH1 0x0 PUSH1 0x40 DUP6 ADD MSTORE PUSH1 0x44 CALLDATALOAD PUSH1 0x60 DUP6 ADD MSTORE DUP2 PUSH1 0x80 DUP6 ADD MSTORE PUSH1 0xA0 DUP5 ADD MSTORE PUSH1 0x0 PUSH1 0xC0 DUP5 ADD MSTORE PUSH1 0x0 PUSH1 0xE0 DUP5 ADD MSTORE PUSH1 0x0 PUSH2 0x100 DUP5 ADD MSTORE PUSH1 0x0 PUSH2 0x120 DUP5 ADD MSTORE PUSH1 0x1 PUSH2 0x140 DUP5 ADD MSTORE PUSH1 0x0 PUSH2 0x160 DUP5 ADD MSTORE PUSH1 0x44 CALLDATALOAD PUSH2 0x180 DUP5 ADD MSTORE DUP2 PUSH1 0x0 MSTORE PUSH1 0x4 PUSH1 0x20 MSTORE PUSH1 0x40 PUSH1 0x0 KECCAK256 DUP4 MLOAD DUP2 SSTORE PUSH1 0x1 DUP2 ADD PUSH1 0x1 DUP1 PUSH1 0xA0 SHL SUB PUSH1 0x20 DUP7 ADD MLOAD AND SWAP1 PUSH1 0x1 PUSH1 0x1 PUSH1 0x60 SHL SUB PUSH1 0xA0 SHL SWAP2 DUP3 DUP3 SLOAD AND OR SWAP1 SSTORE PUSH1 0x2 DUP3 ADD SWAP1 PUSH1 0x1 DUP1 PUSH1 0xA0 SHL SUB PUSH1 0x40 DUP8 ADD MLOAD AND SWAP1 DUP3 SLOAD AND OR SWAP1 SSTORE PUSH1 0x60 DUP5 ADD MLOAD PUSH1 0x3 DUP3 ADD SSTORE PUSH1 0x80 DUP5 ADD MLOAD DUP1 MLOAD SWAP1 PUSH1 0x1 PUSH1 0x1 PUSH1 0x40 SHL SUB DUP3 GT PUSH2 0xC7F JUMPI DUP2 SWAP1 PUSH2 0x9C8 PUSH1 0x4 DUP6 ADD SLOAD PUSH2 0x1A12 JUMP JUMPDEST PUSH1 0x1F DUP2 GT PUSH2 0xD0D JUMPI JUMPDEST POP PUSH1 0x20 SWAP1 PUSH1 0x1F DUP4 GT PUSH1 0x1 EQ PUSH2 0xCA0 JUMPI PUSH1 0x0 SWAP3 PUSH2 0xC95 JUMPI JUMPDEST POP POP DUP2 PUSH1 0x1 SHL SWAP2 PUSH1 0x0 NOT SWAP1 PUSH1 0x3 SHL SHR NOT AND OR PUSH1 0x4 DUP3 ADD SSTORE JUMPDEST PUSH1 0xA0 DUP5 ADD MLOAD DUP1 MLOAD SWAP1 PUSH1 0x1 PUSH1 0x1 PUSH1 0x40 SHL SUB DUP3 GT PUSH2 0xC7F JUMPI DUP2 SWAP1 PUSH2 0xA25 PUSH1 0x5 DUP6 ADD SLOAD PUSH2 0x1A12 JUMP JUMPDEST PUSH1 0x1F DUP2 GT PUSH2 0xC2C JUMPI JUMPDEST POP PUSH1 0x20 SWAP1 PUSH1 0x1F DUP4 GT PUSH1 0x1 EQ PUSH2 0xBBF JUMPI PUSH1 0x0 SWAP3 PUSH2 0xBB4 JUMPI JUMPDEST POP POP DUP2 PUSH1 0x1 SHL SWAP2 PUSH1 0x0 NOT SWAP1 PUSH1 0x3 SHL SHR NOT AND OR PUSH1 0x5 DUP3 ADD SSTORE JUMPDEST PUSH1 0xC0 DUP5 ADD MLOAD SWAP4 PUSH1 0x6 DUP6 LT ISZERO PUSH2 0x26D JUMPI PUSH2 0x180 PUSH1 0xB SWAP2 PUSH2 0xA81 PUSH1 0x20 SWAP8 PUSH1 0x6 DUP7 ADD PUSH2 0x1DC8 JUMP JUMPDEST PUSH1 0xE0 DUP2 ADD MLOAD PUSH1 0x7 DUP6 ADD SSTORE PUSH2 0xACB PUSH1 0x8 DUP6 ADD PUSH2 0xAAF PUSH2 0x100 DUP5 ADD MLOAD ISZERO ISZERO DUP3 SWAP1 PUSH1 0xFF DUP1 NOT DUP4 SLOAD AND SWAP2 ISZERO ISZERO AND OR SWAP1 SSTORE JUMP JUMPDEST PUSH2 0x120 DUP4 ADD MLOAD DUP2 SLOAD PUSH2 0xFF00 NOT AND SWAP1 ISZERO ISZERO PUSH1 0x8 SHL PUSH2 0xFF00 AND OR SWAP1 SSTORE JUMP JUMPDEST PUSH2 0x140 DUP2 ADD MLOAD PUSH1 0x9 DUP6 ADD SSTORE PUSH2 0x160 DUP2 ADD MLOAD PUSH1 0xA DUP6 ADD SSTORE ADD MLOAD SWAP2 ADD SSTORE DUP2 PUSH1 0x0 MSTORE PUSH1 0x5 DUP4 MSTORE PUSH2 0xB21 PUSH1 0x40 PUSH1 0x0 KECCAK256 PUSH1 0x40 MLOAD SWAP1 PUSH2 0xB03 DUP3 PUSH2 0x1980 JUMP JUMPDEST PUSH1 0x44 CALLDATALOAD DUP3 MSTORE PUSH1 0x0 DUP7 DUP4 ADD MSTORE PUSH1 0x0 PUSH1 0x40 DUP4 ADD MSTORE PUSH1 0x0 PUSH1 0x60 DUP4 ADD MSTORE PUSH2 0x1DFC JUMP JUMPDEST DUP2 PUSH32 0x99C090EA4E24C09BAF74DA49BF4100BE7DE555B972B1E6E4F495989738093D79 PUSH1 0x40 DUP1 MLOAD PUSH1 0x0 DUP2 MSTORE PUSH1 0x44 CALLDATALOAD DUP8 DUP3 ADD MSTORE LOG2 CALLER PUSH1 0x0 MSTORE PUSH1 0x6 DUP4 MSTORE PUSH2 0xB69 DUP3 PUSH1 0x40 PUSH1 0x0 KECCAK256 PUSH2 0x1E8D JUMP JUMPDEST DUP2 PUSH32 0x6F3A5227C058380F6D30B3C63E04E4B049F2DF6D1780F11E4FF1B3E9728A3652 PUSH1 0x40 MLOAD PUSH1 0x44 CALLDATALOAD DUP2 MSTORE PUSH1 0x40 DUP7 DUP3 ADD MSTORE DUP1 PUSH2 0xBA9 CALLER SWAP6 PUSH1 0x40 DUP4 ADD SWAP1 PUSH2 0x1AF2 JUMP JUMPDEST SUB SWAP1 LOG3 PUSH1 0x40 MLOAD SWAP1 DUP2 MSTORE RETURN JUMPDEST ADD MLOAD SWAP1 POP DUP7 DUP1 PUSH2 0xA45 JUMP JUMPDEST PUSH1 0x5 DUP6 ADD PUSH1 0x0 SWAP1 DUP2 MSTORE PUSH1 0x20 DUP2 KECCAK256 SWAP4 POP PUSH1 0x1F NOT DUP6 AND SWAP1 JUMPDEST DUP2 DUP2 LT PUSH2 0xC14 JUMPI POP SWAP1 DUP5 PUSH1 0x1 SWAP6 SWAP5 SWAP4 SWAP3 LT PUSH2 0xBFB JUMPI JUMPDEST POP POP POP DUP2 SHL ADD PUSH1 0x5 DUP3 ADD SSTORE PUSH2 0xA5D JUMP JUMPDEST ADD MLOAD PUSH1 0x0 NOT PUSH1 0xF8 DUP5 PUSH1 0x3 SHL AND SHR NOT AND SWAP1 SSTORE DUP7 DUP1 DUP1 PUSH2 0xBEB JUMP JUMPDEST SWAP3 SWAP4 PUSH1 0x20 PUSH1 0x1 DUP2 SWAP3 DUP8 DUP7 ADD MLOAD DUP2 SSTORE ADD SWAP6 ADD SWAP4 ADD PUSH2 0xBD5 JUMP JUMPDEST SWAP1 SWAP2 POP PUSH1 0x5 DUP5 ADD PUSH1 0x0 MSTORE PUSH1 0x20 PUSH1 0x0 KECCAK256 PUSH1 0x1F DUP5 ADD PUSH1 0x5 SHR DUP2 ADD PUSH1 0x20 DUP6 LT PUSH2 0xC78 JUMPI JUMPDEST SWAP1 DUP5 SWAP4 SWAP3 SWAP2 JUMPDEST PUSH1 0x1F DUP4 ADD PUSH1 0x5 SHR DUP3 ADD DUP2 LT PUSH2 0xC69 JUMPI POP POP PUSH2 0xA2E JUMP JUMPDEST PUSH1 0x0 DUP2 SSTORE DUP6 SWAP5 POP PUSH1 0x1 ADD PUSH2 0xC53 JUMP JUMPDEST POP DUP1 PUSH2 0xC4D JUMP JUMPDEST PUSH4 0x4E487B71 PUSH1 0xE0 SHL PUSH1 0x0 MSTORE PUSH1 0x41 PUSH1 0x4 MSTORE PUSH1 0x24 PUSH1 0x0 REVERT JUMPDEST ADD MLOAD SWAP1 POP DUP7 DUP1 PUSH2 0x9E8 JUMP JUMPDEST PUSH1 0x4 DUP6 ADD PUSH1 0x0 SWAP1 DUP2 MSTORE PUSH1 0x20 DUP2 KECCAK256 SWAP4 POP PUSH1 0x1F NOT DUP6 AND SWAP1 JUMPDEST DUP2 DUP2 LT PUSH2 0xCF5 JUMPI POP SWAP1 DUP5 PUSH1 0x1 SWAP6 SWAP5 SWAP4 SWAP3 LT PUSH2 0xCDC JUMPI JUMPDEST POP POP POP DUP2 SHL ADD PUSH1 0x4 DUP3 ADD SSTORE PUSH2 0xA00 JUMP JUMPDEST ADD MLOAD PUSH1 0x0 NOT PUSH1 0xF8 DUP5 PUSH1 0x3 SHL AND SHR NOT AND SWAP1 SSTORE DUP7 DUP1 DUP1 PUSH2 0xCCC JUMP JUMPDEST SWAP3 SWAP4 PUSH1 0x20 PUSH1 0x1 DUP2 SWAP3 DUP8 DUP7 ADD MLOAD DUP2 SSTORE ADD SWAP6 ADD SWAP4 ADD PUSH2 0xCB6 JUMP JUMPDEST SWAP1 SWAP2 POP PUSH1 0x4 DUP5 ADD PUSH1 0x0 MSTORE PUSH1 0x20 PUSH1 0x0 KECCAK256 PUSH1 0x1F DUP5 ADD PUSH1 0x5 SHR DUP2 ADD PUSH1 0x20 DUP6 LT PUSH2 0xD59 JUMPI JUMPDEST SWAP1 DUP5 SWAP4 SWAP3 SWAP2 JUMPDEST PUSH1 0x1F DUP4 ADD PUSH1 0x5 SHR DUP3 ADD DUP2 LT PUSH2 0xD4A JUMPI POP POP PUSH2 0x9D1 JUMP JUMPDEST PUSH1 0x0 DUP2 SSTORE DUP6 SWAP5 POP PUSH1 0x1 ADD PUSH2 0xD34 JUMP JUMPDEST POP DUP1 PUSH2 0xD2E JUMP JUMPDEST PUSH2 0xD82 SWAP2 POP PUSH1 0x20 RETURNDATASIZE PUSH1 0x20 GT PUSH2 0xD88 JUMPI JUMPDEST PUSH2 0xD7A DUP2 DUP4 PUSH2 0x199B JUMP JUMPDEST DUP2 ADD SWAP1 PUSH2 0x1D63 JUMP JUMPDEST DUP5 PUSH2 0x8CC JUMP JUMPDEST POP RETURNDATASIZE PUSH2 0xD70 JUMP JUMPDEST PUSH1 0x40 MLOAD RETURNDATASIZE PUSH1 0x0 DUP3 RETURNDATACOPY RETURNDATASIZE SWAP1 REVERT JUMPDEST PUSH1 0x40 MLOAD PUSH3 0x461BCD PUSH1 0xE5 SHL DUP2 MSTORE PUSH1 0x20 PUSH1 0x4 DUP3 ADD MSTORE PUSH1 0x1D PUSH1 0x24 DUP3 ADD MSTORE PUSH32 0x427564676574206D7573742062652067726561746572207468616E2030000000 PUSH1 0x44 DUP3 ADD MSTORE PUSH1 0x64 SWAP1 REVERT JUMPDEST CALLVALUE PUSH2 0x12C JUMPI PUSH1 0x0 CALLDATASIZE PUSH1 0x3 NOT ADD SLT PUSH2 0x12C JUMPI PUSH1 0x20 PUSH1 0x3 SLOAD PUSH1 0x40 MLOAD SWAP1 DUP2 MSTORE RETURN JUMPDEST CALLVALUE PUSH2 0x12C JUMPI PUSH1 0x40 CALLDATASIZE PUSH1 0x3 NOT ADD SLT PUSH2 0x12C JUMPI PUSH2 0xE17 PUSH2 0x1B3F JUMP JUMPDEST PUSH1 0x1 PUSH1 0x1 PUSH1 0xA0 SHL SUB AND PUSH1 0x0 SWAP1 DUP2 MSTORE PUSH1 0x7 PUSH1 0x20 MSTORE PUSH1 0x40 SWAP1 KECCAK256 DUP1 SLOAD PUSH1 0x24 CALLDATALOAD SWAP2 SWAP1 DUP3 LT ISZERO PUSH2 0x12C JUMPI PUSH1 0x20 SWAP2 PUSH2 0x577 SWAP2 PUSH2 0x1B90 JUMP JUMPDEST CALLVALUE PUSH2 0x12C JUMPI PUSH1 0x20 DUP1 PUSH1 0x3 NOT CALLDATASIZE ADD SLT PUSH2 0x12C JUMPI PUSH1 0x4 CALLDATALOAD PUSH1 0x0 MSTORE PUSH1 0x4 DUP2 MSTORE PUSH1 0x40 PUSH1 0x0 KECCAK256 SWAP1 PUSH1 0x1 DUP1 PUSH1 0xA0 SHL SUB SWAP2 DUP3 PUSH1 0x1 DUP3 ADD SLOAD AND DUP1 CALLER SUB PUSH2 0xFCA JUMPI PUSH1 0x6 DUP3 ADD SWAP4 DUP5 SLOAD SWAP3 PUSH1 0xFF DUP5 AND PUSH1 0x6 DUP2 LT ISZERO PUSH2 0x26D JUMPI PUSH1 0x4 SUB PUSH2 0xF92 JUMPI PUSH1 0xB ADD SWAP5 DUP6 SLOAD SWAP4 DUP5 ISZERO PUSH2 0xF57 JUMPI PUSH1 0xFF NOT AND PUSH1 0x5 OR SWAP1 SSTORE PUSH1 0x0 DUP1 SLOAD PUSH1 0x40 MLOAD PUSH4 0xA9059CBB PUSH1 0xE0 SHL DUP2 MSTORE PUSH1 0x1 PUSH1 0x1 PUSH1 0xA0 SHL SUB SWAP5 SWAP1 SWAP5 AND PUSH1 0x4 DUP6 ADD MSTORE PUSH1 0x24 DUP5 ADD SWAP5 SWAP1 SWAP5 MSTORE SWAP2 SWAP3 DUP5 SWAP3 DUP5 SWAP3 PUSH1 0x44 SWAP3 DUP5 SWAP3 SWAP2 AND GAS CALL SWAP1 DUP2 ISZERO PUSH2 0xD8F JUMPI PUSH1 0x0 SWAP2 PUSH2 0xF3A JUMPI JUMPDEST POP ISZERO PUSH2 0xF06 JUMPI PUSH1 0x0 DUP3 SSTORE STOP JUMPDEST PUSH1 0x64 SWAP1 PUSH1 0x40 MLOAD SWAP1 PUSH3 0x461BCD PUSH1 0xE5 SHL DUP3 MSTORE PUSH1 0x4 DUP3 ADD MSTORE PUSH1 0xD PUSH1 0x24 DUP3 ADD MSTORE PUSH13 0x1499599D5B990819985A5B1959 PUSH1 0x9A SHL PUSH1 0x44 DUP3 ADD MSTORE REVERT JUMPDEST PUSH2 0xF51 SWAP2 POP DUP3 RETURNDATASIZE DUP5 GT PUSH2 0xD88 JUMPI PUSH2 0xD7A DUP2 DUP4 PUSH2 0x199B JUMP JUMPDEST DUP4 PUSH2 0xEFA JUMP JUMPDEST PUSH1 0x40 MLOAD PUSH3 0x461BCD PUSH1 0xE5 SHL DUP2 MSTORE PUSH1 0x4 DUP2 ADD DUP8 SWAP1 MSTORE PUSH1 0x13 PUSH1 0x24 DUP3 ADD MSTORE PUSH19 0x4E6F20657363726F772072656D61696E696E67 PUSH1 0x68 SHL PUSH1 0x44 DUP3 ADD MSTORE PUSH1 0x64 SWAP1 REVERT JUMPDEST PUSH1 0x40 MLOAD PUSH3 0x461BCD PUSH1 0xE5 SHL DUP2 MSTORE PUSH1 0x4 DUP2 ADD DUP7 SWAP1 MSTORE PUSH1 0x10 PUSH1 0x24 DUP3 ADD MSTORE PUSH16 0x129BD8881B9BDD08191A5CDC1D5D1959 PUSH1 0x82 SHL PUSH1 0x44 DUP3 ADD MSTORE PUSH1 0x64 SWAP1 REVERT JUMPDEST PUSH1 0x40 MLOAD PUSH3 0x461BCD PUSH1 0xE5 SHL DUP2 MSTORE PUSH1 0x4 DUP2 ADD DUP5 SWAP1 MSTORE PUSH1 0x16 PUSH1 0x24 DUP3 ADD MSTORE PUSH22 0x13DB9B1E4818DB1A595B9D0818D85B881C99599D5B99 PUSH1 0x52 SHL PUSH1 0x44 DUP3 ADD MSTORE PUSH1 0x64 SWAP1 REVERT JUMPDEST CALLVALUE PUSH2 0x12C JUMPI PUSH1 0x20 DUP1 PUSH1 0x3 NOT CALLDATASIZE ADD SLT PUSH2 0x12C JUMPI PUSH1 0x1 PUSH1 0x1 PUSH1 0xA0 SHL SUB PUSH2 0x102A PUSH2 0x1B3F JUMP JUMPDEST AND PUSH1 0x0 MSTORE PUSH1 0x7 DUP2 MSTORE PUSH1 0x40 PUSH1 0x0 KECCAK256 SWAP1 PUSH1 0x40 MLOAD SWAP1 DUP2 DUP2 DUP5 SLOAD SWAP2 DUP3 DUP2 MSTORE ADD SWAP4 PUSH1 0x0 MSTORE DUP2 PUSH1 0x0 KECCAK256 SWAP2 PUSH1 0x0 SWAP1 JUMPDEST DUP3 DUP3 LT PUSH2 0x1069 JUMPI PUSH2 0x19E DUP6 PUSH2 0x192 DUP2 DUP10 SUB DUP3 PUSH2 0x199B JUMP JUMPDEST DUP4 SLOAD DUP7 MSTORE SWAP5 DUP6 ADD SWAP5 PUSH1 0x1 SWAP4 DUP5 ADD SWAP4 SWAP1 SWAP2 ADD SWAP1 PUSH2 0x1052 JUMP JUMPDEST CALLVALUE PUSH2 0x12C JUMPI PUSH1 0x40 CALLDATASIZE PUSH1 0x3 NOT ADD SLT PUSH2 0x12C JUMPI PUSH1 0x4 CALLDATALOAD PUSH1 0x24 CALLDATALOAD DUP1 ISZERO ISZERO DUP2 SUB PUSH2 0x12C JUMPI PUSH1 0x2 SLOAD PUSH1 0x1 PUSH1 0x1 PUSH1 0xA0 SHL SUB AND CALLER SUB PUSH2 0x11A2 JUMPI DUP2 PUSH1 0x0 MSTORE PUSH1 0x4 PUSH1 0x20 MSTORE PUSH1 0x40 PUSH1 0x0 KECCAK256 PUSH1 0x6 DUP2 ADD SWAP2 DUP3 SLOAD PUSH1 0xFF DUP2 AND PUSH1 0x6 DUP2 LT ISZERO PUSH2 0x26D JUMPI PUSH1 0x2 SUB PUSH2 0x1168 JUMPI PUSH1 0x8 DUP4 ADD DUP1 SLOAD PUSH1 0xFF NOT SWAP1 DUP2 AND PUSH1 0x1 OR SWAP1 SWAP2 SSTORE SWAP2 ISZERO PUSH2 0x1133 JUMPI POP SWAP2 PUSH1 0x3 PUSH2 0x1106 SWAP4 DUP3 SLOAD AND OR SWAP1 SSTORE PUSH2 0x1F6E JUMP JUMPDEST PUSH32 0x5A87909BFF68CAAAAF0B3FD9C74EECCC928832F879315E5C6FB7A73612F26C0C PUSH1 0x20 PUSH1 0x40 MLOAD PUSH1 0x1 DUP2 MSTORE LOG2 STOP JUMPDEST PUSH1 0x4 SWAP3 POP AND OR SWAP1 SSTORE PUSH32 0x5A87909BFF68CAAAAF0B3FD9C74EECCC928832F879315E5C6FB7A73612F26C0C PUSH1 0x20 PUSH1 0x40 MLOAD PUSH1 0x0 DUP2 MSTORE LOG2 STOP JUMPDEST PUSH1 0x40 MLOAD PUSH3 0x461BCD PUSH1 0xE5 SHL DUP2 MSTORE PUSH1 0x20 PUSH1 0x4 DUP3 ADD MSTORE PUSH1 0x12 PUSH1 0x24 DUP3 ADD MSTORE PUSH18 0x496E76616C6964206A6F6220737461747573 PUSH1 0x70 SHL PUSH1 0x44 DUP3 ADD MSTORE PUSH1 0x64 SWAP1 REVERT JUMPDEST PUSH1 0x40 MLOAD PUSH3 0x461BCD PUSH1 0xE5 SHL DUP2 MSTORE PUSH1 0x20 PUSH1 0x4 DUP3 ADD MSTORE PUSH1 0x15 PUSH1 0x24 DUP3 ADD MSTORE PUSH21 0x13DB9B1E481052481859D95B9D08185B1B1BDDD959 PUSH1 0x5A SHL PUSH1 0x44 DUP3 ADD MSTORE PUSH1 0x64 SWAP1 REVERT JUMPDEST CALLVALUE PUSH2 0x12C JUMPI PUSH1 0x20 CALLDATASIZE PUSH1 0x3 NOT ADD SLT PUSH2 0x12C JUMPI PUSH1 0x4 CALLDATALOAD PUSH1 0x0 MSTORE PUSH1 0x4 PUSH1 0x20 MSTORE PUSH1 0x40 PUSH1 0x0 KECCAK256 DUP1 SLOAD PUSH1 0x1 PUSH1 0xA0 SHL PUSH1 0x1 SWAP1 SUB SWAP2 DUP3 PUSH1 0x1 DUP3 ADD SLOAD AND SWAP3 PUSH1 0x2 DUP3 ADD SLOAD AND PUSH1 0x3 DUP3 ADD SLOAD SWAP2 PUSH1 0x4 DUP2 ADD PUSH2 0x122D SWAP1 PUSH2 0x1A4C JUMP JUMPDEST SWAP3 PUSH2 0x123A PUSH1 0x5 DUP4 ADD PUSH2 0x1A4C JUMP JUMPDEST SWAP4 PUSH1 0x6 DUP4 ADD SLOAD PUSH1 0xFF AND SWAP5 PUSH1 0x7 DUP5 ADD SLOAD SWAP1 PUSH1 0x8 DUP6 ADD SLOAD SWAP3 PUSH1 0x9 DUP7 ADD SLOAD SWAP5 PUSH1 0xA DUP8 ADD SLOAD SWAP7 PUSH1 0xB ADD SLOAD SWAP8 PUSH1 0x40 MLOAD SWAP12 DUP13 SWAP12 DUP13 MSTORE PUSH1 0x20 DUP13 ADD MSTORE PUSH1 0x40 DUP12 ADD MSTORE PUSH1 0x60 DUP11 ADD MSTORE PUSH2 0x1A0 DUP1 PUSH1 0x80 DUP12 ADD MSTORE DUP10 ADD PUSH2 0x128C SWAP2 PUSH2 0x1AF2 JUMP JUMPDEST DUP9 DUP2 SUB PUSH1 0xA0 DUP11 ADD MSTORE PUSH2 0x129D SWAP2 PUSH2 0x1AF2 JUMP JUMPDEST SWAP6 PUSH1 0xC0 DUP9 ADD PUSH2 0x12AB SWAP2 PUSH2 0x1B32 JUMP JUMPDEST PUSH1 0xE0 DUP8 ADD MSTORE PUSH1 0xFF DUP2 AND ISZERO ISZERO PUSH2 0x100 DUP8 ADD MSTORE PUSH1 0x8 SHR PUSH1 0xFF AND ISZERO ISZERO PUSH2 0x120 DUP7 ADD MSTORE PUSH2 0x140 DUP6 ADD MSTORE PUSH2 0x160 DUP5 ADD MSTORE PUSH2 0x180 DUP4 ADD MSTORE SUB SWAP1 RETURN JUMPDEST CALLVALUE PUSH2 0x12C JUMPI PUSH1 0x60 CALLDATASIZE PUSH1 0x3 NOT ADD SLT PUSH2 0x12C JUMPI PUSH1 0x4 CALLDATALOAD PUSH1 0x1 PUSH1 0x1 PUSH1 0x40 SHL SUB DUP2 GT PUSH2 0x12C JUMPI PUSH2 0x1310 SWAP1 CALLDATASIZE SWAP1 PUSH1 0x4 ADD PUSH2 0x19BC JUMP JUMPDEST PUSH1 0x24 CALLDATALOAD PUSH1 0x1 PUSH1 0x1 PUSH1 0x40 SHL SUB DUP2 GT PUSH2 0x12C JUMPI PUSH2 0x132F SWAP1 CALLDATASIZE SWAP1 PUSH1 0x4 ADD PUSH2 0x19BC JUMP JUMPDEST PUSH1 0x44 DUP1 CALLDATALOAD SWAP1 PUSH1 0x1 PUSH1 0x1 PUSH1 0x40 SHL SUB DUP3 GT PUSH2 0x12C JUMPI CALLDATASIZE PUSH1 0x23 DUP4 ADD SLT ISZERO PUSH2 0x12C JUMPI DUP2 PUSH1 0x4 ADD CALLDATALOAD SWAP2 PUSH1 0x1 PUSH1 0x1 PUSH1 0x40 SHL SUB DUP4 GT PUSH2 0xC7F JUMPI DUP3 PUSH1 0x5 SHL PUSH1 0x40 MLOAD SWAP4 PUSH2 0x1376 PUSH1 0x20 DUP4 ADD DUP7 PUSH2 0x199B JUMP JUMPDEST DUP5 MSTORE PUSH1 0x24 PUSH1 0x20 DUP6 ADD SWAP2 DUP4 ADD ADD SWAP2 CALLDATASIZE DUP4 GT PUSH2 0x12C JUMPI PUSH1 0x24 ADD SWAP1 JUMPDEST DUP3 DUP3 LT PUSH2 0x1954 JUMPI POP POP POP DUP2 MLOAD ISZERO PUSH2 0x191A JUMPI PUSH1 0x0 SWAP4 DUP5 JUMPDEST DUP4 MLOAD DUP7 LT ISZERO PUSH2 0x141E JUMPI PUSH2 0x13B8 DUP7 DUP6 PUSH2 0x1EC2 JUMP JUMPDEST MLOAD ISZERO PUSH2 0x13E2 JUMPI PUSH2 0x13C8 DUP7 DUP6 PUSH2 0x1EC2 JUMP JUMPDEST MLOAD DUP2 ADD DUP1 SWAP2 GT PUSH2 0x257 JUMPI PUSH2 0x13DC SWAP1 SWAP6 PUSH2 0x1DB9 JUMP JUMPDEST SWAP5 PUSH2 0x13A5 JUMP JUMPDEST PUSH1 0x40 MLOAD PUSH3 0x461BCD PUSH1 0xE5 SHL DUP2 MSTORE PUSH1 0x20 PUSH1 0x4 DUP3 ADD MSTORE PUSH1 0x15 PUSH1 0x24 DUP3 ADD MSTORE PUSH21 0x4D696C6573746F6E65206D757374206265203E203 PUSH1 0x5C SHL DUP2 DUP6 ADD MSTORE PUSH1 0x64 SWAP1 REVERT JUMPDEST PUSH1 0x0 DUP1 SLOAD PUSH1 0x40 MLOAD PUSH4 0x23B872DD PUSH1 0xE0 SHL DUP2 MSTORE CALLER PUSH1 0x4 DUP3 ADD MSTORE ADDRESS PUSH1 0x24 DUP3 ADD MSTORE PUSH1 0x44 DUP2 ADD DUP5 SWAP1 MSTORE SWAP3 SWAP4 SWAP3 DUP8 SWAP3 DUP8 SWAP3 PUSH1 0x20 SWAP2 DUP4 SWAP2 PUSH1 0x64 SWAP2 DUP4 SWAP2 PUSH1 0x1 PUSH1 0x1 PUSH1 0xA0 SHL SUB AND GAS CALL DUP1 ISZERO PUSH2 0xD8F JUMPI PUSH2 0x1475 SWAP2 PUSH1 0x0 SWAP2 PUSH2 0x18FB JUMPI POP PUSH2 0x1D7B JUMP JUMPDEST PUSH2 0x1480 PUSH1 0x3 SLOAD PUSH2 0x1DB9 JUMP JUMPDEST SWAP2 DUP3 PUSH1 0x3 SSTORE DUP2 MLOAD PUSH1 0x40 MLOAD SWAP2 PUSH2 0x1494 DUP4 PUSH2 0x1964 JUMP JUMPDEST DUP5 DUP4 MSTORE CALLER PUSH1 0x20 DUP5 ADD MSTORE PUSH1 0x0 PUSH1 0x40 DUP5 ADD MSTORE DUP7 PUSH1 0x60 DUP5 ADD MSTORE DUP6 PUSH1 0x80 DUP5 ADD MSTORE PUSH1 0xA0 DUP4 ADD MSTORE PUSH1 0x0 PUSH1 0xC0 DUP4 ADD MSTORE PUSH1 0x0 PUSH1 0xE0 DUP4 ADD MSTORE PUSH1 0x0 PUSH2 0x100 DUP4 ADD MSTORE PUSH1 0x0 PUSH2 0x120 DUP4 ADD MSTORE PUSH2 0x140 DUP3 ADD MSTORE PUSH1 0x0 PUSH2 0x160 DUP3 ADD MSTORE DUP5 PUSH2 0x180 DUP3 ADD MSTORE DUP3 PUSH1 0x0 MSTORE PUSH1 0x4 PUSH1 0x20 MSTORE PUSH1 0x40 PUSH1 0x0 KECCAK256 SWAP1 DUP1 MLOAD DUP3 SSTORE PUSH1 0x1 DUP3 ADD PUSH1 0x1 DUP1 PUSH1 0xA0 SHL SUB PUSH1 0x20 DUP4 ADD MLOAD AND SWAP1 PUSH1 0x1 PUSH1 0x1 PUSH1 0x60 SHL SUB PUSH1 0xA0 SHL SWAP2 DUP3 DUP3 SLOAD AND OR SWAP1 SSTORE PUSH1 0x2 DUP4 ADD SWAP1 PUSH1 0x1 DUP1 PUSH1 0xA0 SHL SUB PUSH1 0x40 DUP5 ADD MLOAD AND SWAP1 DUP3 SLOAD AND OR SWAP1 SSTORE PUSH1 0x60 DUP2 ADD MLOAD PUSH1 0x3 DUP4 ADD SSTORE PUSH1 0x80 DUP2 ADD MLOAD DUP1 MLOAD SWAP1 PUSH1 0x1 PUSH1 0x1 PUSH1 0x40 SHL SUB DUP3 GT PUSH2 0xC7F JUMPI DUP2 SWAP1 PUSH2 0x1568 PUSH1 0x4 DUP7 ADD SLOAD PUSH2 0x1A12 JUMP JUMPDEST PUSH1 0x1F DUP2 GT PUSH2 0x18A8 JUMPI JUMPDEST POP PUSH1 0x20 SWAP1 PUSH1 0x1F DUP4 GT PUSH1 0x1 EQ PUSH2 0x1836 JUMPI PUSH1 0x0 SWAP3 PUSH2 0x182B JUMPI JUMPDEST POP POP DUP2 PUSH1 0x1 SHL SWAP2 PUSH1 0x0 NOT SWAP1 PUSH1 0x3 SHL SHR NOT AND OR PUSH1 0x4 DUP4 ADD SSTORE JUMPDEST PUSH1 0xA0 DUP2 ADD MLOAD DUP1 MLOAD SWAP1 PUSH1 0x1 PUSH1 0x1 PUSH1 0x40 SHL SUB DUP3 GT PUSH2 0xC7F JUMPI DUP2 SWAP1 PUSH2 0x15C5 PUSH1 0x5 DUP7 ADD SLOAD PUSH2 0x1A12 JUMP JUMPDEST PUSH1 0x1F DUP2 GT PUSH2 0x17D8 JUMPI JUMPDEST POP PUSH1 0x20 SWAP1 PUSH1 0x1F DUP4 GT PUSH1 0x1 EQ PUSH2 0x1766 JUMPI PUSH1 0x0 SWAP3 PUSH2 0x175B JUMPI JUMPDEST POP POP DUP2 PUSH1 0x1 SHL SWAP2 PUSH1 0x0 NOT SWAP1 PUSH1 0x3 SHL SHR NOT AND OR PUSH1 0x5 DUP4 ADD SSTORE JUMPDEST PUSH1 0xC0 DUP2 ADD MLOAD PUSH1 0x6 DUP2 LT ISZERO PUSH2 0x26D JUMPI PUSH1 0xB SWAP2 PUSH2 0x161E PUSH2 0x180 SWAP3 PUSH1 0x6 DUP7 ADD PUSH2 0x1DC8 JUMP JUMPDEST PUSH1 0xE0 DUP2 ADD MLOAD PUSH1 0x7 DUP6 ADD SSTORE PUSH2 0x164C PUSH1 0x8 DUP6 ADD PUSH2 0xAAF PUSH2 0x100 DUP5 ADD MLOAD ISZERO ISZERO DUP3 SWAP1 PUSH1 0xFF DUP1 NOT DUP4 SLOAD AND SWAP2 ISZERO ISZERO AND OR SWAP1 SSTORE JUMP JUMPDEST PUSH2 0x140 DUP2 ADD MLOAD PUSH1 0x9 DUP6 ADD SSTORE PUSH2 0x160 DUP2 ADD MLOAD PUSH1 0xA DUP6 ADD SSTORE ADD MLOAD SWAP2 ADD SSTORE PUSH1 0x0 JUMPDEST DUP2 MLOAD DUP2 LT ISZERO PUSH2 0x1702 JUMPI PUSH2 0x16FD SWAP1 DUP4 PUSH1 0x0 MSTORE PUSH1 0x5 PUSH1 0x20 MSTORE PUSH2 0x16BD PUSH1 0x40 PUSH1 0x0 KECCAK256 PUSH2 0x1692 DUP4 DUP7 PUSH2 0x1EC2 JUMP JUMPDEST MLOAD SWAP1 PUSH1 0x40 MLOAD SWAP2 PUSH2 0x16A1 DUP4 PUSH2 0x1980 JUMP JUMPDEST DUP3 MSTORE PUSH1 0x0 PUSH1 0x20 DUP4 ADD MSTORE PUSH1 0x0 PUSH1 0x40 DUP4 ADD MSTORE PUSH1 0x0 PUSH1 0x60 DUP4 ADD MSTORE PUSH2 0x1DFC JUMP JUMPDEST DUP4 PUSH32 0x99C090EA4E24C09BAF74DA49BF4100BE7DE555B972B1E6E4F495989738093D79 PUSH1 0x40 PUSH2 0x16EB DUP5 DUP8 PUSH2 0x1EC2 JUMP JUMPDEST MLOAD DUP2 MLOAD SWAP1 DUP6 DUP3 MSTORE PUSH1 0x20 DUP3 ADD MSTORE LOG2 PUSH2 0x1DB9 JUMP JUMPDEST PUSH2 0x166A JUMP JUMPDEST PUSH1 0x20 DUP4 DUP6 DUP2 PUSH32 0x6F3A5227C058380F6D30B3C63E04E4B049F2DF6D1780F11E4FF1B3E9728A3652 DUP10 CALLER PUSH1 0x0 MSTORE PUSH1 0x6 DUP7 MSTORE PUSH2 0x173F DUP4 PUSH1 0x40 PUSH1 0x0 KECCAK256 PUSH2 0x1E8D JUMP JUMPDEST PUSH1 0x40 MLOAD SWAP1 DUP2 MSTORE PUSH1 0x40 DUP7 DUP3 ADD MSTORE DUP1 PUSH2 0xBA9 CALLER SWAP6 PUSH1 0x40 DUP4 ADD SWAP1 PUSH2 0x1AF2 JUMP JUMPDEST ADD MLOAD SWAP1 POP DUP9 DUP1 PUSH2 0x15E5 JUMP JUMPDEST SWAP3 POP PUSH1 0x5 DUP6 ADD PUSH1 0x0 MSTORE PUSH1 0x20 PUSH1 0x0 KECCAK256 SWAP1 PUSH1 0x0 SWAP4 JUMPDEST PUSH1 0x1F NOT DUP5 AND DUP6 LT PUSH2 0x17BD JUMPI PUSH1 0x1 SWAP5 POP DUP4 PUSH1 0x1F NOT DUP2 AND LT PUSH2 0x17A4 JUMPI JUMPDEST POP POP POP DUP2 SHL ADD PUSH1 0x5 DUP4 ADD SSTORE PUSH2 0x15FD JUMP JUMPDEST ADD MLOAD PUSH1 0x0 NOT PUSH1 0xF8 DUP5 PUSH1 0x3 SHL AND SHR NOT AND SWAP1 SSTORE DUP9 DUP1 DUP1 PUSH2 0x1794 JUMP JUMPDEST DUP2 DUP2 ADD MLOAD DUP4 SSTORE PUSH1 0x20 SWAP5 DUP6 ADD SWAP5 PUSH1 0x1 SWAP1 SWAP4 ADD SWAP3 SWAP1 SWAP2 ADD SWAP1 PUSH2 0x1779 JUMP JUMPDEST SWAP1 SWAP2 POP PUSH1 0x5 DUP6 ADD PUSH1 0x0 MSTORE PUSH1 0x20 PUSH1 0x0 KECCAK256 PUSH1 0x1F DUP5 ADD PUSH1 0x5 SHR DUP2 ADD PUSH1 0x20 DUP6 LT PUSH2 0x1824 JUMPI JUMPDEST SWAP1 DUP5 SWAP4 SWAP3 SWAP2 JUMPDEST PUSH1 0x1F DUP4 ADD PUSH1 0x5 SHR DUP3 ADD DUP2 LT PUSH2 0x1815 JUMPI POP POP PUSH2 0x15CE JUMP JUMPDEST PUSH1 0x0 DUP2 SSTORE DUP6 SWAP5 POP PUSH1 0x1 ADD PUSH2 0x17FF JUMP JUMPDEST POP DUP1 PUSH2 0x17F9 JUMP JUMPDEST ADD MLOAD SWAP1 POP DUP9 DUP1 PUSH2 0x1588 JUMP JUMPDEST SWAP3 POP PUSH1 0x4 DUP6 ADD PUSH1 0x0 MSTORE PUSH1 0x20 PUSH1 0x0 KECCAK256 SWAP1 PUSH1 0x0 SWAP4 JUMPDEST PUSH1 0x1F NOT DUP5 AND DUP6 LT PUSH2 0x188D JUMPI PUSH1 0x1 SWAP5 POP DUP4 PUSH1 0x1F NOT DUP2 AND LT PUSH2 0x1874 JUMPI JUMPDEST POP POP POP DUP2 SHL ADD PUSH1 0x4 DUP4 ADD SSTORE PUSH2 0x15A0 JUMP JUMPDEST ADD MLOAD PUSH1 0x0 NOT PUSH1 0xF8 DUP5 PUSH1 0x3 SHL AND SHR NOT AND SWAP1 SSTORE DUP9 DUP1 DUP1 PUSH2 0x1864 JUMP JUMPDEST DUP2 DUP2 ADD MLOAD DUP4 SSTORE PUSH1 0x20 SWAP5 DUP6 ADD SWAP5 PUSH1 0x1 SWAP1 SWAP4 ADD SWAP3 SWAP1 SWAP2 ADD SWAP1 PUSH2 0x1849 JUMP JUMPDEST SWAP1 SWAP2 POP PUSH1 0x4 DUP6 ADD PUSH1 0x0 MSTORE PUSH1 0x20 PUSH1 0x0 KECCAK256 PUSH1 0x1F DUP5 ADD PUSH1 0x5 SHR DUP2 ADD PUSH1 0x20 DUP6 LT PUSH2 0x18F4 JUMPI JUMPDEST SWAP1 DUP5 SWAP4 SWAP3 SWAP2 JUMPDEST PUSH1 0x1F DUP4 ADD PUSH1 0x5 SHR DUP3 ADD DUP2 LT PUSH2 0x18E5 JUMPI POP POP PUSH2 0x1571 JUMP JUMPDEST PUSH1 0x0 DUP2 SSTORE DUP6 SWAP5 POP PUSH1 0x1 ADD PUSH2 0x18CF JUMP JUMPDEST POP DUP1 PUSH2 0x18C9 JUMP JUMPDEST PUSH2 0x1914 SWAP2 POP PUSH1 0x20 RETURNDATASIZE PUSH1 0x20 GT PUSH2 0xD88 JUMPI PUSH2 0xD7A DUP2 DUP4 PUSH2 0x199B JUMP JUMPDEST DUP7 PUSH2 0x8CC JUMP JUMPDEST PUSH1 0x64 SWAP1 PUSH19 0x135A5B195CDD1BDB995CC81C995C5D5A5C9959 PUSH1 0x6A SHL PUSH1 0x40 MLOAD SWAP2 PUSH3 0x461BCD PUSH1 0xE5 SHL DUP4 MSTORE PUSH1 0x20 PUSH1 0x4 DUP5 ADD MSTORE PUSH1 0x13 PUSH1 0x24 DUP5 ADD MSTORE DUP3 ADD MSTORE REVERT JUMPDEST DUP2 CALLDATALOAD DUP2 MSTORE PUSH1 0x20 SWAP2 DUP3 ADD SWAP2 ADD PUSH2 0x138F JUMP JUMPDEST PUSH2 0x1A0 DUP2 ADD SWAP1 DUP2 LT PUSH1 0x1 PUSH1 0x1 PUSH1 0x40 SHL SUB DUP3 GT OR PUSH2 0xC7F JUMPI PUSH1 0x40 MSTORE JUMP JUMPDEST PUSH1 0x80 DUP2 ADD SWAP1 DUP2 LT PUSH1 0x1 PUSH1 0x1 PUSH1 0x40 SHL SUB DUP3 GT OR PUSH2 0xC7F JUMPI PUSH1 0x40 MSTORE JUMP JUMPDEST SWAP1 PUSH1 0x1F DUP1 NOT SWAP2 ADD AND DUP2 ADD SWAP1 DUP2 LT PUSH1 0x1 PUSH1 0x1 PUSH1 0x40 SHL SUB DUP3 GT OR PUSH2 0xC7F JUMPI PUSH1 0x40 MSTORE JUMP JUMPDEST DUP2 PUSH1 0x1F DUP3 ADD SLT ISZERO PUSH2 0x12C JUMPI DUP1 CALLDATALOAD SWAP1 PUSH1 0x1 PUSH1 0x1 PUSH1 0x40 SHL SUB DUP3 GT PUSH2 0xC7F JUMPI PUSH1 0x40 MLOAD SWAP3 PUSH2 0x19F0 PUSH1 0x1F DUP5 ADD PUSH1 0x1F NOT AND PUSH1 0x20 ADD DUP6 PUSH2 0x199B JUMP JUMPDEST DUP3 DUP5 MSTORE PUSH1 0x20 DUP4 DUP4 ADD ADD GT PUSH2 0x12C JUMPI DUP2 PUSH1 0x0 SWAP3 PUSH1 0x20 DUP1 SWAP4 ADD DUP4 DUP7 ADD CALLDATACOPY DUP4 ADD ADD MSTORE SWAP1 JUMP JUMPDEST SWAP1 PUSH1 0x1 DUP3 DUP2 SHR SWAP3 AND DUP1 ISZERO PUSH2 0x1A42 JUMPI JUMPDEST PUSH1 0x20 DUP4 LT EQ PUSH2 0x1A2C JUMPI JUMP JUMPDEST PUSH4 0x4E487B71 PUSH1 0xE0 SHL PUSH1 0x0 MSTORE PUSH1 0x22 PUSH1 0x4 MSTORE PUSH1 0x24 PUSH1 0x0 REVERT JUMPDEST SWAP2 PUSH1 0x7F AND SWAP2 PUSH2 0x1A21 JUMP JUMPDEST SWAP1 PUSH1 0x40 MLOAD SWAP2 DUP3 PUSH1 0x0 DUP3 SLOAD SWAP3 PUSH2 0x1A60 DUP5 PUSH2 0x1A12 JUMP JUMPDEST SWAP1 DUP2 DUP5 MSTORE PUSH1 0x1 SWAP5 DUP6 DUP2 AND SWAP1 DUP2 PUSH1 0x0 EQ PUSH2 0x1ACF JUMPI POP PUSH1 0x1 EQ PUSH2 0x1A8C JUMPI JUMPDEST POP POP PUSH2 0x1A8A SWAP3 POP SUB DUP4 PUSH2 0x199B JUMP JUMPDEST JUMP JUMPDEST SWAP1 SWAP4 SWAP2 POP PUSH1 0x0 MSTORE PUSH1 0x20 SWAP1 DUP2 PUSH1 0x0 KECCAK256 SWAP4 PUSH1 0x0 SWAP2 JUMPDEST DUP2 DUP4 LT PUSH2 0x1AB7 JUMPI POP POP PUSH2 0x1A8A SWAP4 POP DUP3 ADD ADD CODESIZE DUP1 PUSH2 0x1A7C JUMP JUMPDEST DUP6 SLOAD DUP9 DUP5 ADD DUP6 ADD MSTORE SWAP5 DUP6 ADD SWAP5 DUP8 SWAP5 POP SWAP2 DUP4 ADD SWAP2 PUSH2 0x1A9F JUMP JUMPDEST SWAP2 POP POP PUSH2 0x1A8A SWAP5 POP PUSH1 0x20 SWAP3 POP PUSH1 0xFF NOT AND DUP3 DUP5 ADD MSTORE ISZERO ISZERO PUSH1 0x5 SHL DUP3 ADD ADD CODESIZE DUP1 PUSH2 0x1A7C JUMP JUMPDEST SWAP2 SWAP1 DUP3 MLOAD SWAP3 DUP4 DUP3 MSTORE PUSH1 0x0 JUMPDEST DUP5 DUP2 LT PUSH2 0x1B1E JUMPI POP POP DUP3 PUSH1 0x0 PUSH1 0x20 DUP1 SWAP5 SWAP6 DUP5 ADD ADD MSTORE PUSH1 0x1F DUP1 NOT SWAP2 ADD AND ADD ADD SWAP1 JUMP JUMPDEST PUSH1 0x20 DUP2 DUP4 ADD DUP2 ADD MLOAD DUP5 DUP4 ADD DUP3 ADD MSTORE ADD PUSH2 0x1AFD JUMP JUMPDEST SWAP1 PUSH1 0x6 DUP3 LT ISZERO PUSH2 0x26D JUMPI MSTORE JUMP JUMPDEST PUSH1 0x4 CALLDATALOAD SWAP1 PUSH1 0x1 PUSH1 0x1 PUSH1 0xA0 SHL SUB DUP3 AND DUP3 SUB PUSH2 0x12C JUMPI JUMP JUMPDEST PUSH1 0x20 SWAP1 DUP2 PUSH1 0x40 DUP2 DUP4 ADD SWAP3 DUP3 DUP2 MSTORE DUP6 MLOAD DUP1 SWAP5 MSTORE ADD SWAP4 ADD SWAP2 PUSH1 0x0 JUMPDEST DUP3 DUP2 LT PUSH2 0x1B7C JUMPI POP POP POP POP SWAP1 JUMP JUMPDEST DUP4 MLOAD DUP6 MSTORE SWAP4 DUP2 ADD SWAP4 SWAP3 DUP2 ADD SWAP3 PUSH1 0x1 ADD PUSH2 0x1B6E JUMP JUMPDEST DUP1 SLOAD DUP3 LT ISZERO PUSH2 0x1BA8 JUMPI PUSH1 0x0 MSTORE PUSH1 0x20 PUSH1 0x0 KECCAK256 ADD SWAP1 PUSH1 0x0 SWAP1 JUMP JUMPDEST PUSH4 0x4E487B71 PUSH1 0xE0 SHL PUSH1 0x0 MSTORE PUSH1 0x32 PUSH1 0x4 MSTORE PUSH1 0x24 PUSH1 0x0 REVERT JUMPDEST CALLVALUE PUSH2 0x12C JUMPI PUSH1 0x20 DUP1 PUSH1 0x3 NOT CALLDATASIZE ADD SLT PUSH2 0x12C JUMPI PUSH1 0x4 SWAP1 PUSH1 0x0 SWAP1 DUP3 CALLDATALOAD DUP3 MSTORE DUP3 DUP2 MSTORE PUSH1 0x40 SWAP1 DUP2 DUP4 KECCAK256 PUSH1 0x1 DUP1 PUSH1 0xA0 SHL SUB PUSH1 0x2 DUP3 ADD SLOAD AND CALLER SUB PUSH2 0x1D20 JUMPI PUSH1 0x6 DUP2 ADD SWAP1 PUSH1 0xFF DUP3 SLOAD AND PUSH1 0x6 DUP2 LT ISZERO PUSH2 0x1D0D JUMPI PUSH1 0x1 SUB PUSH2 0x1CD4 JUMPI PUSH1 0xA DUP2 ADD SLOAD SWAP2 PUSH2 0x1C25 PUSH1 0x9 DUP4 ADD SLOAD DUP5 LT PUSH2 0x1ED6 JUMP JUMPDEST DUP2 SLOAD DUP7 MSTORE PUSH1 0x5 DUP5 MSTORE PUSH1 0x1 PUSH2 0x1C3B DUP5 DUP8 DUP10 KECCAK256 PUSH2 0x1DE0 JUMP JUMPDEST POP ADD DUP1 SLOAD SWAP8 PUSH1 0xFF DUP10 AND PUSH2 0x1C91 JUMPI POP PUSH32 0x26CF581E2709E0615164AF15A371B2DD10FB48D5BAED91E9EACD557633C16BCB SWAP6 SWAP7 SWAP8 PUSH1 0x2 SWAP2 PUSH1 0x1 PUSH1 0xFF NOT DUP1 SWAP4 AND OR SWAP1 SSTORE DUP3 SLOAD AND OR SWAP1 SSTORE TIMESTAMP PUSH1 0x7 DUP3 ADD SSTORE SLOAD SWAP4 MLOAD SWAP1 DUP2 MSTORE LOG2 DUP1 RETURN JUMPDEST DUP7 MLOAD PUSH3 0x461BCD PUSH1 0xE5 SHL DUP2 MSTORE SWAP1 DUP2 ADD DUP7 SWAP1 MSTORE PUSH1 0x1B PUSH1 0x24 DUP3 ADD MSTORE PUSH32 0x4D696C6573746F6E6520616C7265616479207375626D69747465640000000000 PUSH1 0x44 DUP3 ADD MSTORE PUSH1 0x64 SWAP1 REVERT JUMPDEST DUP4 MLOAD PUSH3 0x461BCD PUSH1 0xE5 SHL DUP2 MSTORE DUP1 DUP8 ADD DUP5 SWAP1 MSTORE PUSH1 0x13 PUSH1 0x24 DUP3 ADD MSTORE PUSH19 0x4A6F62206E6F7420696E2070726F6772657373 PUSH1 0x68 SHL PUSH1 0x44 DUP3 ADD MSTORE PUSH1 0x64 SWAP1 REVERT JUMPDEST PUSH4 0x4E487B71 PUSH1 0xE0 SHL DUP7 MSTORE PUSH1 0x21 DUP8 MSTORE PUSH1 0x24 DUP7 REVERT JUMPDEST DUP3 MLOAD PUSH3 0x461BCD PUSH1 0xE5 SHL DUP2 MSTORE DUP1 DUP7 ADD DUP4 SWAP1 MSTORE PUSH1 0x1B PUSH1 0x24 DUP3 ADD MSTORE PUSH32 0x4E6F74207468652061737369676E656420667265656C616E6365720000000000 PUSH1 0x44 DUP3 ADD MSTORE PUSH1 0x64 SWAP1 REVERT JUMPDEST SWAP1 DUP2 PUSH1 0x20 SWAP2 SUB SLT PUSH2 0x12C JUMPI MLOAD DUP1 ISZERO ISZERO DUP2 SUB PUSH2 0x12C JUMPI SWAP1 JUMP JUMPDEST ISZERO PUSH2 0x1D82 JUMPI JUMP JUMPDEST PUSH1 0x40 MLOAD PUSH3 0x461BCD PUSH1 0xE5 SHL DUP2 MSTORE PUSH1 0x20 PUSH1 0x4 DUP3 ADD MSTORE PUSH1 0xF PUSH1 0x24 DUP3 ADD MSTORE PUSH15 0x151C985B9CD9995C8819985A5B1959 PUSH1 0x8A SHL PUSH1 0x44 DUP3 ADD MSTORE PUSH1 0x64 SWAP1 REVERT JUMPDEST PUSH1 0x0 NOT DUP2 EQ PUSH2 0x257 JUMPI PUSH1 0x1 ADD SWAP1 JUMP JUMPDEST SWAP1 PUSH1 0x6 DUP2 LT ISZERO PUSH2 0x26D JUMPI PUSH1 0xFF DUP1 NOT DUP4 SLOAD AND SWAP2 AND OR SWAP1 SSTORE JUMP JUMPDEST DUP1 SLOAD DUP3 LT ISZERO PUSH2 0x1BA8 JUMPI PUSH1 0x0 MSTORE PUSH1 0x20 PUSH1 0x0 KECCAK256 SWAP1 PUSH1 0x1 SHL ADD SWAP1 PUSH1 0x0 SWAP1 JUMP JUMPDEST DUP1 SLOAD PUSH1 0x1 PUSH1 0x40 SHL DUP2 LT ISZERO PUSH2 0xC7F JUMPI PUSH2 0x1E19 SWAP2 PUSH1 0x1 DUP3 ADD DUP2 SSTORE PUSH2 0x1DE0 JUMP JUMPDEST PUSH2 0x1E77 JUMPI PUSH1 0x1 PUSH1 0x60 SWAP2 DUP4 MLOAD DUP2 SSTORE ADD SWAP2 PUSH2 0x1E44 PUSH1 0x20 DUP3 ADD MLOAD ISZERO ISZERO DUP5 SWAP1 PUSH1 0xFF DUP1 NOT DUP4 SLOAD AND SWAP2 ISZERO ISZERO AND OR SWAP1 SSTORE JUMP JUMPDEST PUSH1 0x40 DUP2 ADD MLOAD DUP4 SLOAD PUSH2 0xFF00 NOT AND SWAP1 ISZERO ISZERO PUSH1 0x8 SHL PUSH2 0xFF00 AND OR DUP4 SSTORE ADD MLOAD DUP2 SLOAD PUSH3 0xFF0000 NOT AND SWAP1 ISZERO ISZERO PUSH1 0x10 SHL PUSH3 0xFF0000 AND OR SWAP1 SSTORE JUMP JUMPDEST PUSH4 0x4E487B71 PUSH1 0xE0 SHL PUSH1 0x0 MSTORE PUSH1 0x0 PUSH1 0x4 MSTORE PUSH1 0x24 PUSH1 0x0 REVERT JUMPDEST DUP1 SLOAD PUSH1 0x1 PUSH1 0x40 SHL DUP2 LT ISZERO PUSH2 0xC7F JUMPI PUSH2 0x1EAA SWAP2 PUSH1 0x1 DUP3 ADD DUP2 SSTORE PUSH2 0x1B90 JUMP JUMPDEST DUP2 SWAP3 SWAP2 SLOAD SWAP1 PUSH1 0x3 SHL SWAP2 DUP3 SHL SWAP2 PUSH1 0x0 NOT SWAP1 SHL NOT AND OR SWAP1 SSTORE JUMP JUMPDEST DUP1 MLOAD DUP3 LT ISZERO PUSH2 0x1BA8 JUMPI PUSH1 0x20 SWAP2 PUSH1 0x5 SHL ADD ADD SWAP1 JUMP JUMPDEST ISZERO PUSH2 0x1EDD JUMPI JUMP JUMPDEST PUSH1 0x40 MLOAD PUSH3 0x461BCD PUSH1 0xE5 SHL DUP2 MSTORE PUSH1 0x20 PUSH1 0x4 DUP3 ADD MSTORE PUSH1 0x17 PUSH1 0x24 DUP3 ADD MSTORE PUSH32 0x416C6C206D696C6573746F6E657320636F6D706C657465000000000000000000 PUSH1 0x44 DUP3 ADD MSTORE PUSH1 0x64 SWAP1 REVERT JUMPDEST ISZERO PUSH2 0x1F29 JUMPI JUMP JUMPDEST PUSH1 0x40 MLOAD PUSH3 0x461BCD PUSH1 0xE5 SHL DUP2 MSTORE PUSH1 0x20 PUSH1 0x4 DUP3 ADD MSTORE PUSH1 0x17 PUSH1 0x24 DUP3 ADD MSTORE PUSH32 0x4D696C6573746F6E65206E6F74207375626D6974746564000000000000000000 PUSH1 0x44 DUP3 ADD MSTORE PUSH1 0x64 SWAP1 REVERT JUMPDEST PUSH1 0xA DUP2 ADD SWAP1 DUP2 SLOAD PUSH1 0x9 DUP3 ADD SWAP2 PUSH2 0x1F86 DUP4 SLOAD DUP4 LT PUSH2 0x1ED6 JUMP JUMPDEST DUP1 SLOAD SWAP4 PUSH1 0x0 SWAP5 DUP6 MSTORE PUSH1 0x20 SWAP4 PUSH1 0x5 DUP6 MSTORE PUSH1 0x40 PUSH2 0x1FA3 DUP6 DUP3 DUP10 KECCAK256 PUSH2 0x1DE0 JUMP JUMPDEST POP SWAP1 PUSH1 0x1 DUP3 ADD DUP1 SLOAD PUSH2 0x1FB7 PUSH1 0xFF DUP3 AND PUSH2 0x1F22 JUMP JUMPDEST PUSH1 0xFF DUP2 PUSH1 0x10 SHR AND PUSH2 0x2173 JUMPI PUSH3 0xFFFF00 NOT AND PUSH3 0x10100 OR SWAP1 SSTORE DUP2 SLOAD PUSH1 0xB DUP7 ADD DUP1 SLOAD SWAP2 DUP3 SUB SWAP2 DUP3 GT PUSH2 0x215F JUMPI SSTORE DUP8 SLOAD PUSH1 0x2 DUP7 ADD DUP1 SLOAD DUP5 SLOAD DUP5 MLOAD PUSH4 0xA9059CBB PUSH1 0xE0 SHL DUP2 MSTORE PUSH1 0x1 PUSH1 0x1 PUSH1 0xA0 SHL SUB SWAP3 DUP4 AND PUSH1 0x4 DUP3 ADD MSTORE PUSH1 0x24 DUP2 ADD SWAP2 SWAP1 SWAP2 MSTORE SWAP2 SWAP10 SWAP1 SWAP9 SWAP3 SWAP1 SWAP2 SWAP1 DUP3 SWAP1 DUP3 SWAP1 PUSH1 0x44 SWAP1 DUP3 SWAP1 DUP16 SWAP1 DUP15 AND GAS CALL SWAP1 DUP2 ISZERO PUSH2 0x2155 JUMPI DUP12 SWAP2 PUSH2 0x2138 JUMPI JUMPDEST POP ISZERO PUSH2 0x20F5 JUMPI DUP7 SLOAD SWAP4 SLOAD DUP4 MLOAD SWAP3 DUP4 MSTORE SWAP1 DUP3 ADD MSTORE PUSH32 0xAFC8FC5DD6037BF38D34D9D51BB5ECC0AF143248332C63AE9E83BBEF6D4638D9 SWAP2 SWAP1 LOG2 DUP2 SLOAD SWAP2 PUSH1 0x1 DUP4 ADD DUP1 SWAP4 GT PUSH2 0x20E1 JUMPI DUP3 SWAP1 SSTORE SLOAD GT PUSH2 0x20CE JUMPI PUSH1 0x8 DUP2 ADD DUP1 SLOAD PUSH2 0xFF00 NOT AND PUSH2 0x100 OR SWAP1 SSTORE PUSH1 0x6 DUP2 ADD DUP1 SLOAD PUSH1 0xFF NOT AND PUSH1 0x5 OR SWAP1 SSTORE SLOAD SWAP2 SLOAD AND SWAP2 PUSH32 0x4156924BD7E340B19303AF17BF5323D66FAE5DC16F350319092E0839C8543683 SWAP1 DUP1 LOG3 JUMP JUMPDEST PUSH1 0x6 ADD DUP1 SLOAD PUSH1 0xFF NOT AND PUSH1 0x1 OR SWAP1 SSTORE POP POP POP JUMP JUMPDEST PUSH4 0x4E487B71 PUSH1 0xE0 SHL DUP8 MSTORE PUSH1 0x11 PUSH1 0x4 MSTORE PUSH1 0x24 DUP8 REVERT JUMPDEST PUSH1 0x64 SWAP1 DUP4 MLOAD SWAP1 PUSH3 0x461BCD PUSH1 0xE5 SHL DUP3 MSTORE PUSH1 0x4 DUP3 ADD MSTORE PUSH1 0x17 PUSH1 0x24 DUP3 ADD MSTORE PUSH32 0x5061796D656E74207472616E73666572206661696C6564000000000000000000 PUSH1 0x44 DUP3 ADD MSTORE REVERT JUMPDEST PUSH2 0x214F SWAP2 POP DUP3 RETURNDATASIZE DUP5 GT PUSH2 0xD88 JUMPI PUSH2 0xD7A DUP2 DUP4 PUSH2 0x199B JUMP JUMPDEST CODESIZE PUSH2 0x2035 JUMP JUMPDEST DUP5 MLOAD RETURNDATASIZE DUP14 DUP3 RETURNDATACOPY RETURNDATASIZE SWAP1 REVERT JUMPDEST PUSH4 0x4E487B71 PUSH1 0xE0 SHL DUP11 MSTORE PUSH1 0x11 PUSH1 0x4 MSTORE PUSH1 0x24 DUP11 REVERT JUMPDEST DUP3 MLOAD PUSH3 0x461BCD PUSH1 0xE5 SHL DUP2 MSTORE PUSH1 0x4 DUP2 ADD DUP11 SWAP1 MSTORE PUSH1 0x16 PUSH1 0x24 DUP3 ADD MSTORE PUSH22 0x135A5B195CDD1BDB9948185B1C9958591E481C185A59 PUSH1 0x52 SHL PUSH1 0x44 DUP3 ADD MSTORE PUSH1 0x64 SWAP1 REVERT INVALID LOG2 PUSH5 0x6970667358 0x22 SLT KECCAK256 0xDB SSTORE SLT 0xFC EXTCODESIZE 0x2D 0xD6 0xC6 BYTE SWAP2 EQ SWAP3 0xC0 SWAP12 MSTORE8 0xC0 JUMPDEST MLOAD 0x2F PUSH6 0xCAB9E3293A97 0xED OR MOD SHL 0xF 0xD9 PUSH5 0x736F6C6343 STOP ADDMOD EQ STOP CALLER "},"methodIdentifiers":{"acceptJob(uint256)":"63b2f3c9","aiAgent()":"a6d5b732","approveMilestone(uint256)":"c438b40f","clientJobs(address,uint256)":"8facd859","freelancerJobs(address,uint256)":"442f5c88","getClientJobs(address)":"cf2646c2","getFreelancerJobs(address)":"40f70be4","getJob(uint256)":"bf22c457","getMilestone(uint256,uint256)":"8ed9895c","getMilestoneCount(uint256)":"c2010e50","jobCounter()":"50355d76","jobs(uint256)":"180aedf3","owner()":"8da5cb5b","postJob(string,string,uint256)":"5c3b9c4a","postJobWithMilestones(string,string,uint256[])":"05be0478","refundClient(uint256)":"43eed51c","resolveDispute(uint256,bool)":"34b25ee2","setAIAgent(address)":"6ebe941b","stablecoin()":"e9cbd822","submitMilestone(uint256)":"7d64b00b","submitWork(uint256)":"c4c11523"}}}}}