{
  "_format": "hh-sol-artifact-1",
  "contractName": "FreelancePay",
  "sourceName": "contracts/FreelancePay.sol",
  "abi": [
    {
      "inputs": [
        {
          "internalType": "address",
          "name": "_stablecoin",
          "type": "address"
        },
        {
          "internalType": "address",
          "name": "_aiAgent",
          "type": "address"
        }
      ],
      "stateMutability": "nonpayable",
      "type": "constructor"
    },
    {
      "anonymous": false,
      "inputs": [
        {
          "indexed": true,
          "internalType": "uint256",
          "name": "jobId",
          "type": "uint256"
        },
        {
          "indexed": false,
          "internalType": "bool",
          "name": "approved",
          "type": "bool"
        }
      ],
      "name": "DisputeResolved",
      "type": "event"
    },
    {
      "anonymous": false,
      "inputs": [
        {
          "indexed": true,
          "internalType": "uint256",
          "name": "jobId",
          "type": "uint256"
        },
        {
          "indexed": true,
          "internalType": "address",
          "name": "client",
          "type": "address"
        },
        {
          "indexed": false,
          "internalType": "uint256",
          "name": "budget",
          "type": "uint256"
        },
        {
          "indexed": false,
          "internalType": "string",
          "name": "title",
          "type": "string"
        }
      ],
      "name": "JobCreated",
      "type": "event"
    },
    {
      "anonymous": false,
      "inputs": [
        {
          "indexed": true,
          "internalType": "uint256",
          "name": "jobId",
          "type": "uint256"
        }
      ],
      "name": "JobDisputed",
      "type": "event"
    },
    {
      "anonymous": false,
      "inputs": [
        {
          "indexed": true,
          "internalType": "uint256",
          "name": "jobId",
          "type": "uint256"
        },
        {
          "indexed": true,
          "internalType": "address",
          "name": "freelancer",
          "type": "address"
        }
      ],
      "name": "JobSubmitted",
      "type": "event"
    },
    {
      "anonymous": false,
      "inputs": [
        {
          "indexed": true,
          "internalType": "uint256",
          "name": "jobId",
          "type": "uint256"
        },
        {
          "indexed": true,
          "internalType": "address",
          "name": "freelancer",
          "type": "address"
        }
      ],
      "name": "PaymentReleased",
      "type": "event"
    },
    {
      "inputs": [
        {
          "internalType": "uint256",
          "name": "_jobId",
          "type": "uint256"
        }
      ],
      "name": "acceptJob",
      "outputs": [],
      "stateMutability": "nonpayable",
      "type": "function"
    },
    {
      "inputs": [],
      "name": "aiAgent",
      "outputs": [
        {
          "internalType": "address",
          "name": "",
          "type": "address"
        }
      ],
      "stateMutability": "view",
      "type": "function"
    },
    {
      "inputs": [
        {
          "internalType": "address",
          "name": "",
          "type": "address"
        },
        {
          "internalType": "uint256",
          "name": "",
          "type": "uint256"
        }
      ],
      "name": "clientJobs",
      "outputs": [
        {
          "internalType": "uint256",
          "name": "",
          "type": "uint256"
        }
      ],
      "stateMutability": "view",
      "type": "function"
    },
    {
      "inputs": [
        {
          "internalType": "address",
          "name": "",
          "type": "address"
        },
        {
          "internalType": "uint256",
          "name": "",
          "type": "uint256"
        }
      ],
      "name": "freelancerJobs",
      "outputs": [
        {
          "internalType": "uint256",
          "name": "",
          "type": "uint256"
        }
      ],
      "stateMutability": "view",
      "type": "function"
    },
    {
      "inputs": [
        {
          "internalType": "address",
          "name": "_client",
          "type": "address"
        }
      ],
      "name": "getClientJobs",
      "outputs": [
        {
          "internalType": "uint256[]",
          "name": "",
          "type": "uint256[]"
        }
      ],
      "stateMutability": "view",
      "type": "function"
    },
    {
      "inputs": [
        {
          "internalType": "address",
          "name": "_freelancer",
          "type": "address"
        }
      ],
      "name": "getFreelancerJobs",
      "outputs": [
        {
          "internalType": "uint256[]",
          "name": "",
          "type": "uint256[]"
        }
      ],
      "stateMutability": "view",
      "type": "function"
    },
    {
      "inputs": [
        {
          "internalType": "uint256",
          "name": "_jobId",
          "type": "uint256"
        }
      ],
      "name": "getJob",
      "outputs": [
        {
          "components": [
            {
              "internalType": "uint256",
              "name": "id",
              "type": "uint256"
            },
            {
              "internalType": "address",
              "name": "client",
              "type": "address"
            },
            {
              "internalType": "address",
              "name": "freelancer",
              "type": "address"
            },
            {
              "internalType": "uint256",
              "name": "budget",
              "type": "uint256"
            },
            {
              "internalType": "string",
              "name": "title",
              "type": "string"
            },
            {
              "internalType": "string",
              "name": "description",
              "type": "string"
            },
            {
              "internalType": "enum FreelancePay.JobStatus",
              "name": "status",
              "type": "uint8"
            },
            {
              "internalType": "uint256",
              "name": "submissionTime",
              "type": "uint256"
            },
            {
              "internalType": "bool",
              "name": "aiJudgmentMade",
              "type": "bool"
            },
            {
              "internalType": "bool",
              "name": "paymentReleased",
              "type": "bool"
            }
          ],
          "internalType": "struct FreelancePay.Job",
          "name": "",
          "type": "tuple"
        }
      ],
      "stateMutability": "view",
      "type": "function"
    },
    {
      "inputs": [],
      "name": "jobCounter",
      "outputs": [
        {
          "internalType": "uint256",
          "name": "",
          "type": "uint256"
        }
      ],
      "stateMutability": "view",
      "type": "function"
    },
    {
      "inputs": [
        {
          "internalType": "uint256",
          "name": "",
          "type": "uint256"
        }
      ],
      "name": "jobs",
      "outputs": [
        {
          "internalType": "uint256",
          "name": "id",
          "type": "uint256"
        },
        {
          "internalType": "address",
          "name": "client",
          "type": "address"
        },
        {
          "internalType": "address",
          "name": "freelancer",
          "type": "address"
        },
        {
          "internalType": "uint256",
          "name": "budget",
          "type": "uint256"
        },
        {
          "internalType": "string",
          "name": "title",
          "type": "string"
        },
        {
          "internalType": "string",
          "name": "description",
          "type": "string"
        },
        {
          "internalType": "enum FreelancePay.JobStatus",
          "name": "status",
          "type": "uint8"
        },
        {
          "internalType": "uint256",
          "name": "submissionTime",
          "type": "uint256"
        },
        {
          "internalType": "bool",
          "name": "aiJudgmentMade",
          "type": "bool"
        },
        {
          "internalType": "bool",
          "name": "paymentReleased",
          "type": "bool"
        }
      ],
      "stateMutability": "view",
      "type": "function"
    },
    {
      "inputs": [],
      "name": "owner",
      "outputs": [
        {
          "internalType": "address",
          "name": "",
          "type": "address"
        }
      ],
      "stateMutability": "view",
      "type": "function"
    },
    {
      "inputs": [
        {
          "internalType": "string",
          "name": "_title",
          "type": "string"
        },
        {
          "internalType": "string",
          "name": "_description",
          "type": "string"
        },
        {
          "internalType": "uint256",
          "name": "_budget",
          "type": "uint256"
        }
      ],
      "name": "postJob",
      "outputs": [
        {
          "internalType": "uint256",
          "name": "",
          "type": "uint256"
        }
      ],
      "stateMutability": "nonpayable",
      "type": "function"
    },
    {
      "inputs": [
        {
          "internalType": "uint256",
          "name": "_jobId",
          "type": "uint256"
        }
      ],
      "name": "refundClient",
      "outputs": [],
      "stateMutability": "nonpayable",
      "type": "function"
    },
    {
      "inputs": [
        {
          "internalType": "uint256",
          "name": "_jobId",
          "type": "uint256"
        },
        {
          "internalType": "bool",
          "name": "_approved",
          "type": "bool"
        }
      ],
      "name": "resolveDispute",
      "outputs": [],
      "stateMutability": "nonpayable",
      "type": "function"
    },
    {
      "inputs": [
        {
          "internalType": "address",
          "name": "_newAgent",
          "type": "address"
        }
      ],
      "name": "setAIAgent",
      "outputs": [],
      "stateMutability": "nonpayable",
      "type": "function"
    },
    {
      "inputs": [],
      "name": "stablecoin",
      "outputs": [
        {
          "internalType": "contract IERC20",
          "name": "",
          "type": "address"
        }
      ],
      "stateMutability": "view",
      "type": "function"
    },
    {
      "inputs": [
        {
          "internalType": "uint256",
          "name": "_jobId",
          "type": "uint256"
        }
      ],
      "name": "submitWork",
      "outputs": [],
      "stateMutability": "nonpayable",
      "type": "function"
    }
  ],
  "bytecode": "0x60806040523480156200001157600080fd5b5060405162002f2a38038062002f2a83398181016040528101906200003791906200016b565b816000806101000a81548173ffffffffffffffffffffffffffffffffffffffff021916908373ffffffffffffffffffffffffffffffffffffffff16021790555033600160006101000a81548173ffffffffffffffffffffffffffffffffffffffff021916908373ffffffffffffffffffffffffffffffffffffffff16021790555080600260006101000a81548173ffffffffffffffffffffffffffffffffffffffff021916908373ffffffffffffffffffffffffffffffffffffffff1602179055505050620001b2565b600080fd5b600073ffffffffffffffffffffffffffffffffffffffff82169050919050565b6000620001338262000106565b9050919050565b620001458162000126565b81146200015157600080fd5b50565b60008151905062000165816200013a565b92915050565b6000806040838503121562000185576200018462000101565b5b6000620001958582860162000154565b9250506020620001a88582860162000154565b9150509250929050565b612d6880620001c26000396000f3fe608060405234801561001057600080fd5b50600436106101005760003560e01c80636ebe941b11610097578063bf22c45711610066578063bf22c457146102c8578063c4c11523146102f8578063cf2646c214610314578063e9cbd8221461034457610100565b80636ebe941b146102405780638da5cb5b1461025c5780638facd8591461027a578063a6d5b732146102aa57610100565b8063442f5c88116100d3578063442f5c88146101a657806350355d76146101d65780635c3b9c4a146101f457806363b2f3c91461022457610100565b8063180aedf31461010557806334b25ee21461013e57806340f70be41461015a57806343eed51c1461018a575b600080fd5b61011f600480360381019061011a9190611a22565b610362565b6040516101359a99989796959493929190611bc1565b60405180910390f35b61015860048036038101906101539190611c97565b61052d565b005b610174600480360381019061016f9190611d03565b61074f565b6040516101819190611dee565b60405180910390f35b6101a4600480360381019061019f9190611a22565b6107e6565b005b6101c060048036038101906101bb9190611e10565b610a8f565b6040516101cd9190611e50565b60405180910390f35b6101de610ac0565b6040516101eb9190611e50565b60405180910390f35b61020e60048036038101906102099190611fa0565b610ac6565b60405161021b9190611e50565b60405180910390f35b61023e60048036038101906102399190611a22565b610eb7565b005b61025a60048036038101906102559190611d03565b6110b3565b005b610264611187565b604051610271919061202b565b60405180910390f35b610294600480360381019061028f9190611e10565b6111ad565b6040516102a19190611e50565b60405180910390f35b6102b26111de565b6040516102bf919061202b565b60405180910390f35b6102e260048036038101906102dd9190611a22565b611204565b6040516102ef919061219e565b60405180910390f35b610312600480360381019061030d9190611a22565b611491565b005b61032e60048036038101906103299190611d03565b6115ec565b60405161033b9190611dee565b60405180910390f35b61034c611683565b604051610359919061221f565b60405180910390f35b60046020528060005260406000206000915090508060000154908060010160009054906101000a900473ffffffffffffffffffffffffffffffffffffffff16908060020160009054906101000a900473ffffffffffffffffffffffffffffffffffffffff16908060030154908060040180546103dd90612269565b80601f016020809104026020016040519081016040528092919081815260200182805461040990612269565b80156104565780601f1061042b57610100808354040283529160200191610456565b820191906000526020600020905b81548152906001019060200180831161043957829003601f168201915b50505050509080600501805461046b90612269565b80601f016020809104026020016040519081016040528092919081815260200182805461049790612269565b80156104e45780601f106104b9576101008083540402835291602001916104e4565b820191906000526020600020905b8154815290600101906020018083116104c757829003601f168201915b5050505050908060060160009054906101000a900460ff16908060070154908060080160009054906101000a900460ff16908060080160019054906101000a900460ff1690508a565b600260009054906101000a900473ffffffffffffffffffffffffffffffffffffffff1673ffffffffffffffffffffffffffffffffffffffff163373ffffffffffffffffffffffffffffffffffffffff16146105bd576040517f08c379a00000000000000000000000000000000000000000000000000000000081526004016105b4906122e6565b60405180910390fd5b6000600460008481526020019081526020016000209050600260058111156105e8576105e7611b2f565b5b8160060160009054906101000a900460ff16600581111561060c5761060b611b2f565b5b1461064c576040517f08c379a000000000000000000000000000000000000000000000000000000000815260040161064390612352565b60405180910390fd5b60018160080160006101000a81548160ff02191690831515021790555081156106e35760038160060160006101000a81548160ff0219169083600581111561069757610696611b2f565b5b02179055506106a5836116a7565b827f5a87909bff68caaaaf0b3fd9c74eeccc928832f879315e5c6fb7a73612f26c0c60016040516106d69190612372565b60405180910390a261074a565b60048160060160006101000a81548160ff0219169083600581111561070b5761070a611b2f565b5b0217905550827f5a87909bff68caaaaf0b3fd9c74eeccc928832f879315e5c6fb7a73612f26c0c60006040516107419190612372565b60405180910390a25b505050565b6060600660008373ffffffffffffffffffffffffffffffffffffffff1673ffffffffffffffffffffffffffffffffffffffff1681526020019081526020016000208054806020026020016040519081016040528092919081815260200182805480156107da57602002820191906000526020600020905b8154815260200190600101908083116107c6575b50505050509050919050565b60006004600083815260200190815260200160002090508060010160009054906101000a900473ffffffffffffffffffffffffffffffffffffffff1673ffffffffffffffffffffffffffffffffffffffff163373ffffffffffffffffffffffffffffffffffffffff161461088f576040517f08c379a0000000000000000000000000000000000000000000000000000000008152600401610886906123d9565b60405180910390fd5b600460058111156108a3576108a2611b2f565b5b8160060160009054906101000a900460ff1660058111156108c7576108c6611b2f565b5b14610907576040517f08c379a00000000000000000000000000000000000000000000000000000000081526004016108fe90612445565b60405180910390fd5b8060080160019054906101000a900460ff1615610959576040517f08c379a0000000000000000000000000000000000000000000000000000000008152600401610950906124b1565b60405180910390fd5b60058160060160006101000a81548160ff0219169083600581111561098157610980611b2f565b5b021790555060008054906101000a900473ffffffffffffffffffffffffffffffffffffffff1673ffffffffffffffffffffffffffffffffffffffff1663a9059cbb8260010160009054906101000a900473ffffffffffffffffffffffffffffffffffffffff1683600301546040518363ffffffff1660e01b8152600401610a099291906124d1565b6020604051808303816000875af1158015610a28573d6000803e3d6000fd5b505050506040513d601f19601f82011682018060405250810190610a4c919061250f565b610a8b576040517f08c379a0000000000000000000000000000000000000000000000000000000008152600401610a8290612588565b60405180910390fd5b5050565b60066020528160005260406000208181548110610aab57600080fd5b90600052602060002001600091509150505481565b60035481565b6000808211610b0a576040517f08c379a0000000000000000000000000000000000000000000000000000000008152600401610b01906125f4565b60405180910390fd5b60008054906101000a900473ffffffffffffffffffffffffffffffffffffffff1673ffffffffffffffffffffffffffffffffffffffff166323b872dd3330856040518463ffffffff1660e01b8152600401610b6793929190612614565b6020604051808303816000875af1158015610b86573d6000803e3d6000fd5b505050506040513d601f19601f82011682018060405250810190610baa919061250f565b610be9576040517f08c379a0000000000000000000000000000000000000000000000000000000008152600401610be090612697565b60405180910390fd5b60036000815480929190610bfc906126e6565b9190505550600060035490506040518061014001604052808281526020013373ffffffffffffffffffffffffffffffffffffffff168152602001600073ffffffffffffffffffffffffffffffffffffffff16815260200184815260200186815260200185815260200160006005811115610c7957610c78611b2f565b5b81526020016000815260200160001515815260200160001515815250600460008381526020019081526020016000206000820151816000015560208201518160010160006101000a81548173ffffffffffffffffffffffffffffffffffffffff021916908373ffffffffffffffffffffffffffffffffffffffff16021790555060408201518160020160006101000a81548173ffffffffffffffffffffffffffffffffffffffff021916908373ffffffffffffffffffffffffffffffffffffffff160217905550606082015181600301556080820151816004019081610d5f91906128d0565b5060a0820151816005019081610d7591906128d0565b5060c08201518160060160006101000a81548160ff02191690836005811115610da157610da0611b2f565b5b021790555060e082015181600701556101008201518160080160006101000a81548160ff0219169083151502179055506101208201518160080160016101000a81548160ff021916908315150217905550905050600560003373ffffffffffffffffffffffffffffffffffffffff1673ffffffffffffffffffffffffffffffffffffffff1681526020019081526020016000208190806001815401808255809150506001900390600052602060002001600090919091909150553373ffffffffffffffffffffffffffffffffffffffff16817f6f3a5227c058380f6d30b3c63e04e4b049f2df6d1780f11e4ff1b3e9728a36528588604051610ea49291906129a2565b60405180910390a3809150509392505050565b600060046000838152602001908152602001600020905060006005811115610ee257610ee1611b2f565b5b8160060160009054906101000a900460ff166005811115610f0657610f05611b2f565b5b14610f46576040517f08c379a0000000000000000000000000000000000000000000000000000000008152600401610f3d90612a1e565b60405180910390fd5b600073ffffffffffffffffffffffffffffffffffffffff168160020160009054906101000a900473ffffffffffffffffffffffffffffffffffffffff1673ffffffffffffffffffffffffffffffffffffffff1614610fd9576040517f08c379a0000000000000000000000000000000000000000000000000000000008152600401610fd090612a8a565b60405180910390fd5b338160020160006101000a81548173ffffffffffffffffffffffffffffffffffffffff021916908373ffffffffffffffffffffffffffffffffffffffff16021790555060018160060160006101000a81548160ff0219169083600581111561104457611043611b2f565b5b0217905550600660003373ffffffffffffffffffffffffffffffffffffffff1673ffffffffffffffffffffffffffffffffffffffff1681526020019081526020016000208290806001815401808255809150506001900390600052602060002001600090919091909150555050565b600160009054906101000a900473ffffffffffffffffffffffffffffffffffffffff1673ffffffffffffffffffffffffffffffffffffffff163373ffffffffffffffffffffffffffffffffffffffff1614611143576040517f08c379a000000000000000000000000000000000000000000000000000000000815260040161113a90612af6565b60405180910390fd5b80600260006101000a81548173ffffffffffffffffffffffffffffffffffffffff021916908373ffffffffffffffffffffffffffffffffffffffff16021790555050565b600160009054906101000a900473ffffffffffffffffffffffffffffffffffffffff1681565b600560205281600052604060002081815481106111c957600080fd5b90600052602060002001600091509150505481565b600260009054906101000a900473ffffffffffffffffffffffffffffffffffffffff1681565b61120c611943565b6004600083815260200190815260200160002060405180610140016040529081600082015481526020016001820160009054906101000a900473ffffffffffffffffffffffffffffffffffffffff1673ffffffffffffffffffffffffffffffffffffffff1673ffffffffffffffffffffffffffffffffffffffff1681526020016002820160009054906101000a900473ffffffffffffffffffffffffffffffffffffffff1673ffffffffffffffffffffffffffffffffffffffff1673ffffffffffffffffffffffffffffffffffffffff168152602001600382015481526020016004820180546112fb90612269565b80601f016020809104026020016040519081016040528092919081815260200182805461132790612269565b80156113745780601f1061134957610100808354040283529160200191611374565b820191906000526020600020905b81548152906001019060200180831161135757829003601f168201915b5050505050815260200160058201805461138d90612269565b80601f01602080910402602001604051908101604052809291908181526020018280546113b990612269565b80156114065780601f106113db57610100808354040283529160200191611406565b820191906000526020600020905b8154815290600101906020018083116113e957829003601f168201915b505050505081526020016006820160009054906101000a900460ff16600581111561143457611433611b2f565b5b600581111561144657611445611b2f565b5b8152602001600782015481526020016008820160009054906101000a900460ff161515151581526020016008820160019054906101000a900460ff1615151515815250509050919050565b60006004600083815260200190815260200160002090503373ffffffffffffffffffffffffffffffffffffffff168160020160009054906101000a900473ffffffffffffffffffffffffffffffffffffffff1673ffffffffffffffffffffffffffffffffffffffff161461153a576040517f08c379a000000000000000000000000000000000000000000000000000000000815260040161153190612b62565b60405180910390fd5b6001600581111561154e5761154d611b2f565b5b8160060160009054906101000a900460ff16600581111561157257611571611b2f565b5b146115b2576040517f08c379a00000000000000000000000000000000000000000000000000000000081526004016115a990612bce565b60405180910390fd5b60028160060160006101000a81548160ff021916908360058111156115da576115d9611b2f565b5b02179055504281600701819055505050565b6060600560008373ffffffffffffffffffffffffffffffffffffffff1673ffffffffffffffffffffffffffffffffffffffff16815260200190815260200160002080548060200260200160405190810160405280929190818152602001828054801561167757602002820191906000526020600020905b815481526020019060010190808311611663575b50505050509050919050565b60008054906101000a900473ffffffffffffffffffffffffffffffffffffffff1681565b6000600460008381526020019081526020016000209050600360058111156116d2576116d1611b2f565b5b8160060160009054906101000a900460ff1660058111156116f6576116f5611b2f565b5b14611736576040517f08c379a000000000000000000000000000000000000000000000000000000000815260040161172d90612c3a565b60405180910390fd5b8060080160019054906101000a900460ff1615611788576040517f08c379a000000000000000000000000000000000000000000000000000000000815260040161177f90612ca6565b60405180910390fd5b60018160080160016101000a81548160ff02191690831515021790555060058160060160006101000a81548160ff021916908360058111156117cd576117cc611b2f565b5b021790555060008054906101000a900473ffffffffffffffffffffffffffffffffffffffff1673ffffffffffffffffffffffffffffffffffffffff1663a9059cbb8260020160009054906101000a900473ffffffffffffffffffffffffffffffffffffffff1683600301546040518363ffffffff1660e01b81526004016118559291906124d1565b6020604051808303816000875af1158015611874573d6000803e3d6000fd5b505050506040513d601f19601f82011682018060405250810190611898919061250f565b6118d7576040517f08c379a00000000000000000000000000000000000000000000000000000000081526004016118ce90612d12565b60405180910390fd5b8060020160009054906101000a900473ffffffffffffffffffffffffffffffffffffffff1673ffffffffffffffffffffffffffffffffffffffff16827f4156924bd7e340b19303af17bf5323d66fae5dc16f350319092e0839c854368360405160405180910390a35050565b60405180610140016040528060008152602001600073ffffffffffffffffffffffffffffffffffffffff168152602001600073ffffffffffffffffffffffffffffffffffffffff168152602001600081526020016060815260200160608152602001600060058111156119b9576119b8611b2f565b5b8152602001600081526020016000151581526020016000151581525090565b6000604051905090565b600080fd5b600080fd5b6000819050919050565b6119ff816119ec565b8114611a0a57600080fd5b50565b600081359050611a1c816119f6565b92915050565b600060208284031215611a3857611a376119e2565b5b6000611a4684828501611a0d565b91505092915050565b611a58816119ec565b82525050565b600073ffffffffffffffffffffffffffffffffffffffff82169050919050565b6000611a8982611a5e565b9050919050565b611a9981611a7e565b82525050565b600081519050919050565b600082825260208201905092915050565b60005b83811015611ad9578082015181840152602081019050611abe565b60008484015250505050565b6000601f19601f8301169050919050565b6000611b0182611a9f565b611b0b8185611aaa565b9350611b1b818560208601611abb565b611b2481611ae5565b840191505092915050565b7f4e487b7100000000000000000000000000000000000000000000000000000000600052602160045260246000fd5b60068110611b6f57611b6e611b2f565b5b50565b6000819050611b8082611b5e565b919050565b6000611b9082611b72565b9050919050565b611ba081611b85565b82525050565b60008115159050919050565b611bbb81611ba6565b82525050565b600061014082019050611bd7600083018d611a4f565b611be4602083018c611a90565b611bf1604083018b611a90565b611bfe606083018a611a4f565b8181036080830152611c108189611af6565b905081810360a0830152611c248188611af6565b9050611c3360c0830187611b97565b611c4060e0830186611a4f565b611c4e610100830185611bb2565b611c5c610120830184611bb2565b9b9a5050505050505050505050565b611c7481611ba6565b8114611c7f57600080fd5b50565b600081359050611c9181611c6b565b92915050565b60008060408385031215611cae57611cad6119e2565b5b6000611cbc85828601611a0d565b9250506020611ccd85828601611c82565b9150509250929050565b611ce081611a7e565b8114611ceb57600080fd5b50565b600081359050611cfd81611cd7565b92915050565b600060208284031215611d1957611d186119e2565b5b6000611d2784828501611cee565b91505092915050565b600081519050919050565b600082825260208201905092915050565b6000819050602082019050919050565b611d65816119ec565b82525050565b6000611d778383611d5c565b60208301905092915050565b6000602082019050919050565b6000611d9b82611d30565b611da58185611d3b565b9350611db083611d4c565b8060005b83811015611de1578151611dc88882611d6b565b9750611dd383611d83565b925050600181019050611db4565b5085935050505092915050565b60006020820190508181036000830152611e088184611d90565b905092915050565b60008060408385031215611e2757611e266119e2565b5b6000611e3585828601611cee565b9250506020611e4685828601611a0d565b9150509250929050565b6000602082019050611e656000830184611a4f565b92915050565b600080fd5b600080fd5b7f4e487b7100000000000000000000000000000000000000000000000000000000600052604160045260246000fd5b611ead82611ae5565b810181811067ffffffffffffffff82111715611ecc57611ecb611e75565b5b80604052505050565b6000611edf6119d8565b9050611eeb8282611ea4565b919050565b600067ffffffffffffffff821115611f0b57611f0a611e75565b5b611f1482611ae5565b9050602081019050919050565b82818337600083830152505050565b6000611f43611f3e84611ef0565b611ed5565b905082815260208101848484011115611f5f57611f5e611e70565b5b611f6a848285611f21565b509392505050565b600082601f830112611f8757611f86611e6b565b5b8135611f97848260208601611f30565b91505092915050565b600080600060608486031215611fb957611fb86119e2565b5b600084013567ffffffffffffffff811115611fd757611fd66119e7565b5b611fe386828701611f72565b935050602084013567ffffffffffffffff811115612004576120036119e7565b5b61201086828701611f72565b925050604061202186828701611a0d565b9150509250925092565b60006020820190506120406000830184611a90565b92915050565b61204f81611a7e565b82525050565b600082825260208201905092915050565b600061207182611a9f565b61207b8185612055565b935061208b818560208601611abb565b61209481611ae5565b840191505092915050565b6120a881611b85565b82525050565b6120b781611ba6565b82525050565b6000610140830160008301516120d66000860182611d5c565b5060208301516120e96020860182612046565b5060408301516120fc6040860182612046565b50606083015161210f6060860182611d5c565b50608083015184820360808601526121278282612066565b91505060a083015184820360a08601526121418282612066565b91505060c083015161215660c086018261209f565b5060e083015161216960e0860182611d5c565b5061010083015161217e6101008601826120ae565b506101208301516121936101208601826120ae565b508091505092915050565b600060208201905081810360008301526121b881846120bd565b905092915050565b6000819050919050565b60006121e56121e06121db84611a5e565b6121c0565b611a5e565b9050919050565b60006121f7826121ca565b9050919050565b6000612209826121ec565b9050919050565b612219816121fe565b82525050565b60006020820190506122346000830184612210565b92915050565b7f4e487b7100000000000000000000000000000000000000000000000000000000600052602260045260246000fd5b6000600282049050600182168061228157607f821691505b6020821081036122945761229361223a565b5b50919050565b7f4f6e6c79204149206167656e7420616c6c6f7765640000000000000000000000600082015250565b60006122d0601583611aaa565b91506122db8261229a565b602082019050919050565b600060208201905081810360008301526122ff816122c3565b9050919050565b7f496e76616c6964206a6f62207374617475730000000000000000000000000000600082015250565b600061233c601283611aaa565b915061234782612306565b602082019050919050565b6000602082019050818103600083015261236b8161232f565b9050919050565b60006020820190506123876000830184611bb2565b92915050565b7f4f6e6c7920636c69656e742063616e20726566756e6400000000000000000000600082015250565b60006123c3601683611aaa565b91506123ce8261238d565b602082019050919050565b600060208201905081810360008301526123f2816123b6565b9050919050565b7f4a6f62206e6f7420646973707574656400000000000000000000000000000000600082015250565b600061242f601083611aaa565b915061243a826123f9565b602082019050919050565b6000602082019050818103600083015261245e81612422565b9050919050565b7f416c72656164792070616964206f757400000000000000000000000000000000600082015250565b600061249b601083611aaa565b91506124a682612465565b602082019050919050565b600060208201905081810360008301526124ca8161248e565b9050919050565b60006040820190506124e66000830185611a90565b6124f36020830184611a4f565b9392505050565b60008151905061250981611c6b565b92915050565b600060208284031215612525576125246119e2565b5b6000612533848285016124fa565b91505092915050565b7f526566756e64206661696c656400000000000000000000000000000000000000600082015250565b6000612572600d83611aaa565b915061257d8261253c565b602082019050919050565b600060208201905081810360008301526125a181612565565b9050919050565b7f427564676574206d7573742062652067726561746572207468616e2030000000600082015250565b60006125de601d83611aaa565b91506125e9826125a8565b602082019050919050565b6000602082019050818103600083015261260d816125d1565b9050919050565b60006060820190506126296000830186611a90565b6126366020830185611a90565b6126436040830184611a4f565b949350505050565b7f5472616e73666572206661696c65640000000000000000000000000000000000600082015250565b6000612681600f83611aaa565b915061268c8261264b565b602082019050919050565b600060208201905081810360008301526126b081612674565b9050919050565b7f4e487b7100000000000000000000000000000000000000000000000000000000600052601160045260246000fd5b60006126f1826119ec565b91507fffffffffffffffffffffffffffffffffffffffffffffffffffffffffffffffff8203612723576127226126b7565b5b600182019050919050565b60008190508160005260206000209050919050565b60006020601f8301049050919050565b600082821b905092915050565b6000600883026127907fffffffffffffffffffffffffffffffffffffffffffffffffffffffffffffffff82612753565b61279a8683612753565b95508019841693508086168417925050509392505050565b60006127cd6127c86127c3846119ec565b6121c0565b6119ec565b9050919050565b6000819050919050565b6127e7836127b2565b6127fb6127f3826127d4565b848454612760565b825550505050565b600090565b612810612803565b61281b8184846127de565b505050565b5b8181101561283f57612834600082612808565b600181019050612821565b5050565b601f821115612884576128558161272e565b61285e84612743565b8101602085101561286d578190505b61288161287985612743565b830182612820565b50505b505050565b600082821c905092915050565b60006128a760001984600802612889565b1980831691505092915050565b60006128c08383612896565b9150826002028217905092915050565b6128d982611a9f565b67ffffffffffffffff8111156128f2576128f1611e75565b5b6128fc8254612269565b612907828285612843565b600060209050601f83116001811461293a5760008415612928578287015190505b61293285826128b4565b86555061299a565b601f1984166129488661272e565b60005b828110156129705784890151825560018201915060208501945060208101905061294b565b8683101561298d5784890151612989601f891682612896565b8355505b6001600288020188555050505b505050505050565b60006040820190506129b76000830185611a4f565b81810360208301526129c98184611af6565b90509392505050565b7f4a6f62206e6f7420617661696c61626c65000000000000000000000000000000600082015250565b6000612a08601183611aaa565b9150612a13826129d2565b602082019050919050565b60006020820190508181036000830152612a37816129fb565b9050919050565b7f4a6f6220616c7265616479206163636570746564000000000000000000000000600082015250565b6000612a74601483611aaa565b9150612a7f82612a3e565b602082019050919050565b60006020820190508181036000830152612aa381612a67565b9050919050565b7f4f6e6c79206f776e657220616c6c6f7765640000000000000000000000000000600082015250565b6000612ae0601283611aaa565b9150612aeb82612aaa565b602082019050919050565b60006020820190508181036000830152612b0f81612ad3565b9050919050565b7f4e6f74207468652061737369676e656420667265656c616e6365720000000000600082015250565b6000612b4c601b83611aaa565b9150612b5782612b16565b602082019050919050565b60006020820190508181036000830152612b7b81612b3f565b9050919050565b7f4a6f62206e6f7420696e2070726f677265737300000000000000000000000000600082015250565b6000612bb8601383611aaa565b9150612bc382612b82565b602082019050919050565b60006020820190508181036000830152612be781612bab565b9050919050565b7f4a6f62206e6f7420617070726f76656400000000000000000000000000000000600082015250565b6000612c24601083611aaa565b9150612c2f82612bee565b602082019050919050565b60006020820190508181036000830152612c5381612c17565b9050919050565b7f5061796d656e7420616c72656164792072656c65617365640000000000000000600082015250565b6000612c90601883611aaa565b9150612c9b82612c5a565b602082019050919050565b60006020820190508181036000830152612cbf81612c83565b9050919050565b7f5061796d656e74207472616e73666572206661696c6564000000000000000000600082015250565b6000612cfc601783611aaa565b9150612d0782612cc6565b602082019050919050565b60006020820190508181036000830152612d2b81612cef565b905091905056fea26469706673582212201c6c883c2a3fc3f779085b0b1e289da9f74996039b6c97a5bb7700f7f5360c0064736f6c63430008140033",
  "linkReferences": {},
  "deployedLinkReferences": {}
}