{
  "_format": "hh-sol-artifact-1",
  "contractName": "FreelancePay",
  "sourceName": "contracts/FreelancePay.sol",
  "abi": [
    {
      "inputs": [
        {
          "internalType": "address",
          "name": "_stablecoin",
          "type": "address"
        },
        {
          "internalType": "address",
          "name": "_aiAgent",
          "type": "address"
        }
      ],
      "stateMutability": "nonpayable",
      "type": "constructor"
    },
    {
      "anonymous": false,
      "inputs": [
        {
          "indexed": true,
          "internalType": "uint256",
          "name": "jobId",
          "type": "uint256"
        },
        {
          "indexed": false,
          "internalType": "uint256",
          "name": "freelancerAmount",
          "type": "uint256"
        },
        {
          "indexed": false,
          "internalType": "uint256",
          "name": "clientRefund",
          "type": "uint256"
        }
      ],
      "name": "DisputePayout",
      "type": "event"
    },
    {
      "anonymous": false,
      "inputs": [
        {
          "indexed": true,
          "internalType": "uint256",
          "name": "jobId",
          "type": "uint256"
        },
        {
          "indexed": false,
          "internalType": "bool",
          "name": "approved",
          "type": "bool"
        }
      ],
      "name": "DisputeResolved",
      "type": "event"
    },
    {
      "anonymous": false,
      "inputs": [
        {
          "indexed": true,
          "internalType": "uint256",
          "name": "jobId",
          "type": "uint256"
        },
        {
          "indexed": true,
          "internalType": "address",
          "name": "client",
          "type": "address"
        },
        {
          "indexed": false,
          "internalType": "uint256",
          "name": "budget",
          "type": "uint256"
        },
        {
          "indexed": false,
          "internalType": "string",
          "name": "title",
          "type": "string"
        }
      ],
      "name": "JobCreated",
      "type": "event"
    },
    {
      "anonymous": false,
      "inputs": [
        {
          "indexed": true,
          "internalType": "uint256",
          "name": "jobId",
          "type": "uint256"
        }
      ],
      "name": "JobDisputed",
      "type": "event"
    },
    {
      "anonymous": false,
      "inputs": [
        {
          "indexed": true,
          "internalType": "uint256",
          "name": "jobId",
          "type": "uint256"
        },
        {
          "indexed": true,
          "internalType": "address",
          "name": "freelancer",
          "type": "address"
        }
      ],
      "name": "JobSubmitted",
      "type": "event"
    },
    {
      "anonymous": false,
      "inputs": [
        {
          "indexed": true,
          "internalType": "uint256",
          "name": "jobId",
          "type": "uint256"
        },
        {
          "indexed": false,
          "internalType": "uint256",
          "name": "index",
          "type": "uint256"
        },
        {
          "indexed": false,
          "internalType": "uint256",
          "name": "amount",
          "type": "uint256"
        }
      ],
      "name": "MilestoneAdded",
      "type": "event"
    },
    {
      "anonymous": false,
      "inputs": [
        {
          "indexed": true,
          "internalType": "uint256",
          "name": "jobId",
          "type": "uint256"
        },
        {
          "indexed": false,
          "internalType": "uint256",
          "name": "index",
          "type": "uint256"
        }
      ],
      "name": "MilestoneApproved",
      "type": "event"
    },
    {
      "anonymous": false,
      "inputs": [
        {
          "indexed": true,
          "internalType": "uint256",
          "name": "jobId",
          "type": "uint256"
        },
        {
          "indexed": false,
          "internalType": "uint256",
          "name": "index",
          "type": "uint256"
        },
        {
          "indexed": false,
          "internalType": "uint256",
          "name": "amount",
          "type": "uint256"
        }
      ],
      "name": "MilestonePaid",
      "type": "event"
    },
    {
      "anonymous": false,
      "inputs": [
        {
          "indexed": true,
          "internalType": "uint256",
          "name": "jobId",
          "type": "uint256"
        },
        {
          "indexed": false,
          "internalType": "uint256",
          "name": "index",
          "type": "uint256"
        }
      ],
      "name": "MilestoneSubmitted",
      "type": "event"
    },
    {
      "anonymous": false,
      "inputs": [
        {
          "indexed": true,
          "internalType": "uint256",
          "name": "jobId",
          "type": "uint256"
        },
        {
          "indexed": true,
          "internalType": "address",
          "name": "freelancer",
          "type": "address"
        }
      ],
      "name": "PaymentReleased",
      "type": "event"
    },
    {
      "inputs": [
        {
          "internalType": "uint256",
          "name": "_jobId",
          "type": "uint256"
        }
      ],
      "name": "acceptJob",
      "outputs": [],
      "stateMutability": "nonpayable",
      "type": "function"
    },
    {
      "inputs": [],
      "name": "aiAgent",
      "outputs": [
        {
          "internalType": "address",
          "name": "",
          "type": "address"
        }
      ],
      "stateMutability": "view",
      "type": "function"
    },
    {
      "inputs": [
        {
          "internalType": "uint256",
          "name": "_jobId",
          "type": "uint256"
        }
      ],
      "name": "approveMilestone",
      "outputs": [],
      "stateMutability": "nonpayable",
      "type": "function"
    },
    {
      "inputs": [
        {
          "internalType": "address",
          "name": "",
          "type": "address"
        },
        {
          "internalType": "uint256",
          "name": "",
          "type": "uint256"
        }
      ],
      "name": "clientJobs",
      "outputs": [
        {
          "internalType": "uint256",
          "name": "",
          "type": "uint256"
        }
      ],
      "stateMutability": "view",
      "type": "function"
    },
    {
      "inputs": [
        {
          "internalType": "address",
          "name": "",
          "type": "address"
        },
        {
          "internalType": "uint256",
          "name": "",
          "type": "uint256"
        }
      ],
      "name": "freelancerJobs",
      "outputs": [
        {
          "internalType": "uint256",
          "name": "",
          "type": "uint256"
        }
      ],
      "stateMutability": "view",
      "type": "function"
    },
    {
      "inputs": [
        {
          "internalType": "address",
          "name": "_client",
          "type": "address"
        }
      ],
      "name": "getClientJobs",
      "outputs": [
        {
          "internalType": "uint256[]",
          "name": "",
          "type": "uint256[]"
        }
      ],
      "stateMutability": "view",
      "type": "function"
    },
    {
      "inputs": [
        {
          "internalType": "address",
          "name": "_freelancer",
          "type": "address"
        }
      ],
      "name": "getFreelancerJobs",
      "outputs": [
        {
          "internalType": "uint256[]",
          "name": "",
          "type": "uint256[]"
        }
      ],
      "stateMutability": "view",
      "type": "function"
    },
    {
      "inputs": [
        {
          "internalType": "uint256",
          "name": "_jobId",
          "type": "uint256"
        }
      ],
      "name": "getJob",
      "outputs": [
        {
          "components": [
            {
              "internalType": "uint256",
              "name": "id",
              "type": "uint256"
            },
            {
              "internalType": "address",
              "name": "client",
              "type": "address"
            },
            {
              "internalType": "address",
              "name": "freelancer",
              "type": "address"
            },
            {
              "internalType": "uint256",
              "name": "budget",
              "type": "uint256"
            },
            {
              "internalType": "string",
              "name": "title",
              "type": "string"
            },
            {
              "internalType": "string",
              "name": "description",
              "type": "string"
            },
            {
              "internalType": "enum FreelancePay.JobStatus",
              "name": "status",
              "type": "uint8"
            },
            {
              "internalType": "uint256",
              "name": "submissionTime",
              "type": "uint256"
            },
            {
              "internalType": "bool",
              "name": "aiJudgmentMade",
              "type": "bool"
            },
            {
              "internalType": "bool",
              "name": "paymentReleased",
              "type": "bool"
            },
            {
              "internalType": "uint256",
              "name": "milestoneCount",
              "type": "uint256"
            },
            {
              "internalType": "uint256",
              "name": "currentMilestone",
              "type": "uint256"
            },
            {
              "internalType": "uint256",
              "name": "escrowRemaining",
              "type": "uint256"
            }
          ],
          "internalType": "struct FreelancePay.Job",
          "name": "",
          "type": "tuple"
        }
      ],
      "stateMutability": "view",
      "type": "function"
    },
    {
      "inputs": [
        {
          "internalType": "uint256",
          "name": "_jobId",
          "type": "uint256"
        },
        {
          "internalType": "uint256",
          "name": "_index",
          "type": "uint256"
        }
      ],
      "name": "getMilestone",
      "outputs": [
        {
          "components": [
            {
              "internalType": "uint256",
              "name": "amount",
              "type": "uint256"
            },
            {
              "internalType": "bool",
              "name": "submitted",
              "type": "bool"
            },
            {
              "internalType": "bool",
              "name": "approved",
              "type": "bool"
            },
            {
              "internalType": "bool",
              "name": "released",
              "type": "bool"
            }
          ],
          "internalType": "struct FreelancePay.Milestone",
          "name": "",
          "type": "tuple"
        }
      ],
      "stateMutability": "view",
      "type": "function"
    },
    {
      "inputs": [
        {
          "internalType": "uint256",
          "name": "_jobId",
          "type": "uint256"
        }
      ],
      "name": "getMilestoneCount",
      "outputs": [
        {
          "internalType": "uint256",
          "name": "",
          "type": "uint256"
        }
      ],
      "stateMutability": "view",
      "type": "function"
    },
    {
      "inputs": [],
      "name": "jobCounter",
      "outputs": [
        {
          "internalType": "uint256",
          "name": "",
          "type": "uint256"
        }
      ],
      "stateMutability": "view",
      "type": "function"
    },
    {
      "inputs": [
        {
          "internalType": "uint256",
          "name": "",
          "type": "uint256"
        }
      ],
      "name": "jobs",
      "outputs": [
        {
          "internalType": "uint256",
          "name": "id",
          "type": "uint256"
        },
        {
          "internalType": "address",
          "name": "client",
          "type": "address"
        },
        {
          "internalType": "address",
          "name": "freelancer",
          "type": "address"
        },
        {
          "internalType": "uint256",
          "name": "budget",
          "type": "uint256"
        },
        {
          "internalType": "string",
          "name": "title",
          "type": "string"
        },
        {
          "internalType": "string",
          "name": "description",
          "type": "string"
        },
        {
          "internalType": "enum FreelancePay.JobStatus",
          "name": "status",
          "type": "uint8"
        },
        {
          "internalType": "uint256",
          "name": "submissionTime",
          "type": "uint256"
        },
        {
          "internalType": "bool",
          "name": "aiJudgmentMade",
          "type": "bool"
        },
        {
          "internalType": "bool",
          "name": "paymentReleased",
          "type": "bool"
        },
        {
          "internalType": "uint256",
          "name": "milestoneCount",
          "type": "uint256"
        },
        {
          "internalType": "uint256",
          "name": "currentMilestone",
          "type": "uint256"
        },
        {
          "internalType": "uint256",
          "name": "escrowRemaining",
          "type": "uint256"
        }
      ],
      "stateMutability": "view",
      "type": "function"
    },
    {
      "inputs": [],
      "name": "owner",
      "outputs": [
        {
          "internalType": "address",
          "name": "",
          "type": "address"
        }
      ],
      "stateMutability": "view",
      "type": "function"
    },
    {
      "inputs": [
        {
          "internalType": "string",
          "name": "_title",
          "type": "string"
        },
        {
          "internalType": "string",
          "name": "_description",
          "type": "string"
        },
        {
          "internalType": "uint256",
          "name": "_budget",
          "type": "uint256"
        }
      ],
      "name": "postJob",
      "outputs": [
        {
          "internalType": "uint256",
          "name": "",
          "type": "uint256"
        }
      ],
      "stateMutability": "nonpayable",
      "type": "function"
    },
    {
      "inputs": [
        {
          "internalType": "string",
          "name": "_title",
          "type": "string"
        },
        {
          "internalType": "string",
          "name": "_description",
          "type": "string"
        },
        {
          "internalType": "uint256[]",
          "name": "_milestones",
          "type": "uint256[]"
        }
      ],
      "name": "postJobWithMilestones",
      "outputs": [
        {
          "internalType": "uint256",
          "name": "",
          "type": "uint256"
        }
      ],
      "stateMutability": "nonpayable",
      "type": "function"
    },
    {
      "inputs": [
        {
          "internalType": "uint256",
          "name": "_jobId",
          "type": "uint256"
        }
      ],
      "name": "refundClient",
      "outputs": [],
      "stateMutability": "nonpayable",
      "type": "function"
    },
    {
      "inputs": [
        {
          "internalType": "uint256",
          "name": "_jobId",
          "type": "uint256"
        },
        {
          "internalType": "bool",
          "name": "_approved",
          "type": "bool"
        }
      ],
      "name": "resolveDispute",
      "outputs": [],
      "stateMutability": "nonpayable",
      "type": "function"
    },
    {
      "inputs": [
        {
          "internalType": "uint256",
          "name": "_jobId",
          "type": "uint256"
        },
        {
          "internalType": "uint256",
          "name": "freelancerBps",
          "type": "uint256"
        }
      ],
      "name": "resolveDisputeWithSplit",
      "outputs": [],
      "stateMutability": "nonpayable",
      "type": "function"
    },
    {
      "inputs": [
        {
          "internalType": "address",
          "name": "_newAgent",
          "type": "address"
        }
      ],
      "name": "setAIAgent",
      "outputs": [],
      "stateMutability": "nonpayable",
      "type": "function"
    },
    {
      "inputs": [],
      "name": "stablecoin",
      "outputs": [
        {
          "internalType": "contract IERC20",
          "name": "",
          "type": "address"
        }
      ],
      "stateMutability": "view",
      "type": "function"
    },
    {
      "inputs": [
        {
          "internalType": "uint256",
          "name": "_jobId",
          "type": "uint256"
        }
      ],
      "name": "submitMilestone",
      "outputs": [],
      "stateMutability": "nonpayable",
      "type": "function"
    },
    {
      "inputs": [
        {
          "internalType": "uint256",
          "name": "_jobId",
          "type": "uint256"
        }
      ],
      "name": "submitWork",
      "outputs": [],
      "stateMutability": "nonpayable",
      "type": "function"
    }
  ],
  "bytecode": "0x608034620000a157601f6200263c38819003918201601f19168301916001600160401b03831184841017620000a6578084926040948552833981010312620000a1576200005a60206200005283620000bc565b9201620000bc565b600080546001600160a01b03199081166001600160a01b039485161790915560018054821633179055600280549091169190921617905560405161256a9081620000d28239f35b600080fd5b634e487b7160e01b600052604160045260246000fd5b51906001600160a01b0382168203620000a15756fe6080604052600436101561001257600080fd5b60003560e01c806305be04781461158d578063180aedf31461148c57806334b25ee21461139c57806340f70be41461132457806343eed51c1461118a578063442f5c881461114057806350355d76146111225780635c3b9c4a14610b8457806363b2f3c914610a8b5780636e939a72146107305780636ebe941b146106af5780637d64b00b146101c45780638da5cb5b146106865780638ed9895c146105905780638facd85914610538578063a6d5b7321461050f578063bf22c45714610302578063c2010e50146102d3578063c438b40f146101c9578063c4c11523146101c4578063cf2646c21461013c5763e9cbd8221461010e57600080fd5b34610137576000366003190112610137576000546040516001600160a01b039091168152602090f35b600080fd5b3461013757602080600319360112610137576001600160a01b0361015e611dec565b1660005260068152604060002090604051908181845491828152019360005281600020916000905b8282106101ad576101a98561019d81890382611c48565b60405191829182611e02565b0390f35b835486529485019460019384019390910190610186565b611e81565b3461013757602036600319011261013757600435806000526004602052604060002060018060a01b03600182015416330361028e5760ff6006820154169060068210156102785761021e6002600a93146122b9565b61022781612305565b015460001981019081116102625760207f939da3b627c123c81fe5aacebf925163337a0d4f8a03724640618078cad2489491604051908152a2005b634e487b7160e01b600052601160045260246000fd5b634e487b7160e01b600052602160045260246000fd5b60405162461bcd60e51b815260206004820152601760248201527f4f6e6c7920636c69656e742063616e20617070726f76650000000000000000006044820152606490fd5b346101375760203660031901126101375760043560005260046020526020600960406000200154604051908152f35b3461013757602036600319011261013757600061018060405161032481611c11565b82815282602082015282604082015282606082015260606080820152606060a08201528260c08201528260e0820152826101008201528261012082015282610140820152826101608201520152600435600052600460205260406000206040519061038e82611c11565b8054825260018101546001600160a01b0390811660208401526002820154166040830152600381015460608301526103c860048201611cf9565b60808301526103d960058201611cf9565b60a083015260ff60068201541690600682101561027857600b9160c0840152600781015460e084015260ff6008820154818116151561010086015260081c1615156101208401526009810154610140840152600a81015461016084015201546101808201526040518091602082528051602083015260018060a01b03602082015116604083015260018060a01b0360408201511660608301526060810151608083015260808101516101806104b561049f6101a0938460a08801526101c0870190611d9f565b60a0850151868203601f190160c0880152611d9f565b926104c860c082015160e0870190611ddf565b60e081015161010086015261010081015115156101208601526101208101511515610140860152610140810151610160860152610160810151828601520151908301520390f35b34610137576000366003190112610137576002546040516001600160a01b039091168152602090f35b3461013757604036600319011261013757610551611dec565b6001600160a01b03166000908152600660205260409020805460243591908210156101375760209161058291611e3d565b90546040519160031b1c8152f35b346101375761059e36611e6b565b90604051906105ac82611c2d565b6000825260006060602093828582015282604082015201528060005260058252604060002054831015610651576080926105f1916000526005835260406000206120a3565b50906040516105ff81611c2d565b600183549384835201549180820160ff84161515815260ff60606040850194828760081c1615158652019460101c16151584526040519485525115159084015251151560408301525115156060820152f35b60405162461bcd60e51b815260048101839052600d60248201526c092dcecc2d8d2c840d2dcc8caf609b1b6044820152606490fd5b34610137576000366003190112610137576001546040516001600160a01b039091168152602090f35b34610137576020366003190112610137576106c8611dec565b6001546001600160a01b039190821633036106f657166001600160601b0360a01b6002541617600255600080f35b60405162461bcd60e51b815260206004820152601260248201527113db9b1e481bdddb995c88185b1b1bddd95960721b6044820152606490fd5b346101375761073e36611e6b565b6002546001600160a01b039061075790821633146121e5565b82600052602060048152604060002092600684019081549460ff86166006811015610278578060026107929214908115610a80575b50612229565b600881019485549360ff8560081c16610a3b57600b8301968754988915916107ba831561226a565b61271092838811610a0657878c02908c820489141715610262578c9860006107eb60059661010194049e8f906122ac565b9c5561ffff191617905560ff191617905586610944575b85610871575b50917f5a87909bff68caaaaf0b3fd9c74eeccc928832f879315e5c6fb7a73612f26c0c847f82ca9b6ff85d9d7e3d2e0e0bd4950f362431e50269bf30b6f5e87acc6c9de34397959385600a600960409a98015491015587519015158152a28351928352820152a2005b60008054600184015460405163a9059cbb60e01b81529084166001600160a01b0316600482015260248101899052949550929392869284926044928492165af19081156109385760009161090b575b50156108cf5790859187610808565b60405162461bcd60e51b815260048101849052601460248201527310db1a595b9d081c99599d5b990819985a5b195960621b6044820152606490fd5b61092b9150843d8611610931575b6109238183611c48565b810190612026565b876108c0565b503d610919565b6040513d6000823e3d90fd5b60008054600284015460405163a9059cbb60e01b81529084166001600160a01b03166004820152602481018a90529495509293919286918391604491839187165af1908115610938576000916109e9575b50156109a45790869291610802565b60405162461bcd60e51b815260048101859052601860248201527f467265656c616e636572207061796f7574206661696c656400000000000000006044820152606490fd5b610a009150853d8711610931576109238183611c48565b88610995565b60405162461bcd60e51b8152600481018b9052600d60248201526c125b9d985b1a59081cdc1b1a5d609a1b6044820152606490fd5b60405162461bcd60e51b815260048101879052601860248201527f5061796d656e7420616c72656164792072656c656173656400000000000000006044820152606490fd5b60049150148961078c565b34610137576020366003190112610137576004358060005260046020526040600020906006820180549260ff8416600681101561027857610b4b57600201805490936001600160a01b038216610b0f57610b0d9460019233906001600160601b0360a01b1617905560ff19161790553360005260076020526040600020612150565b005b60405162461bcd60e51b8152602060048201526014602482015273129bd888185b1c9958591e481858d8d95c1d195960621b6044820152606490fd5b60405162461bcd60e51b81526020600482015260116024820152704a6f62206e6f7420617661696c61626c6560781b6044820152606490fd5b34610137576060366003190112610137576004356001600160401b03811161013757610bb4903690600401611c69565b6024356001600160401b03811161013757610bd3903690600401611c69565b90604435156110dd57600080546040516323b872dd60e01b815233600482015230602482015260448035908201529160209183916064918391906001600160a01b03165af1801561093857610c30916000916110be575b5061203e565b610c3b60035461207c565b908160035560405192610c4d84611c11565b82845233602085015260006040850152604435606085015281608085015260a0840152600060c0840152600060e084015260006101008401526000610120840152600161014084015260006101608401526044356101808401528160005260046020526040600020835181556001810160018060a01b03602086015116906001600160601b0360a01b9182825416179055600282019060018060a01b03604087015116908254161790556060840151600382015560808401518051906001600160401b038211610fdd578190610d266004850154611cbf565b601f811161106b575b50602090601f8311600114610ffe57600092610ff3575b50508160011b916000199060031b1c19161760048201555b60a08401518051906001600160401b038211610fdd578190610d836005850154611cbf565b601f8111610f8a575b50602090601f8311600114610f1d57600092610f12575b50508160011b916000199060031b1c19161760058201555b60c084015193600685101561027857610180600b91610ddf6020976006860161208b565b60e08101516007850155610e2960088501610e0d6101008401511515829060ff801983541691151516179055565b610120830151815461ff00191690151560081b61ff0016179055565b6101408101516009850155610160810151600a85015501519101558160005260058352610e7f604060002060405190610e6182611c2d565b604435825260008683015260006040830152600060608301526120bf565b817f99c090ea4e24c09baf74da49bf4100be7de555b972b1e6e4f495989738093d79604080516000815260443587820152a23360005260068352610ec7826040600020612150565b817f6f3a5227c058380f6d30b3c63e04e4b049f2df6d1780f11e4ff1b3e9728a3652604051604435815260408682015280610f0733956040830190611d9f565b0390a3604051908152f35b015190508680610da3565b600585016000908152602081209350601f198516905b818110610f725750908460019594939210610f59575b505050811b016005820155610dbb565b015160001960f88460031b161c19169055868080610f49565b92936020600181928786015181550195019301610f33565b909150600584016000526020600020601f840160051c810160208510610fd6575b90849392915b601f830160051c82018110610fc7575050610d8c565b60008155859450600101610fb1565b5080610fab565b634e487b7160e01b600052604160045260246000fd5b015190508680610d46565b600485016000908152602081209350601f198516905b818110611053575090846001959493921061103a575b505050811b016004820155610d5e565b015160001960f88460031b161c1916905586808061102a565b92936020600181928786015181550195019301611014565b909150600484016000526020600020601f840160051c8101602085106110b7575b90849392915b601f830160051c820181106110a8575050610d2f565b60008155859450600101611092565b508061108c565b6110d7915060203d602011610931576109238183611c48565b84610c2a565b60405162461bcd60e51b815260206004820152601d60248201527f427564676574206d7573742062652067726561746572207468616e20300000006044820152606490fd5b34610137576000366003190112610137576020600354604051908152f35b3461013757604036600319011261013757611159611dec565b6001600160a01b03166000908152600760205260409020805460243591908210156101375760209161058291611e3d565b3461013757602080600319360112610137576004356000526004815260406000209060018060a01b0391826001820154168033036112e657600682019384549260ff84166006811015610278576004036112ae579161123e9391600b8694019660058854946111fa86151561226a565b60ff19161790556000805460405163a9059cbb60e01b81526001600160a01b0390941660048501526024840194909452919485939190911691839182906044820190565b03925af190811561093857600091611291575b501561125d5760008255005b6064906040519062461bcd60e51b82526004820152600d60248201526c1499599d5b990819985a5b1959609a1b6044820152fd5b6112a89150823d8411610931576109238183611c48565b83611251565b60405162461bcd60e51b815260048101869052601060248201526f129bd8881b9bdd08191a5cdc1d5d195960821b6044820152606490fd5b60405162461bcd60e51b815260048101849052601660248201527513db9b1e4818db1a595b9d0818d85b881c99599d5b9960521b6044820152606490fd5b3461013757602080600319360112610137576001600160a01b03611346611dec565b1660005260078152604060002090604051908181845491828152019360005281600020916000905b828210611385576101a98561019d81890382611c48565b83548652948501946001938401939091019061136e565b34610137576040366003190112610137576004356024358015158103610137576113d160018060a01b036002541633146121e5565b81600052600460205260406000206006810191825460ff811660068110156102785760026113ff9114612229565b60088301805460ff199081166001179091559115611457575091600361142a93825416179055612305565b7f5a87909bff68caaaaf0b3fd9c74eeccc928832f879315e5c6fb7a73612f26c0c602060405160018152a2005b60049250161790557f5a87909bff68caaaaf0b3fd9c74eeccc928832f879315e5c6fb7a73612f26c0c602060405160008152a2005b3461013757602036600319011261013757600435600052600460205260406000208054600160a01b60019003918260018201541692600282015416600382015491600481016114da90611cf9565b926114e760058301611cf9565b93600683015460ff1694600784015490600885015492600986015494600a87015496600b0154976040519b8c9b8c5260208c015260408b015260608a01526101a08060808b0152890161153991611d9f565b88810360a08a015261154a91611d9f565b9560c0880161155891611ddf565b60e087015260ff8116151561010087015260081c60ff1615156101208601526101408501526101608401526101808301520390f35b34610137576060366003190112610137576004356001600160401b038111610137576115bd903690600401611c69565b6024356001600160401b038111610137576115dc903690600401611c69565b60448035906001600160401b0382116101375736602383011215610137578160040135916001600160401b038311610fdd578260051b604051936116236020830186611c48565b8452602460208501918301019136831161013757602401905b828210611c0157505050815115611bc757600093845b83518610156116cb576116658685612185565b511561168f576116758685612185565b51810180911161026257611689909561207c565b94611652565b60405162461bcd60e51b815260206004820152601560248201527404d696c6573746f6e65206d757374206265203e203605c1b81850152606490fd5b600080546040516323b872dd60e01b81523360048201523060248201526044810184905292939287928792602091839160649183916001600160a01b03165af180156109385761172291600091611ba8575061203e565b61172d60035461207c565b918260035581516040519161174183611c11565b8483523360208401526000604084015286606084015285608084015260a0830152600060c0830152600060e083015260006101008301526000610120830152610140820152600061016082015284610180820152826000526004602052604060002090805182556001820160018060a01b03602083015116906001600160601b0360a01b9182825416179055600283019060018060a01b03604084015116908254161790556060810151600383015560808101518051906001600160401b038211610fdd5781906118156004860154611cbf565b601f8111611b55575b50602090601f8311600114611ae357600092611ad8575b50508160011b916000199060031b1c19161760048301555b60a08101518051906001600160401b038211610fdd5781906118726005860154611cbf565b601f8111611a85575b50602090601f8311600114611a1357600092611a08575b50508160011b916000199060031b1c19161760058301555b60c0810151600681101561027857600b916118cb610180926006860161208b565b60e081015160078501556118f960088501610e0d6101008401511515829060ff801983541691151516179055565b6101408101516009850155610160810151600a850155015191015560005b81518110156119af576119aa9083600052600560205261196a604060002061193f8386612185565b51906040519161194e83611c2d565b82526000602083015260006040830152600060608301526120bf565b837f99c090ea4e24c09baf74da49bf4100be7de555b972b1e6e4f495989738093d7960406119988487612185565b518151908582526020820152a261207c565b611917565b60208385817f6f3a5227c058380f6d30b3c63e04e4b049f2df6d1780f11e4ff1b3e9728a36528933600052600686526119ec836040600020612150565b60405190815260408682015280610f0733956040830190611d9f565b015190508880611892565b9250600585016000526020600020906000935b601f1984168510611a6a576001945083601f19811610611a51575b505050811b0160058301556118aa565b015160001960f88460031b161c19169055888080611a41565b81810151835560209485019460019093019290910190611a26565b909150600585016000526020600020601f840160051c810160208510611ad1575b90849392915b601f830160051c82018110611ac257505061187b565b60008155859450600101611aac565b5080611aa6565b015190508880611835565b9250600485016000526020600020906000935b601f1984168510611b3a576001945083601f19811610611b21575b505050811b01600483015561184d565b015160001960f88460031b161c19169055888080611b11565b81810151835560209485019460019093019290910190611af6565b909150600485016000526020600020601f840160051c810160208510611ba1575b90849392915b601f830160051c82018110611b9257505061181e565b60008155859450600101611b7c565b5080611b76565b611bc1915060203d602011610931576109238183611c48565b86610c2a565b60649072135a5b195cdd1bdb995cc81c995c5d5a5c9959606a1b6040519162461bcd60e51b83526020600484015260136024840152820152fd5b813581526020918201910161163c565b6101a081019081106001600160401b03821117610fdd57604052565b608081019081106001600160401b03821117610fdd57604052565b90601f801991011681019081106001600160401b03821117610fdd57604052565b81601f82011215610137578035906001600160401b038211610fdd5760405192611c9d601f8401601f191660200185611c48565b8284526020838301011161013757816000926020809301838601378301015290565b90600182811c92168015611cef575b6020831014611cd957565b634e487b7160e01b600052602260045260246000fd5b91607f1691611cce565b9060405191826000825492611d0d84611cbf565b908184526001948581169081600014611d7c5750600114611d39575b5050611d3792500383611c48565b565b9093915060005260209081600020936000915b818310611d64575050611d3793508201013880611d29565b85548884018501529485019487945091830191611d4c565b915050611d3794506020925060ff191682840152151560051b8201013880611d29565b919082519283825260005b848110611dcb575050826000602080949584010152601f8019910116010190565b602081830181015184830182015201611daa565b9060068210156102785752565b600435906001600160a01b038216820361013757565b6020908160408183019282815285518094520193019160005b828110611e29575050505090565b835185529381019392810192600101611e1b565b8054821015611e555760005260206000200190600090565b634e487b7160e01b600052603260045260246000fd5b6040906003190112610137576004359060243590565b3461013757602080600319360112610137576004906000908235825282815260409081832060018060a01b036002820154163303611fe357600681019060ff8254166006811015611fd057600103611f9757600a81015491611ee860098301548410612199565b81548652600584526001611efe848789206120a3565b500180549760ff8916611f5457507f26cf581e2709e0615164af15a371b2dd10fb48d5baed91e9eacd557633c16bcb959697600291600160ff19809316179055825416179055426007820155549351908152a280f35b865162461bcd60e51b8152908101869052601b60248201527f4d696c6573746f6e6520616c7265616479207375626d697474656400000000006044820152606490fd5b835162461bcd60e51b815280870184905260136024820152724a6f62206e6f7420696e2070726f677265737360681b6044820152606490fd5b634e487b7160e01b865260218752602486fd5b825162461bcd60e51b8152808601839052601b60248201527f4e6f74207468652061737369676e656420667265656c616e63657200000000006044820152606490fd5b90816020910312610137575180151581036101375790565b1561204557565b60405162461bcd60e51b815260206004820152600f60248201526e151c985b9cd9995c8819985a5b1959608a1b6044820152606490fd5b60001981146102625760010190565b9060068110156102785760ff80198354169116179055565b8054821015611e555760005260206000209060011b0190600090565b8054600160401b811015610fdd576120dc916001820181556120a3565b61213a57600160609183518155019161210760208201511515849060ff801983541691151516179055565b6040810151835461ff00191690151560081b61ff00161783550151815462ff0000191690151560101b62ff000016179055565b634e487b7160e01b600052600060045260246000fd5b8054600160401b811015610fdd5761216d91600182018155611e3d565b819291549060031b91821b91600019901b1916179055565b8051821015611e555760209160051b010190565b156121a057565b60405162461bcd60e51b815260206004820152601760248201527f416c6c206d696c6573746f6e657320636f6d706c6574650000000000000000006044820152606490fd5b156121ec57565b60405162461bcd60e51b815260206004820152601560248201527413db9b1e481052481859d95b9d08185b1b1bddd959605a1b6044820152606490fd5b1561223057565b60405162461bcd60e51b8152602060048201526012602482015271496e76616c6964206a6f622073746174757360701b6044820152606490fd5b1561227157565b60405162461bcd60e51b81526020600482015260136024820152724e6f20657363726f772072656d61696e696e6760681b6044820152606490fd5b9190820391821161026257565b156122c057565b60405162461bcd60e51b815260206004820152601760248201527f4d696c6573746f6e65206e6f74207375626d69747465640000000000000000006044820152606490fd5b600a8101908154600982019161231d83548310612199565b805493600094855260209360058552604061233a858289206120a3565b509060018201805461234e60ff82166122b9565b60ff8160101c166124f757620101009062ffff0019161790558154612378600b87019182546122ac565b905587546002860180548454845163a9059cbb60e01b81526001600160a01b039283166004820152602481019190915291999098929091908290829060449082908f908e165af19081156124ed578b916124d0575b501561248d57865493548351928352908201527fafc8fc5dd6037bf38d34d9d51bb5ecc0af143248332c63ae9e83bbef6d4638d99190a2815491600183018093116124795782905554116124665760088101805461ff00191661010017905560068101805460ff1916600517905554915416917f4156924bd7e340b19303af17bf5323d66fae5dc16f350319092e0839c85436839080a3565b600601805460ff19166001179055505050565b634e487b7160e01b87526011600452602487fd5b60649083519062461bcd60e51b82526004820152601760248201527f5061796d656e74207472616e73666572206661696c65640000000000000000006044820152fd5b6124e79150823d8411610931576109238183611c48565b386123cd565b84513d8d823e3d90fd5b825162461bcd60e51b8152600481018a90526016602482015275135a5b195cdd1bdb9948185b1c9958591e481c185a5960521b6044820152606490fdfea2646970667358221220e4693284d425ed8e5689c93e08add4bd957ca357c74b242a9c64a51ae403ee0f64736f6c63430008140033",
  "linkReferences": {},
  "deployedLinkReferences": {}
}